:10239500C1014100910041008E0041008D004200C5
:1023A5009B000042008B00004500ABD30203AD004B
:1023B5004500B0636F66AC00C103C106C102C10729
:1023C500C105C10442008F00004400A500000000C3
:1023D50044009D0000000042009200004200A10060
:0723E500004100C100C1002E
:030023000223F1C4
:1023F100C0E0C083C082C0D075D000C007C091309A
:102401009824D20B9002C5E599F09000CDE004F03C
:102411009002C5E0FF9000CDE02400F582E4340095
:10242100F583EFF0C298309905200A02C299D09144
:0B243100D007D0D0D082D083D0E032A2
:03000B00021737A2
:10173700C0E0C0F0C083C082C0D075D000C000C078
:1017470001C002C003C004C005C006C007C0917530
:101757008C00758A10C28DC3900090E094029000AF
:101767008FE09400500302180890008EE094284000
:1017770003021808D201121FFBAC06AD07E41202E0
:101787004A90008312057B122090AC06AD07E41245
:10179700024A90008712057B900083E0FCA3E0FDDE
:1017A700A3E0FEA3E0FF12028390008EE025E02471
:1017B7001FF582E43400F583EEF0A3EFF090008785
:1017C700E0FCA3E0FDA3E0FEA3E0FF12028390008C
:1017D7008EE025E024CEF582E43400F583EEF0A315
:1017E700EFF090008EE004F0A3E4F0A3F090008304
:1017F700120587000000009000871205870000008F
:1018070000900090E004F0700690008FE004F0D0A4
:1018170091D007D006D005D004D003D002D001D094
:0C18270000D0D0D082D083D0F0D0E032CE
:0B22D000900132EBF0A3EAF0A3E9F06C
:1022DB00E4900137F0A3F09000CBEDF0900136E0E5
:1022EB00FF9000CBE0FED39F5035900132E0FBA373
:1022FB00E0FAA3E0F975F002EEA4F58285F0831203
:10230B0003E6FFAEF0C3900138E09F900137E09EEB
:10231B005005EEF0A3EFF09000CBE004F080BD9001
:07232B000137E0FEA3E0FF13
:012332002288
:0B226A00900132EBF0A3EAF0A3E9F0D2
:10227500900137741FF0A374FFF09000CBEDF09040
:102285000136E0FF9000CBE0FED39F503590013240
:10229500E0FBA3E0FAA3E0F975F002EEA4F5828570
:1022A500F0831203E6FFAEF0D3900138E09F900172
:1022B50037E09E4005EEF0A3EFF09000CBE004F090
:0A22C50080BD900137E0FEA3E0FFAA
:0122CF0022EC
:100EE10090008EE0FFD394275003020F88E4900016
:100EF100C9F0A3F09000A9F0A3F09000C7F0A3F00F
:100F01009000A3F0A3F07B017A00791FEF24FE90FB
:100F11000136F0E4FD1222D09000C9EEF0A3EFF00B
:100F21007B017A0079CE90008EE024FE900136F0AC
:100F31001222D09000A9EEF0A3EFF07B017A0079A4
:100F41001F90008EE024FE900136F012226A90007C
:100F5100C7EEF0A3EFF0E490008EF0C39000CAE07A
:100F61009FFF9000C9E09EFE90009CE02FF0900052
:100F71009BE03EF09000A9E0FFA3E090008BCFF052
:100F8100A3EFF0A3E004F090008DE0F9C3942050AA
:100F9100030210EE90009BE0FEA3E0FFE9FD7C0060
:100FA10012036590009BEEF0A3EFF0E490008DF04A
:100FB100AD07AC0612024AE4FBFA79347843120118
:100FC1002F9000A512057B90008BE0FCA3E0FDE4CF
:100FD10012024A7B347A337953783A120026900010
:100FE1009D12057B7F337E337D7B7C419000A5E0A4
:100FF100F8A3E0F9A3E0FAA3E0FB1201CC600C40F6
:101001000A9000C1E004F0D206800D9000C1E0C357
:10101100648094835002C2067F8F7EC27D257C400E
:1010210090009DE0F8A3E0F9A3E0FAA3E0FB120130
:10103100CC602240209000A1E475F0011203D0FEA3
:10104100C3E5F09405EE94004036E49000A1F0A3CE
:10105100F0D207802B30071F7F9A7E997D197C4043
:1010610090009DE0F8A3E0F9A3E0FAA3E0FB1201F0
:10107100CC5004C2078009E49000A1F0A3F0C2079C
:101081007F337E337DB37C3F90009DE0F8A3E0F990
:10109100A3E0FAA3E0FB1201CC501F900092E4758B
:1010A100F0011203D0FEC3E5F09405EE9400403D3B
:1010B100E4900092F0A3F0D20522900092E0700437
:1010C100A3E06401701EFFFE7DC07C3F90009DE0A7
:1010D100F8A3E0F9A3E0FAA3E0FB1201CC6005401C
:0E10E10003C20522E4900092F0A3F0C20522A3
:0B251000900132EBF0A3EAF0A3E9F029
:10251B00E4FFFE900135E0FBA3E0FAA3E0F98F8224
:10252B008E83120304FD900132E0FBA3E0FAA3E0DB
:10253B00F98F828E83ED1203430FBF00010EEF6400
:04254B00054E70CFFA
:01254F002269
:10061100A2AF920FC2AF75C7AA75C755E4F591A2F3
:100621000F92AF53B1EF43B210A2AF920FC2AF75A9
:10063100C7AA75C755F591A20F92AF53B3FB43B447
:1006410004A2AF920FC2AF75C7AA75C755F591A2A3
:100651000F92AF53B3F743B408A2AF920FC2AF7575
:10066100C7AA75C755F591A20F92AF53B3EF43B423
:1006710010C28453890F438E08D28C121833C29250
:10068100C293C294D292C293C2947FB87E0B1226B7
:100691001A7F0612162CA2AF920FC2AF75C7AA75A8
:1006A100C755E4F591A20F92AF53B17F53B27FA228
:1006B100AF920FC2AF75C7AA75C755F591A20F9238
:1006C100AF53B1BF53B2BF90013604F0A3120587F7
:1006D1000001C2007F007E367D6E7C0112151BD2A7
:1006E100ACD2A9D2AF1225507B017A0079AB90012F
:1006F10037E4F0A37405F07FE07E381222037B011A
:100701007A0079B0900137E4F0A37405F07FF07EB0
:10071100381222039000CDE0C3941450030208E77D
:10072100E49000CCF09000CCE0FFC3941E400302A3
:1007310008E774002FF582E43400F583E064436038
:10074100030208DE9000CCE02401F582E43400F5D8
:1007510083E0644F60030208DE74022FF582E43403
:1007610000F583E0645260030208DE9000CCE024CF
:1007710003F582E43400F583E0644660030208DE99
:1007810074042FF582E43400F583E06423600302EE
:1007910008DE9000CCE02405F582E43400F583E026
:1007A100FE643170529000CCE0FD2406F582E43401
:1007B10000F583E09000B5F074072DF582E4340074
:1007C100F583E09000B6F09000CCE02408F582E4D7
:1007D1003400F583E09000B7F074092DF582E4341C
:1007E10000F583E09000B8F0740A2FF582E434003C
:1007F100F583E09000B9F0EE643270559000CCE0E2
:10080100FF2406F582E43400F583E09000C2F07421
:10081100072FF582E43400F583E09000C3F09000E7
:10082100CCE02408F582E43400F583E09000C4F0C4
:1008310074092FF582E43400F583E09000C5F0904F
:1008410000CCE0240AF582E43400F583E09000C690
:10085100F09000CCE02405F582E43400F583E0B4A7
:1008610031167B017A0079B5900137E4F0A3740564
:10087100F07FE07E38121ACE9000CCE02405F5829C
:10088100E43400F583E0B432167B017A0079C2903A
:100891000137E4F0A37405F07FF07E38121ACEE43C
:1008A1009000CDF0FE7F1EFD7B017A0079001205DC
:1008B100E57B017A0079AB900137E4F0A37405F090
:1008C1007FE07E381222037B017A0079B0900137F4
:1008D100E4F0A37405F07FF07E381222039000CC7F
:1008E100E004F0020726300105C201120EE17B018E
:1008F1007A0079BA7F26122195900091EFF07B0161
:100901007A0079BA121B8C900091EFF06003020912
:10091100F3C294C293C2927FC8FE12261AD2927F6A
:10092100C87E0012261AC2927FC87E0012261AD2F1
:10093100929000ABE0FF9000BAE0FEB50724900072
:10094100ACE0FF9000BBE0B507189000ADE0FF9070
:1009510000BCE0B5070C9000AEE0FF9000BDE06F79
:10096100602F9000B0E06E60030209FDA3E0FF90EC
:1009710000BBE06F60030209FD9000B2E0FF900050
:10098100BCE06F70779000B3E0FF9000BDE06F7046
:100991006B2003179001357401F0A37400F0A37468
:1009A100BAF07B017A007994122510900094E0FF4F
:1009B1009000BAE06F7035900095E0FF9000BBE0C9
:1009C1006F7029900096E0FF9000BCE0B5071D9084
:1009D1000097E0FF9000BDE0B50711E49000C1F081
:1009E100200302D202300302C202B2037FD07E078B
:1009F10080071225507F197E0012261A30020F201F
:100A0100060C200709200506D284D2008004C28486
:100A1100C200300009D293C294C292020715300479
:100A210009C293D294C29202071520060620070339
:100A310030051BC293C292C2937FF47E0112261A23
:100A4100D2947FF47E0112261AC294020715C29332
:070A5100C294D292020715C6
:10261A00E4FDFCE4FBFAC3EB9FEE6480F8EA648015
:10262A009850070BBB00010A80EC0DBD00010CBCE1
:05263A0005E1BD10DE0A
:01263F002278
:06264000120304FD7F09F6
:1026460090014BEDF0C295EF25E0547EFF12272452
:0B26560090014BE0FF122724D29522D8
:10268200C295EF25E0547E4480FF12272490014B2F
:0C269200E0FF12270B90014BEFF0D295F7
:01269E002219
:0A26D70090014AEDF0900149EFF088
:1026E100122682AE07900149E0FFA3E04EFD0226CB
:0126F10046A2
:0A269F0090014AEDF0900149EFF0C0
:1026A900122682AE07900149E0FFA3E0F45EFD0225
:0226B9002646B3
:10000E007F141226827D037F141226D77F37022695
:01001E00825F
:072741007D037F1402269FB7
:072748007D0F7F0102264610
:10255000C295D2971227487D8D7F2A1226467D3E4E
:102560007F2B1226467D1E7F2D122646E4FD7F2CF2
:102570001226467D407F151226467D3D7F1112268C
:09258000467F3712268202000E8C
:100CD00090013CF0A37401F0A37402F0A37460F0DF
:100CE000A37401F0A37402F0A3745EF07A02796039
:040CF0007B017F0CF9
:100CF400900139EBF0A3EAF0A3E9F0900138EFF0AA
:100D04009001437402F0E4A3F0A3F0EF24F4601024
:100D140024FE70169001447412F0A37410F0800A3B
:100D24009001447477F0A37430F0900144E044805F
:100D3400FD7F021226467D807F0412269F7D807FE0
:100D44000A1226D7E4FD7F01122646E4900147F0FB
:100D5400A3F090013CE0FF900147E0FCA3E0FDC359
:100D64009FEC94005022900139E0FBA3E0FAA3E049
:100D7400F98D828C83122640900148E004F070D2F1
:100D8400900147E004F080CA900138E0FD7F011231
:100D94002646900138E0B40C077D807F0D1226D7DB
:100DA4009001477407F0A374D0F07F041226829058
:100DB4000146EFF0900148E024FFF0900147E03451
:100DC400FFF0E07002A3E06011900146E0FF20E034
:100DD40009900145E0FEEF5E60D07D807F0D122614
:100DE4009F900147E07002A3E07003020EDB7F06D0
:100DF400122682EF541B6003020ED5900143F0A328
:100E0400E0FF900146E05F30E0069001437401F09A
:100E1400900138E0640C6003020EDB7F0A12268224
:100E2400900146EFF07F0C122682EF5407FD6029F3
:100E3400900146E024FFFFE434FFFEEF7803C33360
:100E4400CE33CED8F97C002DFFEC3EF9900140E082
:100E5400FBA3E0FAA3E0C98016900146E075F00810
:100E6400A4FF900140E0FBA3E0FAA3E0F9E5F08FD2
:100E7400F012041E900146E0700204F0900146E076
:100E8400D3941040037410F0E4900147F0A3F09061
:100E94000146E0FFC3900148E09F900147E09400C1
:100EA40050357F0912268290013DE0FBA3E0FAA3AE
:100EB400E0F9900147E0FCA3E0F5828C83EF120394
:100EC40043900148E004F070C6900147E004F080CC
:0C0ED400BE9001437402F0900143E0FF67
:010EE00022EF
:0E219500900132EFF0A3EBF0A3EAF0A3E9F023
:1021A3007D077F0D122646900132E0FFA3E0FBA3DB
:1021B300E0FAA3E0F9EF12033190013C7401F090CF
:1021C3000133E0F9A3E0FAA3E090013DC9F0A3EAEB
:1021D300F0A3E9F0A37401F0A37401F0A37436F043
:1021E300900133E0FBA3A3E0F97F0C120CF4EF7032
:0F21F3000C900136E07004A3E0641060027F02DC
:0122020022B9
:0B1B8C00900132EBF0A3EAF0A3E9F0B7
:101B9700E4A3F0FD7F0D122646900132E0FBA3E09F
:101BA700FAA3E0F97493120331900132E0FBA3E04A
:101BB700FAA3E0F99000017420120343C002C001A8
:101BC70090013C7402F0900132E0F9A3E0FAA3E03F
:101BD70090013DC9F0A3EAF0A3E9F0A37401F0A3D3
:101BE7007401F0A37436F0D001D0027F0C120CF40C
:101BF700AC07EC7044FD900135E0FF900132E0FB4B
:101C0700A3E0FAA3E0F98D82758300120304FEEFC7
:101C17006E900135F00DEDB404DC900132E0FBA3CA
:101C2700E0FAA3E0F9AF058F82758300120304FF82
:0B1C3700900135E06F60027C02AF04FA
:011C4200227F
:061E2D007B017A027960DE
:0E1E33009002ACEBF0A3EAF0A3E9F0A3EDF00F
:101E41007D047F0512269F7D807F0A1226D7E490AC
:101E510002B3F09002AFE0FF9002B3E0FEC39F50E7
:101E61001B9002ACE0FBA3E0FAA3E0F98E8275833C
:101E7100001226409002B3E004F080D77D037F0179
:101E81001226469002B374FFF07F0512268290025B
:101E9100B3E014F0E06004EF30E2EE7F221226821C
:101EA1009002B0E0FBA3E0FAA3E0F9EF1203317F67
:101EB100211226829002B0E0FBA3E0FAA3E0F990A0
:061EC1000001EF020343E3
:0B1EC700900272EBF0A3EAF0A3E9F038
:101ED2009002787493F0A37470F0E4FF900272E0C1
:101EE200FBA3E0FAA3E0F98F82758300120304FEDC
:101EF200747A2FF582E43402F583EEF00FEFB40525
:101F0200DB9002B07401F0A37402F0A3747FF07B43
:101F1200017A0279787D07121E3390013C7409F030
:101F2200A37401F0A37402F0A37478F0A37401F017
:101F3200A37402F0A37476F07A027978120CF0EFAF
:101F42007012900276E07004A3E0641870069002AA
:0E1F520078E08001E4900275F0900275E0FFE7
:011F6000225E
:0B1C4300900246EBF0A3EAF0A3E9F0EA
:101C4E0090024FEFF0A3EDF0E4FF900246E0FBA30D
:101C5E00E0FAA3E0F98F82758300120304FE74513B
:101C6E002FF582E43402F583EEF00FEFB406DBE4D9
:101C7E00FF900249E0FBA3E0FAA3E0F98F8275839F
:101C8E0000120304FE74572FF582E43402F583EE3E
:101C9E00F00FEFB404DB90013C740CF0A37401F070
:101CAE00A37402F0A3744FF0A37401F0A37402F0B6
:101CBE00A3744DF07B017A02794F7F0E120CF490D3
:101CCE00024CEFF070097F08122682EF20E3069097
:0A1CDE00024C7402F090024CE0FF8B
:011CE80022D9
:0B1D8D009002C0EBF0A3EAF0A3E9F025
:101D98009002C0E0FBA3E0FAA3E0F974301203312B
:101DA8009002C0E0FBA3E0FAA3E0F9900001EF1273
:101DB8000343C003C002C0019002C0E0FBA3E0FAE5
:101DC800A3E02402F9E43AFA9002B0EBF0A3EAF0B7
:101DD800A3E9F0D001D002D0037D02121E33900196
:101DE8003C7404F09002C0E0F9A3E0FAA3E090018B
:101DF8003DC9F0A3EAF0A3E9F0A37401F0A37402CB
:101E0800F0A374C3F09002C0E0FBA3A3E0F97F0C39
:101E1800120CF4EF700C9002C3E07004A3E064901D
:041E280060027F02D3
:011E2C002293
:0B1CE90090025BEBF0A3EAF0A3E9F02F
:101CF40090026074A0F0A3EFF09002B07401F0A31E
:101D04007402F0A37462F07D02121E2D7404120C8E
:101D1400D0EF701690025EE07004A3E06404700AD1
:101D2400900260E0540F640A60027F02EF7059FE73
:101D340090025BE0FBA3E0FAA3E0F98E82758300D6
:101D4400120304FD74602EF582E43402F583EDF091
:101D54000EEEB410DB9002B07401F0A37402F0A391
:101D64007470F07D10121E2D7412120CD0EF7016C8
:101D740090025EE07004A3E06404700A900260E0E4
:081D8400540F640A60027F02A3
:011D8C002234
:10243C009002B67450F0E4A3F07B019002B004F06B
:10244C00A37402F0A374B8F07A0279B67D02121E5E
:10245C003390013C7404F0A37401F0A37402F0A354
:10246C0074B6F0A37401F0A37402F0A374B4F07BFF
:0A247C00017A0279B67F0C020CF41D
:10183300A2AF920FC2AF75C7AA75C755E4F591A2BF
:101843000F92AF53B3DF53B4DFA2AF920FC2AF75A2
:10185300C7AA75C755F591A20F92AF53B3FE53B400
:10186300FEA2AF920FC2AF75C7AA75C755F591A275
:101873000F92AF53B1FE53B2FEA2AF920FC2AF7538
:10188300C7AA75C755F591A20F92AF53B1FD53B2D5
:10189300FD43F408A2AF920FC2AF75C7AA75C7552F
:1018A300F591A20F92AF53F37FA2AF920FC2AF7520
:1018B300C7AA75C755F591A20F92AF53F3DFA2AF35
:1018C300920FC2AF75C7AA75C755F591A20F92AF14
:1018D30053F3F7A2AF920FC2AF75C7AA75C755F5F9
:1018E30091A20F92AF53F3FBA2AF920FC2AF75C792
:1018F300AA75C755F591A20F92AF43F310A2AF9209
:101903000FC2AF75C7AA75C755F591A20F92AF5312
:10191300F3FCA2AF920FC2AF75C7AA75C755F59175
:0B192300A20F92AF43F34053F47F2269
:0B2724008FF5E5F430E7FB53F47F2253
:0C270B008FF5E5F430E7FBAFF553F47FE9
:01271700229F
:040003008F828E83D7
:03000700E493FF80
:01000A0022D3
:0B271800EF448075C7AA75C755F59FF8
:012723002293
:09272F00300D0543870200002271
:09273800300E0543870100002268
:06192E0090029A12057BF5
:10193400538EF75389F04389017B407A42790F78BB
:101944000090029AE0FCA3E0FDA3E0FEA3E0FF12F6
:1019540004C8A804A905AA06AB079002A0E0FEA348
:10196400E0FFE4FCFD12043DE47B0CFAF9F81204F8
:10197400C8C374FF9FFF74FF9EE49DE49C9002A281
:10198400EFF07B407A42790F780090029AE0FCA352
:10199400E0FDA3E0FEA3E0FF1204C8A804A905AA81
:1019A40006AB079002A0E0FEA3E0FFE4FCFD1204F6
:1019B4003DE47B0CFAF9F81204C8C374FF9FFF746A
:1019C400FF9EFEE49DFDE49CFC78081205689002ED
:1019D4009EE07002A3E060219002A2E0F58A8F8C61
:1019E400D28C308DFDC28DC28C90029FE024FFF01A
:0919F40090029EE034FFF080D562
:0119FD0022C7
:0619FE009002A312057B1C
:101A0400538EEF53890F4389107B407A42790F78C4
:101A1400009002A3E0FCA3E0FDA3E0FEA3E0FF121C
:101A240004C8A804A905AA06AB079002A9E0FEA36E
:101A3400E0FFE4FCFD12043DE47B0CFAF9F8120427
:101A4400C8C374FF9FFF74FF9EE49DE49C9002ABA7
:101A5400EFF07B407A42790F78009002A3E0FCA378
:101A6400E0FDA3E0FEA3E0FF1204C8A804A905AAB0
:101A740006AB079002A9E0FEA3E0FFE4FCFD12041C
:101A84003DE47B0CFAF9F81204C8C374FF9FFF7499
:101A9400FF9EFEE49DFDE49CFC780812056890021C
:101AA400A7E07002A3E060219002ABE0F58B8F8D7C
:101AB400D28E308FFDC28FC28E9002A8E024FFF038
:091AC4009002A7E034FFF080D588
:011ACD0022F6
:0613CC0090028112057B76
:1013D200E4F591900285E0FEA3E08EF01205B814C8
:1013E200050001140A000414120010141A0020143B
:1013F200220040142A008014320100143A02000034
:1014020000144053C98F803653C98F43C910802EB0
:1014120053C98F43C920802653C98F43C930801EC8
:1014220053C98F43C940801653C98F43C950800E98
:1014320053C98F43C960800653C98F43C970C2C85C
:1014420043C98043C9047B407A42790F78009002F5
:1014520081E0FCA3E0FDA3E0FEA3E0FF1204C8903C
:101462000289E0F8A3E0F9A3E0FAA3E0FB12043D4D
:10147200C006C007900285E0FEA3E0FBAA06E4F9DD
:10148200F8D007D0061204C8C3E49FFFE49E74019B
:101492009DE49C90028DEFF07B407A42790F7800B8
:1014A200900281E0FCA3E0FDA3E0FEA3E0FF1204B2
:1014B200C8900289E0F8A3E0F9A3E0FAA3E0FB12E6
:1014C200043DC006C007900285E0FEA3E0FBAA0629
:1014D200E4F9F8D007D0061204C8C3E49FFFE49EE3
:1014E200FE74019DFDE49CFC780812056890028759
:1014F200E07002A3E0602190028DE0F5CC8FCDD2A6
:10150200CA30CFFDC2CFC2CA900288E024FFF09059
:081512000287E034FFF080D5F0
:01151A0022AE
:0610EF0090028E12057B49
:1010F500E4F591900292E024FE602124FE6025240F
:10110500FC602924F8602D24F0603124E06035244A
:10111500C06039247F703B53C4F8803653C4F8430C
:10112500C401802E53C4F843C402802653C4F84337
:10113500C403801E53C4F843C404801653C4F84343
:10114500C405800E53C4F843C406800653C4F8434F
:10115500C4077B407A42790F780090028EE0FCA3A9
:10116500E0FDA3E0FEA3E0FF1204C8900295E0F8BD
:10117500A3E0F9A3E0FAA3E0FB12043DC007900247
:1011850092E0FBE4FAF9F8D0071204C8C3E49FFF24
:10119500E49E74019DE49C900299EFF07B407A42B5
:1011A500790F780090028EE0FCA3E0FDA3E0FEA39A
:1011B500E0FF1204C8900295E0F8A3E0F9A3E0FA75
:1011C500A3E0FB12043DC007900292E0FBE4FAF9AC
:1011D500F8D0071204C8C3E49FFFE49EFE74019D86
:1011E500FDE49CFC7808120568900293E07002A368
:1011F500E06074A2AF920FC2AF75C7AA75C755E478
:10120500F591A20F92AF53C4EF900299E0F5C58F07
:10121500C6A2AF920FC2AF75C7AA75C755E4F591BF
:10122500A20F92AF43C408E5C430E4FBA2AF920F0E
:10123500C2AF75C7AA75C755E4F591A20F92AF5312
:10124500C4EFA2AF920FC2AF75C7AA75C755F59186
:10125500A20F92AF53C4F7900294E024FFF09002DE
:0712650093E034FFF08082EA
:01126C00225F
:1026BB00EF14600D14600D14600E2403700DD2A97D
:0C26CB0022D2AB22439B8022439C0222BF
:10162C00A2AF920FC2AF75C7AA75C755439F01A24F
:10163C000F92AFE4F591EF24F9600C1460092402C9
:10164C00700875A638800375A630E4F5A775AF044D
:10165C00A2AF920FC2AF75C7AA75C75543A401A21A
:10166C000F92AF85AE0805A6A2AF920FC2AF75C799
:10167C00AA75C75543A401A20F92AF85AE09EF24FA
:10168C00F86003021711E50825E0FFE50954012F66
:10169C00FF54C0F50BEF543FF50A74F22FFF75AFF2
:1016AC000C75A601E4F5A7A2AF920FC2AFA2AF9240
:1016BC000FC2AF75C7AA75C75543AA40A20F92AF08
:1016CC0075C7AA75C75543A401A20F92AFE5AE64C6
:1016DC004B600BE5AE64526005E5AEB45322E50AEF
:1016EC00C3940F5017E50B6440600BE50B648060EE
:1016FC0005E50BB4C00A74F22FFF800474FC2FFFB5
:10170C00EFC313F50875C7AA75C75585088475C747
:10171C00AA75C755850985A2AF920FC2AF75C7AA26
:0A172C0075C755539FFEA20F92AF40
:011736002290
:1024CE00EF24FD6011146012240270357F02122574
:1024DE00BE7F020223337F0380117F021225BE7F4F
:1024EE00021223337F041225BE7F04122333A2AFC0
:1024FE00920FC2AF75C7AA75C7555397DFA20F9239
:02250E00AF22FA
:1025BE00EF24FC601E24027028A2AF920FC2AF75EA
:1025CE00C7AA75C755439720A20F92AFE59620E58F
:1025DE001080F975C7AA75C7554397C0E59630E3C5
:0225EE00FB22CE
:1025F000E4F591EF24FC60182402701DA2AF920F45
:10260000C2AF75C7AA75C7555397DFA20F92AF2205
:0A26100075C7AA75C75553973F22FE
:10233300E4F591A2AF920FC2AFEF24FD60181460D1
:102343003924027048A2AF920FC2AF75C7AA75C7EE
:10235300555396FB800FA2AF920FC2AF75C7AA75F4
:10236300C755439604A20F92AFA2AF920FC2AF75A7
:10237300C7AA75C7555396FD800FA2AF920FC2AF80
:1023830075C7AA75C755439608A20F92AFA20F92BD
:02239300AF2277
:0423EC00C10AC10B56
:10151B0090013212057B900136E014605B14607908
:10152B002402600302162B75985043892043878051
:10153B00438E10A2AF920FC2AF75C7AA75C755E401
:10154B00F591A20F92AF53C4DF7B10FAF9F890011B
:10155B0032E0FCA3E0FDA3E0FEA3E0FF1204C89081
:10156B000137E0F8A3E0F9A3E0FAA3E0FB1204C80B
:10157B00EFF404F58DD28E2275985043878053C4B7
:10158B00F8A2AF920FC2AF75C7AA75C755E4F59114
:10159B00A20F92AF43C420800775F85075C480E446
:1015AB007B10FAF9F8900132E0FCA3E0FDA3E0FE1A
:1015BB00A3E0FF1204C8900137E0F8A3E0F9A3E021
:1015CB00FAA3E0FB1204C8C3E49FFFE49EFE740180
:1015DB009DFDE49CFC78081205688FC6E47B10FA2D
:1015EB00F9F8900132E0FCA3E0FDA3E0FEA3E0FFDD
:1015FB001204C8900137E0F8A3E0F9A3E0FAA3E0E6
:10160B00FB1204C8C3E49FFFE48FC5A2AF920FC2C5
:10161B00AF75C7AA75C755F591A20F92AF43C40812
:01162B00229C
:10266100C091E4F591EF14600C047012C2998D9938
:1026710020990B80FBC2F9AF058F9A20F9FDD0910B
:012681002236
:10258900A2AF920FC2AF75C7AA75C755E4F591A25C
:102599000F92AF53B1BF53B2BF900136F0A31205EA
:1025A900870001C2007F007E367D6E7C0112151BFB
:0525B900D299D20A22B4
:10248600AB07E4F591ED540FF5CEECC4F854F0C863
:10249600EDC4540F48F5CFEB6017A2AF920FC2AF51
:1024A60075C7AA75C755E4F591A20F92AF43E2200E
:1024B60022A2AF920FC2AF75C7AA75C755E4F591B0
:0824C600A20F92AF53E2DF22E6
:1026F200E4F59153E18FEF5407C454F042E153E201
:09270200F1ED540725E042E2224A
:10212500A2AF920FC2AF75C7AA75C755439F01A24B
:102135000F92AF75AF0475A60DE4F5A7A2AF920F88
:10214500C2AF75C7AA75C75543A401A20F92AFE5E3
:10215500AE540FFD75A60CE4F5A7A2AF920FC2AF62
:1021650075C7AA75C75543A401A20F92AFAFAEEFCD
:1021750075F010A47C002DFFEC35F0FEA2AF920F98
:0F218500C2AF75C7AA75C755539FFEA20F92AF81
:012194002228
:101FFB00A2AF920FC2AF75C7AA75C755E4F591A2F0
:10200B000F92AF53E8F043E806A2AF920FC2AF7541
:10201B00C7AA75C755F591A20F92AF43B10853B23A
:10202B00F7F5F643F64043E101A2AF920FC2AF754D
:10203B00C7AA75C755F591A20F92AFC2EFA2AF9287
:10204B000FC2AF75C7AA75C755F591A20F92AFD244
:10205B00EE30EFFDAFC37E00EFC4F8540FC868FF3E
:10206B00EEC454F048FEE5C2540FFDEF4DFFA2AF96
:10207B00920FC2AF75C7AA75C755E4F591A20F921F
:04208B00AF53E1FE70
:01208F00222E
:10209000A2AF920FC2AF75C7AA75C755E4F591A25A
:1020A0000F92AF53E8F043E807A2AF920FC2AF75AB
:1020B000C7AA75C755F591A20F92AF43B30253B4A7
:1020C000FDF5F643F68043E101A2AF920FC2AF7572
:1020D000C7AA75C755F591A20F92AFC2EFA2AF92F2
:1020E0000FC2AF75C7AA75C755F591A20F92AFD2AF
:1020F000EE30EFFDAFC37E00EFC4F8540FC868FFA9
:10210000EEC454F048FEE5C2540FFDEF4DFFA2AF00
:10211000920FC2AF75C7AA75C755E4F591A20F9289
:04212000AF53E1FEDA
:012124002298
:0B126D009002BAEEF0A3EFF0A3EDF04A
:10127800E4A3F09002BAE0FEA3E07807CEC313CE51
:1012880013D8F97807C333CE33CED8F9FF9002BE0E
:10129800EEF0A3EFF0E49002BDF09002BDE0FFC3D2
:1012A800948050299002BFE02FFF9002BEE03400E6
:1012B800FE1200037E009002BDE024C4F582E434EF
:1012C80001F583EFF09002BDE004F080CD9002BC00
:1012D800E0FF7C009002BBE0547F24C4F582EC342C
:1012E80001F583EFF09002BEE0FEA3E0F5A6EEF56F
:1012F800A775AEFFA2AF920FC2AF75C7AA75C75543
:10130800439F01A20F92AFA2AF920FC2AF75C7AAB7
:1013180075C75543A501A20F92AF75AF22A2AF9230
:101328000FC2AF75C7AA75C75543A401A20F92AFE4
:10133800A2AF920FC2AF75C7AA75C755439F01A246
:101348000F92AFA2AF920FC2AF75C7AA75C7554328
:10135800A501A20F92AF75AF21E49002BDF09002F3
:10136800BDE0FDC394805035A3E0FEA3E0FCED2C66
:10137800F5A6EEF5A774C42DF582E43401F583E0F3
:10138800F5AEA2AF920FC2AF75C7AA75C75543A4F1
:1013980001A20F92AF9002BDE004F080C1A2AF920B
:1013A8000FC2AF75C7AA75C75553A5FEA20F92AF56
:1013B800A2AF920FC2AF75C7AA75C755539FFEA2B9
:0313C8000F92AFD2
:0113CB0022FF
:101ACE00900132EEF0A3EFF0A3EBF0A3EAF0A3E95E
:011ADE00F017
:101ADF00900132E0FCA3E0FDAE047807CEC313CE35
:101AEF0013D8F9FB900137E0FEA3E02DFFEC3EFE8B
:101AFF00EF7807CEC313CE13D8F9900139F09001C8
:101B0F0039E06B6053900132E0FEA3E0FFA3E0FBEE
:101B1F00A3E0FAA3E0F990013F7480F0120A58ADE8
:101B2F0007900133E02FF0900132E03400F0900184
:101B3F0035E48FF01203BAC3900138E09FF09001A3
:101B4F0037E09400F0900132E0FEA3E07807CEC3B7
:101B5F0013CE13D8F9FB80A6900137E0FCA3E0FD6C
:101B6F004C6019900132E0FEA3E0FFA3E0FBA3E07D
:0C1B7F00FAA3E0F990013FEDF0120A58C3
:011B8B002237
:10220300900132EEF0A3EFF0A3EBF0A3EAF0A3E921
:01221300F0DA
:10221400E4900139F0A3F0900137E0FEA3E0FFA3BE
:10222400E0FCA3E0FDC39FEC9E503A900133E02D07
:10223400FF900132E03C8F82F583E493FF900134F8
:10224400E0FBA3E0FAA3E0F9900139A3E0F5828C66
:1022540083EF12034390013AE004F070BA9001391D
:05226400E004F080B26F
:012269002252
:100A580090013AEEF0A3EFF0A3EBF0A3EAF0A3E9DC
:010A6800F09D
:100A6900A2AF920FC2AF75C7AA75C755439F01A21E
:100A79000F92AFA2AF920FC2AF75C7AA75C7554300
:100A8900A501A20F92AF90013AE0FEA3E0FF547FC7
:100A9900FD900141F0C374809DFD900140F09001EB
:100AA9003FE0D39D4006A3E090013FF0900142EE64
:100AB900F0A3EFF0E4900140F090013FE0FFA3E0E4
:100AC900FEC39F501B900142E0FCA3E02EF582E497
:100AD9003CF583E493B4FF08900140E004F080D929
:100AE900EE6F6003020B8F75AF2190013AE0FEA310
:100AF900E0F5A6EEF5A7E4900140F090013FE0FF94
:100B0900A3E0FEC39F503290013CE0FBA3E0FAA3AF
:100B1900E0F98E82758300120304F5AEA2AF920F3D
:100B2900C2AF75C7AA75C75543A401A20F92AF05F5
:100B3900A6900140E004F080C2E4900140F09001E9
:100B49003FE0FFA3E0FEC39F502F90013CE0FBA3D1
:100B5900E0FAA3E0F98E82758300120304FF900185
:100B690042E0FCA3E02EF582E43CF583E493B5076B
:100B790008900140E004F080C590013FE0FFA3E048
:100B89006F7003020CB790013AE0FFA3E054809024
:100B99000142CFF0A3EFF0E4900140F0900140E072
:100BA900FF900142E0FCA3E02FF582E43CF583E4E9
:100BB90093FE74442FF582E43401F583EEF090013D
:100BC90040E004F0E0B480D4E4900140F090013FAB
:100BD900E0FFA3E0C39F503190013CE0FBA3E0FAA2
:100BE900A3E0F9900140E0FFF58275830012030448
:100BF900FE900141E02F2444F582E43401F583EEAF
:100C0900F0900140E004F080C490013AE0FEA3E0D6
:100C19005480F5A6EEF5A775AF2275AEFFA2AF9287
:100C29000FC2AF75C7AA75C75543A401A20F92AFEA
:100C390075AF21E4900140F0900140E0FFC394803A
:100C4900502A74442FF582E43401F583E0F5AEA20D
:100C5900AF920FC2AF75C7AA75C75543A401A20FBA
:100C690092AF05A6900140E004F080CCE4900140E9
:100C7900F0900140E0FFC39480502BE0FE900142C8
:100C8900E0FCA3E02EF582E43CF583E493FD744493
:100C99002EF582E43401F583E0FEEDB506089001F6
:100CA90040E004F080CBEF64806003020C12A2AF35
:100CB900920FC2AF75C7AA75C755539FFEA20F926F
:060CC900AF90013FE0FFC7
:010CCF002202
:03000000021F617B
:101F6100787FE4F6D8FD9000007FFF7E08E4F0A3BF
:0A1F7100DFFCDEFA758121021FB6C5
:10002600EC4D6011E8497017ED33EC3304600DE4D4
:10003600FCFFFEFD22E933E8330470F80202EF12FA
:1000460002BA58046009E4CC2481500628500902FB
:1000560002F92840030202F6C0E0EB4A7044B98078
:1000660006D0E0FB0202E5EF4E701CBD8008EBFFF8
:10007600EAFEE9FD80EBE98DF0A4FEE5F002010F52
:10008600E9CDF9EAFEEBFFEF89F0A4FCE5F0CE89B5
:10009600F0A42EFFE435F0CD89F0A42DFEE435F072
:1000A6008067EF4E7005BD80D780C3EF8BF0A4ACA0
:1000B600F0EE8BF0A42CFCE435F0F8EF8AF0A42CDB
:1000C600E5F038FCE433CB8DF0A42CFCE5F03BF8EE
:1000D600EE8AF0A42CFCE5F038F8E433CF89F0A4DE
:1000E6002CFCE5F038CF3400CE89F0A42FFFE5F0E4
:1000F6003EFEE433C98DF0A42EFEE5F039CD8AF03C
:10010600A42FFFE5F03EFEE43DFD33D0E0FB5007B3
:100116000BBB000F0202F9EC2CFCEF33FFEE33FEB3
:06012600ED33FD0202D1E1
:10012C000202F9EC5D046005E8590470030202EF69
:10013C001202BA580460F6EC4860F2EC7004FDFE52
:10014C00FF22C860DB2481C85009C39860025006A6
:10015C000202F69850CAF582E9294B4A7005AB8227
:10016C000202E575F0007C1A7880C3EF9BEE9AEDE5
:10017C0099400DC3EF9BFFEE9AFEED99FDE842F01E
:10018C00DC23ACF0D0E0FFD0E0FED0E0FDAB822071
:10019C00E7101BEB60BAEC2CFCEF33FFEE33FEEDFB
:1001AC0033FD0202D1E803F830E705C0F075F0002A
:1001BC00EF2FFFEE33FEED33FD40B830E7C280AADF
:1001CC0074F8CC6480CCC86480C8F58204604FC3DA
:1001DC00EB9FF5F0EA9E42F0E99D42F0E89C45F079
:1001EC00603C501DE5825FFFE582D313CB5BCBF403
:1001FC002B5582FB50280ABA002409B9002008802C
:10020C001DE5825BFBE582D313CF5FCFF4C3132FC5
:10021C005582FF50090EBE00050DBD00010CC3EB4D
:10022C009FF5F0EA9E42F0E99D42F0E89C45F060B3
:09023C0007CC4820E701B3EC22D5
:1002450075F020800E75F010800575F0087D007E34
:10025500007F003392D530D50312055AEC33401098
:10026500EF33FFEE33FEED33FDEC33FCD5F0ED223D
:0E027500E5F0247EA2D513CC92E7CDCEFF2279
:10028300EDD2E7CD33EC3392D524814006E4FFFE73
:10029300FDFC22FCE4CFCECDCC24E0501174FF80D2
:1002A300EDC3CC13CCCD13CDCE13CECF13CF04706F
:0702B300F030D5DE02055A10
:1002BA00E9D2E7C933E833F892D5EDD2E7CD33EC8A
:0702CA0033FC5002B2D52203
:1002D100EC30E7100FBF000C0EBE00080DBD00048E
:1002E1000BEB6014A2D5EB13FCED92E7FD2274FF3A
:1002F100FCFDFEFF22E480F8A2D574FF13FC7D8093
:03030100E480EFA6
:101F7B00020611E493A3F8E493A34003F68001F265
:101F8B0008DFF48029E493A3F85407240CC8C33367
:101F9B00C4540F4420C8834004F456800146F6DF36
:101FAB00E4800B0102040810204080902395E47E0E
:101FBB00019360BCA3FF543F30E509541FFEE4932B
:101FCB00A360010ECF54C025E060A840B8E493A3F2
:101FDB00FAE493A3F8E493A3C8C582C8CAC583CA1D
:101FEB00F0A3C8C582C8CAC583CADFE9DEE780BED5
:0123F00000EC
:10030400BB010CE58229F582E5833AF583E02250AE
:1003140006E92582F8E622BBFE06E92582F8E222F8
:0D032400E58229F582E5833AF583E4932212
:10033100BB010689828A83F0225002F722BBFE01AB
:02034100F322A5
:10034300F8BB010DE58229F582E5833AF583E8F0F0
:10035300225006E92582C8F622BBFE05E92582C89C
:02036300F22284
:10036500BC000BBE0029EF8DF084FFADF022E4CC7C
:10037500F875F008EF2FFFEE33FEEC33FCEE9DEC45
:10038500984005FCEE9DFE0FD5F0E9E4CEFD22ED8B
:10039500F8F5F0EE8420D21CFEADF075F008EF2FD5
:1003A500FFED33FD4007985006D5F0F222C398FDC6
:0503B5000FD5F0EA2263
:1003BA00C5F0F8A3E028F0C5F0F8E58215827002CE
:0603CA001583E038F0226B
:1003D000A3F8E0C5F025F0F0E582158270021583E0
:0603E000E0C838F0E8223D
:1003E600BB0110E58229F582E5833AF583E0F5F055
:1003F600A3E0225009E92582F886F008E622BBFE32
:100406000AE92582F8E2F5F008E222E5832AF58377
:08041600E993F5F0A3E993223C
:10041E00BB010A89828A83F0E5F0A3F0225006F729
:0F042E0009A7F01922BBFE06F3E5F009F3192226
:10043D00E88FF0A4CC8BF0A42CFCE98EF0A42CFC5E
:10044D008AF0EDA42CFCEA8EF0A4CDA8F08BF0A4DC
:10045D002DCC3825F0FDE98FF0A42CCD35F0FCEB3B
:10046D008EF0A4FEA9F0EB8FF0A4CFC5F02ECD3900
:0F047D00FEE43CFCEAA42DCE35F0FDE43CFC226D
:10048C0075F008758200EF2FFFEE33FECD33CDCC27
:10049C0033CCC58233C5829BED9AEC99E5829840AA
:1004AC000CF582EE9BFEED9AFDEC99FC0FD5F0D687
:1004BC00E4CEFBE4CDFAE4CCF9A88222B800C1B9B1
:1004CC000059BA002DEC8BF084CFCECDFCE5F0CBEF
:1004DC00F97818EF2FFFEE33FEED33FDEC33FCEB28
:1004EC0033FB10D703994004EB99FB0FD8E5E4F9E3
:1004FC00FA227818EF2FFFEE33FEED33FDEC33FCD0
:10050C00C933C910D7059BE99A4007EC9BFCE99AC3
:10051C00F90FD8E0E4C9FAE4CCFB2275F010EF2F08
:10052C00FFEE33FEED33FDCC33CCC833C810D70708
:10053C009BEC9AE899400AED9BFDEC9AFCE899F843
:0E054C000FD5F0DAE4CDFBE4CCFAE4C8F922D6
:0E055A00C3E49FFFE49EFEE49DFDE49CFC22B2
:10056800E8600FECC313FCED13FDEE13FEEF13FF71
:03057800D8F12295
:0C057B00ECF0A3EDF0A3EEF0A3EFF022F3
:10058700A8828583F0D083D08212059E12059E1221
:10059700059E12059EE473E493A3C583C5F0C58346
:1005A700C8C582C8F0A3C583C5F0C583C8C582C8BE
:0105B7002221
:1005B800D083D082F8E4937012740193700DA3A3D2
:1005C80093F8740193F5828883E473740293B5F009
:0D05D800067403936860E9A3A3A3A380D871
:1005E500EF4E6012EF60010EEDBB010B89828A832D
:1005F500F0A3DFFCDEFA2289F05007F709DFFCA93A
:0C060500F022BBFEFCF309DFFCA9F02290
:00000001FF
