:10169C000A2048656C6C6F20776F726C6421005364
:1016AC007461747573203A202564200A0020554912
:1016BC0044203A20307825782030782578203078EE
:1016CC00257820307825782030782578200D0A0070
:0418C8004100870054
:100ABF00A2AF920EC2AF75C7AA75C755E4F591A242
:100ACF000E92AFF5B1F5B2F5B3F5B4F5ACF5AD7F68
:100ADF0006120CE4A2AF920EC2AF75C7AA75C75526
:100AEF00E4F591A20E92AF53B1BF53B2BF90000481
:100AFF0004F0A31205240001C2007F007E367D6E34
:100B0F007C01120BD3D299D209120DEF90001FE482
:100B1F00F0A374C8F0A3740BF0A374B8F07F007E39
:100B2F00247DF47C00120EEA1217117BFF7A1679DE
:100B3F009C12006E7BFF7A16799C12006E90001F3C
:100B4F00E4F0A374C8F0A37407F0A374D0F07F008F
:100B5F007E247DF47C00120EEA7B017A0079887F77
:100B6F00261214F9900087EFF07B017A0079881232
:100B7F00108A900087EFF07BFF7A1679AB90000315
:100B8F00F012006E900087E070AA7BFF7A1679B999
:100B9F00A3E0900003F0900089E0900004F0900033
:100BAF008AE0900005F090008BE0900006F0900036
:100BBF008CE0900007F090008DE0900008F012009C
:040BCF006E020B4364
:1017C800E4FDFCE4FBFAC3EB9FEE6480F8EA648076
:1017D8009850070BBB00010A80EC0DBD00010CBC42
:0517E80005E1BD10DE6B
:0117ED0022D9
:101613001218BD90001FE4F0A374C8F0A3E4F0A374
:101623007464F07F007E247DF47C00120EEA900047
:101633001AE0FF12189890001FE4F0A374C8F0A3F7
:10164300E4F0A37464F07F007E247DF47C00120E2A
:06165300EA90001AE0FF1E
:01165900226E
:0617EE00120368FD7F09F3
:1017F400900019EDF0C295EF25E0547EFF12161308
:0B180400900019E0FF121613D295228D
:10188300C295EF25E0547E4480FF121613E4FF1245
:041893001613D295C1
:01189700222E
:0A186800900018EDF0900017EFF06B
:10187200121883AE07900017E0FFA3E04EFD021797
:01188200F471
:0A183000900018EDF0900017EFF0A3
:10183A00121883AE07900017E0FFA3E0F45EFD02E2
:02184A0017F491
:0C18A5007F141218837D037F1402186862
:0718EB007D037F1402183099
:0718F2007D0F7F010217F4D6
:10171100C295D2971218F27D8D7F2A1217F47D3E61
:101721007F2B1217F47D1E7F2D1217F4E4FD7F2C01
:101731001217F47D407F151217F47D3D7F111217AA
:04174100F40218A5F1
:1005E10090000AF0A37401F0A37400F0A37444F026
:1005F100A37401F0A37400F0A37442F07A0079446B
:040601007B017F0CEE
:10060500900007EBF0A3EAF0A3E9F0900006EFF005
:100615009000117402F0E4A3F0A3F0EF24F460104D
:1006250024FE70169000127412F0A37410F0800A64
:100635009000127477F0A37430F0900012E04480BB
:10064500FD7F021217F47D807F041218307D807FB4
:100655000A121868E4FD7F011217F4E4900015F002
:10066500A3F090000AE0FF900015E0FCA3E0FDC3B5
:100675009FEC94005022900007E0FBA3E0FAA3E072
:10068500F98D828C831217EE900016E004F070D27B
:10069500900015E004F080CA900006E0FD7F01128D
:1006A50017F4900006E0B40C077D807F0D121868E2
:1006B5009000157407F0A374D0F07F04121883908E
:1006C5000014EFF0900016E024FFF0900015E034E0
:1006D500FFF0E07002A3E06011900014E0FF20E05D
:1006E50009900013E0FEEF5E60D07D807F0D12184B
:1006F50030900015E07002A3E070030207EC7F065E
:10070500121883EF541B60030207E6900011F0A353
:10071500E0FF900014E05F30E0069000117401F0F6
:10072500900006E0640C60030207EC7F0A12188350
:10073500900014EFF07F0C121883EF5407FD602929
:10074500900014E024FFFFE434FFFEEF7803C33389
:10075500CE33CED8F97C002DFFEC3EF990000EE0AB
:10076500FBA3E0FAA3E0C98016900014E075F00839
:10077500A4FF90000EE0FBA3E0FAA3E0F9E5F08FFB
:10078500F01203C9900014E0700204F0900014E028
:10079500D3941040037410F0E4900015F0A3F0908A
:1007A5000014E0FFC3900016E09F900015E0940050
:1007B50050357F0912188390000BE0FBA3E0FAA3E4
:1007C500E0F9900015E0FCA3E0F5828C83EF1203BD
:1007D500A7900016E004F070C6900015E004F080C4
:0C07E500BE9000117402F0900011E0FFC3
:0107F10022E5
:0E14F900900000EFF0A3EBF0A3EAF0A3E9F0FF
:101507007D077F0D1217F4900000E0FFA3E0FBA317
:10151700E0FAA3E0F9EF12039590000A7401F09046
:101527000001E0F9A3E0FAA3E090000BC9F0A3EAF9
:10153700F0A3E9F0A37401F0A37400F0A37404F01E
:10154700900001E0FBA3A3E0F97F0C120605EF7002
:0F1557000C900004E07004A3E0641060027F02B7
:011566002262
:0B108A00900000EBF0A3EAF0A3E9F0F7
:10109500E4A3F0FD7F0D1217F4900000E0FBA3E040
:1010A500FAA3E0F97493120395900000E0FBA3E026
:1010B500FAA3E0F990000174201203A7C002C00151
:1010C50090000A7402F0900000E0F9A3E0FAA3E0B2
:1010D50090000BC9F0A3EAF0A3E9F0A37401F0A313
:1010E5007400F0A37404F0D001D0027F0C12060541
:1010F500AC07EC7044FD900003E0FF900000E0FBBE
:10110500A3E0FAA3E0F98D82758300120368FEEF70
:101115006E900003F00DEDB404DC900000E0FBA33D
:10112500E0FAA3E0F9AF058F82758300120368FF2B
:0B113500900003E06F60027C02AF043A
:01114000228C
:06132B007B017A00794409
:0E13310090008FEBF0A3EAF0A3E9F0A3EDF03B
:10133F007D047F051218307D807F0A121868E490B3
:10134F000096F0900092E0FF900096E0FEC39F5051
:10135F001B90008FE0FBA3E0FAA3E0F98E82758368
:10136F00001217EE900096E004F080D77D037F0106
:10137F001217F490009674FFF07F051218839000F7
:10138F0096E014F0E06004EF30E2EE7F2212188353
:10139F00900093E0FBA3E0FAA3E0F9EF1203957F2F
:1013AF0021121883900093E0FBA3E0FAA3E0F990D9
:0613BF000001EF0203A78C
:0B13C500900056EBF0A3EAF0A3E9F063
:1013D00090005C7493F0A37470F0E4FF900056E00A
:1013E000FBA3E0FAA3E0F98F82758300120368FE85
:1013F000745E2FF582E43400F583EEF00FEFB40550
:10140000DB9000937401F0A37400F0A37463F07B8D
:10141000017A00795C7D0712133190000A7409F09B
:10142000A37401F0A37400F0A3745CF0A37401F042
:10143000A37400F0A3745AF07A00795C120601EFED
:10144000701290005AE07004A3E0641870069000D7
:0E1450005CE08001E4900059F0900059E0FF4C
:01145E00226B
:0B11410090002AEBF0A3EAF0A3E9F015
:10114C00900033EFF0A3EDF0E4FF90002AE0FBA356
:10115C00E0FAA3E0F98F82758300120368FE743500
:10116C002FF582E43400F583EEF00FEFB406DBE4E8
:10117C00FF90002DE0FBA3E0FAA3E0F98F827583CA
:10118C0000120368FE743B2FF582E43400F583EE05
:10119C00F00FEFB404DB90000A740CF0A37401F0B0
:1011AC00A37400F0A37433F0A37401F0A37400F0E3
:1011BC00A37431F07B017A0079337F0E120605900F
:1011CC000030EFF070097F08121883EF20E30690CF
:0A11DC0000307402F0900030E0FFD4
:0111E60022E6
:0B128B0090009DEBF0A3EAF0A3E9F057
:1012960090009DE0FBA3E0FAA3E0F97430120395F9
:1012A60090009DE0FBA3E0FAA3E0F9900001EF12A5
:1012B60003A7C003C002C00190009DE0FBA3E0FAB3
:1012C600A3E02402F9E43AFA900093EBF0A3EAF0E3
:1012D600A3E9F0D001D002D0037D021213319000B1
:1012E6000A7404F090009DE0F9A3E0FAA3E09000F0
:1012F6000BC9F0A3EAF0A3E9F0A37401F0A374000C
:10130600F0A374A0F090009DE0FBA3A3E0F97F0C8E
:10131600120605EF700C9000A0E07004A3E0649044
:0413260060027F02E0
:01132A0022A0
:0B11E70090003FEBF0A3EAF0A3E9F05A
:1011F20090004474A0F0A3EFF09000937401F0A368
:101202007400F0A37446F07D0212132B74041205CD
:10121200E1EF7016900042E07004A3E06404700AEB
:10122200900044E0540F640A60027F02EF7059FE9E
:1012320090003FE0FBA3E0FAA3E0F98E8275830001
:10124200120368FD74442EF582E43400F583EDF058
:101252000EEEB410DB9000937401F0A37400F0A3BF
:101262007454F07D1012132B74121205E1EF7016F4
:10127200900042E07004A3E06404700A900044E02D
:08128200540F640A60027F02B0
:01128A002241
:1015C9009000997450F0E4A3F07B0190009304F02B
:1015D900A37400F0A3749BF07A0079997D02121329
:1015E9003190000A7404F0A37401F0A37400F0A30D
:1015F9007499F0A37401F0A37400F0A37497F07BBD
:0A160900017A0079997F0C020605B2
:100DEF00A2AF920EC2AF75C7AA75C755E4F591A20F
:100DFF000E92AF53B3DF53B4DFA2AF920EC2AF75F3
:100E0F00C7AA75C755F591A20E92AF53B3FE53B44F
:100E1F00FEA2AF920EC2AF75C7AA75C755F591A2C4
:100E2F000E92AF53B1FE53B2FEA2AF920EC2AF7588
:100E3F00C7AA75C755F591A20E92AF53B1FD53B224
:100E4F00FD43F408A2AF920EC2AF75C7AA75C7557E
:100E5F00F591A20E92AF53F37FA2AF920EC2AF7570
:100E6F00C7AA75C755F591A20E92AF53F3DFA2AF84
:100E7F00920EC2AF75C7AA75C755F591A20E92AF64
:100E8F0053F3F7A2AF920EC2AF75C7AA75C755F548
:100E9F0091A20E92AF53F3FBA2AF920EC2AF75C7E2
:100EAF00AA75C755F591A20E92AF43F310A2AF9258
:100EBF000EC2AF75C7AA75C755F591A20E92AF5363
:100ECF00F3FCA2AF920EC2AF75C7AA75C755F591C5
:0B0EDF00A20E92AF43F34053F47F22B9
:0B18BD008FF5E5F430E7FB53F47F22C9
:0C1898008FF5E5F430E7FBAFF553F47F6B
:0118A4002221
:0418E3008F828E83DF
:0318E700E493FF88
:0118EA0022DB
:0B18B100EF448075C7AA75C755F59F6E
:0118BC002209
:0918D100300C05438702000022DF
:0918DA00300D05438701000022D6
:060EEA0090001B12051828
:100EF000538EF75389F04389017B407A42790F780A
:100F00000090001BE0FCA3E0FDA3E0FEA3E0FF12C5
:100F10000473A804A905AA06AB07900021E0FEA36C
:100F2000E0FFE4FCFD1203E8E47B0CFAF9F812049C
:100F300073C374FF9FFF74FF9EE49DE49C900023A5
:100F4000EFF07B407A42790F780090001BE0FCA321
:100F5000E0FDA3E0FEA3E0FF120473A804A905AA24
:100F600006AB07900021E0FEA3E0FFE4FCFD1203C6
:100F7000E8E47B0CFAF9F8120473C374FF9FFF7462
:100F8000FF9EFEE49DFDE49CFC78081205059000A0
:100F90001FE07002A3E06021900023E0F58A8F8CAF
:100FA000D28C308DFDC28DC28C900020E024FFF0E9
:090FB00090001FE034FFF080D531
:010FB9002215
:060FBA0090007E120518F4
:100FC000538EEF53890F4389107B407A42790F7813
:100FD0000090007EE0FCA3E0FDA3E0FEA3E0FF1292
:100FE0000473A804A905AA06AB07900084E0FEA339
:100FF000E0FFE4FCFD1203E8E47B0CFAF9F81204CC
:1010000073C374FF9FFF74FF9EE49DE49C90008671
:10101000EFF07B407A42790F780090007EE0FCA3ED
:10102000E0FDA3E0FEA3E0FF120473A804A905AA53
:1010300006AB07900084E0FEA3E0FFE4FCFD120392
:10104000E8E47B0CFAF9F8120473C374FF9FFF7491
:10105000FF9EFEE49DFDE49CFC78081205059000CF
:1010600082E07002A3E06021900086E0F58B8F8D16
:10107000D28E308FFDC28FC28E900083E024FFF0AD
:09108000900082E034FFF080D5FD
:011089002244
:060970009000651205185D
:10097600E4F591900069E0FEA3E08EF012055509BA
:10098600A9000109AE000409B6001009BE0020093D
:10099600C6004009CE008009D6010009DE0200002B
:1009A6000009E453C98F803653C98F43C910802E7E
:1009B60053C98F43C920802653C98F43C930801E2F
:1009C60053C98F43C940801653C98F43C950800EFF
:1009D60053C98F43C960800653C98F43C970C2C8C3
:1009E60043C98043C9047B407A42790F780090005E
:1009F60065E0FCA3E0FDA3E0FEA3E0FF1204739014
:100A0600006DE0F8A3E0F9A3E0FAA3E0FB1203E827
:100A1600C006C007900069E0FEA3E0FBAA06E4F961
:100A2600F8D007D006120473C3E49FFFE49E740156
:100A36009DE49C900071EFF07B407A42790F78003C
:100A4600900065E0FCA3E0FDA3E0FEA3E0FF120436
:100A56007390006DE0F8A3E0F9A3E0FAA3E0FB12BF
:100A660003E8C006C007900069E0FEA3E0FBAA0603
:100A7600E4F9F8D007D006120473C3E49FFFE49E9E
:100A8600FE74019DFDE49CFC780812050590006B40
:100A9600E07002A3E06021900071E0F5CC8FCDD22A
:100AA600CA30CFFDC2CFC2CA90006CE024FFF090DE
:080AB600006BE034FFF080D575
:010ABE002215
:0607F200900072120518D0
:1007F800E4F591900076E024FE602124FE60252433
:10080800FC602924F8602D24F0603124E060352450
:10081800C06039247F703B53C4F8803653C4F84312
:10082800C401802E53C4F843C402802653C4F8433D
:10083800C403801E53C4F843C404801653C4F84349
:10084800C405800E53C4F843C406800653C4F84355
:10085800C4077B407A42790F7800900072E0FCA3CD
:10086800E0FDA3E0FEA3E0FF120473900079E0F836
:10087800A3E0F9A3E0FAA3E0FB1203E8C0079000A5
:1008880076E0FBE4FAF9F8D007120473C3E49FFF9B
:10089800E49E74019DE49C90007DEFF07B407A42D9
:1008A800790F7800900072E0FCA3E0FDA3E0FEA3BE
:1008B800E0FF120473900079E0F8A3E0F9A3E0FAEE
:1008C800A3E0FB1203E8C007900076E0FBE4FAF926
:1008D800F8D007120473C3E49FFFE49EFE74019DE1
:1008E800FDE49CFC7808120505900077E07002A3EF
:1008F800E06074A2AF920EC2AF75C7AA75C755E47F
:10090800F591A20E92AF53C4EF90007DE0F5C58F2C
:10091800C6A2AF920EC2AF75C7AA75C755E4F591C6
:10092800A20E92AF43C408E5C430E4FBA2AF920E16
:10093800C2AF75C7AA75C755E4F591A20E92AF5319
:10094800C4EFA2AF920EC2AF75C7AA75C755F5918D
:10095800A20E92AF53C4F7900078E024FFF0900005
:0709680077E034FFF080820C
:01096F002265
:10184C00EF14600D14600D14600E2403700DD2A9FA
:0C185C0022D2AB22439B8022439C02223C
:100CE400A2AF920EC2AF75C7AA75C755439F01A2A2
:100CF4000E92AFE4F591EF24F9600C14600924021C
:100D0400700875A638800375A630E4F5A775AF049E
:100D1400A2AF920EC2AF75C7AA75C75543A401A26C
:100D24000E92AF85AE0805A6A2AF920EC2AF75C7EC
:100D3400AA75C75543A401A20E92AF85AE09EF244C
:100D4400F86003020DC9E50825E0FFE50954012F09
:100D5400FF54C0F50BEF543FF50A74F22FFF75AF43
:100D64000C75A601E4F5A7A2AF920EC2AFA2AF9292
:100D74000EC2AF75C7AA75C75543AA40A20E92AF5B
:100D840075C7AA75C75543A401A20E92AFE5AE6418
:100D94004B600BE5AE64526005E5AEB45322E50A40
:100DA400C3940F5017E50B6440600BE50B6480603F
:100DB40005E50BB4C00A74F22FFF800474FC2FFF06
:100DC400EFC313F50875C7AA75C75585088475C799
:100DD400AA75C755850985A2AF920EC2AF75C7AA79
:0A0DE40075C755539FFEA20E92AF93
:010DEE0022E2
:10165A00EF24FD6011146012240270357F02121704
:10166A00457F020215677F0380117F021217457FAB
:10167A00021215677F041217457F04121567A2AF7D
:10168A00920EC2AF75C7AA75C7555397DFA20E92BD
:02169A00AF227D
:10174500EF24FC601E24027028A2AF920EC2AF7572
:10175500C7AA75C755439720A20E92AFE59620E517
:101765001080F975C7AA75C7554397C0E59630E34C
:02177500FB2255
:10177700E4F591EF24FC60182402701DA2AF920ECD
:10178700C2AF75C7AA75C7555397DFA20E92AF228E
:0A17970075C7AA75C75553973F2286
:10156700E4F591A2AF920EC2AFEF24FD60181460AC
:101577003924027048A2AF920EC2AF75C7AA75C7C9
:10158700555396FB800FA2AF920EC2AF75C7AA75CF
:10159700C755439604A20E92AFA2AF920EC2AF7583
:1015A700C7AA75C7555396FD800FA2AF920EC2AF5B
:1015B70075C7AA75C755439608A20E92AFA20E9299
:0215C700AF2251
:0418CC00C109C10A83
:100BD300900000120518900004E014605B14607923
:100BE30024026003020CE3759850438920438780F5
:100BF300438E10A2AF920EC2AF75C7AA75C755E454
:100C0300F591A20E92AF53C4DF7B10FAF9F890006E
:100C130000E0FCA3E0FDA3E0FEA3E0FF1204739059
:100C23000005E0F8A3E0F9A3E0FAA3E0FB120473E4
:100C3300EFF404F58DD28E2275985043878053C408
:100C4300F8A2AF920EC2AF75C7AA75C755E4F59166
:100C5300A20E92AF43C420800775F85075C480E498
:100C63007B10FAF9F8900000E0FCA3E0FDA3E0FE9E
:100C7300A3E0FF120473900005E0F8A3E0F9A3E0FA
:100C8300FAA3E0FB120473C3E49FFFE49EFE740126
:100C93009DFDE49CFC78081205058FC6E47B10FAE1
:100CA300F9F8900000E0FCA3E0FDA3E0FEA3E0FF61
:100CB300120473900005E0F8A3E0F9A3E0FAA3E0BF
:100CC300FB120473C3E49FFFE48FC5A2AF920EC26D
:100CD300AF75C7AA75C755F591A20E92AF43C40865
:010CE30022EE
:10180F00C091E4F591EF14600C047012C2998D9998
:10181F0020990B80FBC2F9AF058F9A20F9FDD0916B
:01182F002296
:1016DC00A2AF920EC2AF75C7AA75C755E4F591A219
:1016EC000E92AF53B1BF53B2BF900004F0A31205DA
:1016FC00240001C2007F007E367D6E7C01120BD36C
:05170C00D299D2092270
:0300000002145F88
:10145F00787FE4F6D8FD9000007FFF7E08E4F0A3CC
:0A146F00DFFCDEFA7581210214B4DF
:10147900020ABFE493A3F8E493A34003F68001F2C0
:1014890008DFF48029E493A3F85407240CC8C33374
:10149900C4540F4420C8834004F456800146F6DF43
:1014A900E4800B01020408102040809018C8E47EF3
:1014B900019360BCA3FF543F30E509541FFEE49338
:1014C900A360010ECF54C025E060A840B8E493A3FF
:1014D900FAE493A3F8E493A3C8C582C8CAC583CA2A
:1014E900F0A3C8C582C8CAC583CADFE9DEE780BEE2
:0118D0000017
:10036800BB010CE58229F582E5833AF583E022504A
:1003780006E92582F8E622BBFE06E92582F8E22294
:0D038800E58229F582E5833AF583E49322AE
:10039500BB010689828A83F0225002F722BBFE0147
:0203A500F32241
:1003A700F8BB010DE58229F582E5833AF583E8F08C
:1003B700225006E92582C8F622BBFE05E92582C838
:0203C700F22220
:1003C900BB010A89828A83F0E5F0A3F0225006F77F
:0F03D90009A7F01922BBFE06F3E5F009F319227C
:1003E800E88FF0A4CC8BF0A42CFCE98EF0A42CFCB4
:1003F8008AF0EDA42CFCEA8EF0A4CDA8F08BF0A432
:100408002DCC3825F0FDE98FF0A42CCD35F0FCEB90
:100418008EF0A4FEA9F0EB8FF0A4CFC5F02ECD3955
:0F042800FEE43CFCEAA42DCE35F0FDE43CFC22C2
:1004370075F008758200EF2FFFEE33FECD33CDCC7C
:1004470033CCC58233C5829BED9AEC99E5829840FF
:100457000CF582EE9BFEED9AFDEC99FC0FD5F0D6DC
:10046700E4CEFBE4CDFAE4CCF9A88222B800C1B906
:100477000059BA002DEC8BF084CFCECDFCE5F0CB44
:10048700F97818EF2FFFEE33FEED33FDEC33FCEB7D
:1004970033FB10D703994004EB99FB0FD8E5E4F938
:1004A700FA227818EF2FFFEE33FEED33FDEC33FC25
:1004B700C933C910D7059BE99A4007EC9BFCE99A19
:1004C700F90FD8E0E4C9FAE4CCFB2275F010EF2F5E
:1004D700FFEE33FEED33FDCC33CCC833C810D7075E
:1004E7009BEC9AE899400AED9BFDEC9AFCE899F899
:0E04F7000FD5F0DAE4CDFBE4CCFAE4C8F9222C
:10050500E8600FECC313FCED13FDEE13FEEF13FFD4
:03051500D8F122F8
:0C051800ECF0A3EDF0A3EEF0A3EFF02256
:10052400A8828583F0D083D08212053B12053B124A
:10053400053B12053BE473E493A3C583C5F0C5836F
:10054400C8C582C8F0A3C583C5F0C583C8C582C821
:010554002284
:10055500D083D082F8E4937012740193700DA3A335
:1005650093F8740193F5828883E473740293B5F06C
:0D057500067403936860E9A3A3A3A380D8D4
:10000300E5082403F582E43400F583E00508229033
:100013000000300703900003E475F00112059B0212
:1000230005822000E97F2ED2008018EF540F249020
:10003300D43440D4FF30040BEF24BFB41A00500370
:100043002461FFE50960021509050CE50C70020542
:100053000B30070E900000E475F00112059BEF02D0
:1000630003950217A17403D2078003E4C207F508BE
:100073009000001205B2E4F509F50BF50CE50960F3
:10008300077F2012004680F5750AFFC201C200C235
:1000930002C203C205C206C208120012FF700D306D
:1000A30007057F00120057AF0CAE0B22B4255FC2C9
:1000B300D5C204120012FF24D0B40A00501A75F0FE
:1000C3000A780930D50508B6FF0106C6A426F6202E
:1000D300D5047002D20380D924CFB41A00EF5004A0
:1000E300C2E5D204020258D20180C6D20080C0D237
:1000F3000280BCD2D580BAD20580B47F20120046DC
:100103002002077401B5090040F1120003FF120039
:1001130046020080D208D2068095120003FB12002B
:1001230003FA120003F94A4B700679297A037BFF1D
:1001330020022EE509602A7E008E82758300120359
:100143006860060EEE650A70F0C2D5EBC0E0EAC047
:10015300E0E9C0E0EE12029FD0E0F9D0E0FAD0E08F
:10016300FB120582FF60AAEBC0E0EAC0E0E9C0E051
:10017300120046D0E02401F9D0E03400FAD0E0FBCD
:10018300E50A0460DCD50AD980877BFF7A02799B74
:10019300D202809C791080027908C206C2088008C6
:1001A300D2D5790A8004790AC2D5E50A047002F52A
:1001B3000AE4FAFDFEFF120003FC7B082001131280
:1001C3000003FD7B1030000A120003FE120003FF40
:1001D3007B20EC3382D592D55013C3E43000069FC5
:1001E300FFE49EFEE42001039DFDE49CFCE4CBF8C8
:1001F300C201EC700CCFCECDCCE824F8F870F380BC
:1002030017C3EF33FFEE33FEED33FDEC33FCEB337B
:10021300FB994002FB0FD8E9EB300105F8D0E0C4AD
:1002230048B201C0E00AEC4D4E4F78207B0070C20B
:10023300EAB50A0040BCC0E01202A1D0F0D0E02031
:100243000104C4C0E0C4B201C0F012002FD0F0D545
:10025300F0EB0200801205BB011D5301975800EE1D
:100263004C00EA42019B4F01A34401A3490103430C
:0802730001A955018D46018D22
:10027B0045018D4703495000F22D00F62E01192B35
:10028B0000FA2301172003322A00B24800000111A3
:10029B003F3F3F00790AA2D5200314300509B9105E
:1002AB00020404B9080104A2D5200602500104205F
:1002BB0002689202B509005034C0E07F2030031968
:1002CB007F30A20272067205500F1202F8C202C2F0
:1002DB0006C205C2087F30800F300503E9C0E0126B
:1002EB000046300503D0E0F9D0E0B509CC30051756
:1002FB007F30B9100C1200467F583004077F78808E
:10030B0003B908031200463002057F2D0200467F19
:10031B00202008F87F2B2006F322920280CF286E34
:10032B00756C6C2900D2011200033001F8C2017800
:10033B000930D50108F60200B22D5043495812007E
:10034B00032403B405004001E490034493120037E7
:0D035B00743A120037D203750904020197AD
:10058200BB010689828A83E0225002E722BBFE0277
:09059200E32289828A83E49322AA
:10059B00F8E0FBA3A3E0F925F0F0E58215827002E9
:0705AB001583E0FA38F0228D
:0905B200EBF0A3EAF0A3E9F0224A
:1005BB00D083D082F8E4937012740193700DA3A3CF
:1005CB0093F8740193F5828883E4737402936860E3
:0605DB00EFA3A3A380DFE3
:1017A100EFB40A07740D1217AC740A309811A89996
:1017B100B8130CC2983098FDA899C298B811F630A8
:0717C10099FDC299F5992280
:00000001FF
