:0300000002138E5A
:10138E00787FE4F6D8FD9000007FFF7E08E4F0A39E
:0A139E00DFFCDEFA75817D020EA669
:1012F4000A2048656C6C6F20776F726C6421002043
:10130400554944203A2030782578203078257820B3
:101314003078257820307825782030782578200D8D
:021324000A00BD
:100EA600A2AF9200C2AF75C7AA75C755E4F591A265
:100EB6000092AFF5B1F5B2F5B3F5B4F5ACF5AD7F8B
:100EC60006120000A2AF9200C2AF75C7AA75C75539
:100ED600E4F591A20092AF53B1BF53B2BF750001C2
:100EE600F5007500C2750001F500FF7E367D6E7C4B
:100EF60001120000D299D2007BFF7A1279F412080F
:100F060062120CDC7500007500C875000B7500B820
:100F16007F007E247DF47C001200001212C07BFF4D
:100F26007A1279F41208627B007A0079647F2612BD
:100F360012078F637B007A0079641210C98F63E50C
:100F46006370DB7BFF7A13790385642585652685C7
:100F5600662785672885682985692A12086280BE02
:10134D00E4FDFCE4FBFAC3EB9FEE6480F8EA6480F5
:10135D009850070BBB00010A80EC0DBD00010CBCC1
:05136D0005E1BD10DEEA
:011372002258
:100CDC00A2AF9200C2AF75C7AA75C755E4F591A231
:100CEC000092AF53B3DF53B4DFA2AF9200C2AF7523
:100CFC00C7AA75C755F591A20092AF53B3FE53B472
:100D0C00FEA2AF9200C2AF75C7AA75C755F591A2E6
:100D1C000092AF53B1FE53B2FEA2AF9200C2AF75B8
:100D2C00C7AA75C755F591A20092AF53B1FD53B246
:100D3C00FD43F408A2AF9200C2AF75C7AA75C755A0
:100D4C00F591A20092AF53F37FA2AF9200C2AF75A0
:100D5C00C7AA75C755F591A20092AF53F3DFA2AFA6
:100D6C009200C2AF75C7AA75C755F591A20092AF94
:100D7C0053F3F7A2AF9200C2AF75C7AA75C755F56A
:100D8C0091A20092AF43F304A2AF9200C2AF75C719
:100D9C00AA75C755F591A20092AF43F310A2AF927A
:100DAC0000C2AF75C7AA75C755F591A20092AF5393
:100DBC00F3FCA2AF9200C2AF75C7AA75C755F591E7
:0B0DCC00A20092AF43F34053F47F22DB
:0B13F7008FF5E5F430E7FB53F47F2294
:0C13DE008FF5E5F430E7FBAFF553F47F2A
:0113EA0022E0
:10124F001213F77500007500C87500007500647FF4
:10125F00007E247DF47C00120000AF3C1213DE757B
:10126F0000007500C87500007500647F007E247D46
:08127F00F47C00120000AF3CFA
:011287002244
:06137300120DD7FD7F09F9
:101379008D3BC295EF25E0547EFF12124FAF3B1211
:05138900124FD2952275
:1013A800C295EF25E0547E4480FF12124FE4FF12ED
:0413B800124FD29569
:0113BC00220E
:0413CE008F398D3A8C
:0C13D2001213A8E53A4FFDAF3902137961
:0413BD008F398D3A9D
:0D13C1001213A8E53AF45FFDAF390213796D
:0C13EB007F141213A87D037F140213CEA0
:071402007D037F140213BDFE
:071409007D0F7F0102137942
:1012C000C295D2971214097D8D7F2A1213797D3E23
:1012D0007F2B1213797D1E7F2D121379E4FD7F2C55
:1012E0001213797D407F151213797D3D7F11121302
:0412F000790213EB81
:100B5C00752D00752E00752F42753000753100759E
:0A0B6C0032407A0079427B007F0CD2
:080B76008F288B298A2A892BA4
:100B7E00753302E4F534F535E52824F4600C24FED3
:100B8E00700E7534127535108006753477753530E4
:100B9E00E5344480FD7F021213797D807F041213A9
:100BAE00BD7D807F0A1213CEE4FD7F01121379E41E
:100BBE00F537F538C3E538952CE53794005019AB69
:100BCE0029AA2AA92B8538828537831213730538F3
:100BDE00E53870E0053780DCAD287F01121379E52A
:100BEE0028B40C077D807F0D1213CE75370775382C
:100BFE00D07F041213A88F36E538153870021537DA
:100C0E00E53845376009E53620E004553560E27D6C
:100C1E00807F0D1213BDE53845377003020CD97F66
:100C2E00061213A8EF541B6003020CD6F533E536FB
:100C3E00553430E003753301E528640C6003020C73
:100C4E00D97F0A1213A88F367F0C1213A8EF540700
:100C5E00FD6021E53624FFFFE434FFFEEF7803C389
:100C6E0033CE33CED8F97C002DFFEC3EAB30AA311B
:100C7E00A932800FE53675F008A4FFAB30AA31A972
:100C8E0032E5F08FF0120E38E5367003753601E559
:100C9E0036D394104003753610E4F537F538C3E5B6
:100CAE00389536E537940050227F091213A8AB2DE4
:100CBE00AA2EA92F853882853783EF120E16053896
:0D0CCE00E53870DA053780D6753302AF3394
:010CDB0022F6
:081207008F228B238A24892524
:10120F007D077F0D121379AB23AA24A925E522129E
:10121F000E04752C0185232D85242E85252F7530E1
:10122F0000753100753226AB23AA24A9257F0C1235
:0F123F000B76EF7008E5276410452660027F02EA
:01124E00227D
:0610C9008B228A2389241A
:1010CF00E4F525FD7F0D121379AB22AA23A9247411
:1010DF0093120E04AB22AA23A924900001742012AC
:1010EF000E16752C0285222D85232E85242F753003
:1010FF00007531007532267F0C120B76EF7029FECA
:10110F00AB22AA23A9248E82758300120DD76225E4
:10111F000EBE04ECAB22AA23A9248E827583001283
:08112F000DD7652560027F0267
:011137002295
:061056007B007A007942E4
:08105C008B6B8A6C896D8D6EAF
:101064007D047F051213BD7D807F0A1213CEE4F543
:1010740072E572C3956E5013AB6BAA6CA96D857241
:1010840082758300121373057280E67D037F01125B
:1010940013797572FF7F051213A81572E572600447
:1010A400EF30E2F17F221213A8AB6FAA70A971EF9F
:1010B400120E047F211213A8AB6FAA70A9719000BD
:0510C40001EF020E1611
:061138008B548A55895614
:10113E00755A93755B70E4FFAB54AA55A9568F820E
:10114E00758300120DD7FE745C2FF8A6060FBF052F
:10115E00E7756F007570007571617B007A00795AC2
:10116E007D0712105C752C09752D00752E00752FDC
:10117E005A7530007531007532587A00795A120B53
:10118E0072EF700DE559641845587005855A5780F1
:06119E0003E4F557AF5712
:0111A4002228
:060FE1008B0A8A0B890C4B
:100FE7008F138D14E4FFAB0AAA0BA90C8F827583AC
:100FF70000120DD7FE74152FF8A6060FBF06E7E4FB
:10100700FFAB0DAA0EA90F8F82758300120DD7FEB5
:10101700741B2FF8A6060FBF04E7752C0C752D005F
:10102700752E00752F137530007531007532117BE1
:10103700007A0079137F0E120B768F10E510700976
:0E1047007F081213A8EF20E303751002AF100C
:011055002278
:0611A5008B798A7A897B38
:1011AB007430120E04AB79AA7AA97B900001EF126E
:1011BB000E16C002C001E57B2402F9E4357A85796D
:1011CB006FF5708971D001D0027D0212105C752C05
:1011DB000485792D857A2E857B2F7530007531002E
:1011EB0075327CAB79AA7AA97B7F0C120B76EF70E8
:0B11FB0008E57D6490457C60027F02E7
:0112060022C5
:060F66008B3D8A3E893F2D
:100F6C007542A08F43756F007570007571447D02DA
:100F7C00121056752C04120B5CEF7010E5416404D2
:100F8C0045407008E542540F640A60027F02EF701E
:100F9C0043FEAB3DAA3EA93F8E82758300120DD74E
:100FAC00FD74422EF8A6050EBE10E7756F00757025
:100FBC00007571527D10121056752C12120B5CEFCD
:100FCC007010E541640445407008E542540F640A12
:040FDC0060027F022E
:010FE00022EE
:10128800757550E4F576F56F757000757177FB7AB2
:101298000079757D0212105C752C04752D00752E71
:1012A80000752F757530007531007532737B007AC3
:0812B8000079757F0C020B7632
:100DD700BB010CE58229F582E5833AF583E02250D1
:100DE70006E92582F8E622BBFE06E92582F8E2221B
:0D0DF700E58229F582E5833AF583E4932235
:100E0400BB010689828A83F0225002F722BBFE01CD
:020E1400F322C7
:100E1600F8BB010DE58229F582E5833AF583E8F012
:100E2600225006E92582C8F622BBFE05E92582C8BE
:020E3600F222A6
:100E3800BB010A89828A83F0E5F0A3F0225006F705
:0F0E480009A7F01922BBFE06F3E5F009F3192202
:10080000E5312425F8E605312278223007027825E3
:10081000E475F001120E70020E572000EB7F2ED20D
:10082000008018EF540F2490D43440D4FF30040BD0
:10083000EF24BFB41A0050032461FFE532600215B3
:10084000320535E5357002053430070D7822E47540
:10085000F001120E70EF020E040213267403D20789
:100860008003E4C207F5318B228A238924E4F53220
:10087000F534F535E53260077F2012083B80F575C9
:1008800033FFC201C200C202C203C205C206C208CF
:10089000120809FF700D3007057F0012084CAF35B4
:1008A000AE3422B4255FC2D5C204120809FF24D099
:1008B000B40A00501A75F00A783230D50508B6FF30
:1008C0000106C6A426F620D5047002D20380D924DE
:1008D000CFB41A00EF5004C2E5D204020A4CD20190
:1008E00080C6D20080C0D20280BCD2D580BAD205E8
:1008F00080B47F2012083B2002077401B53200400B
:10090000F1120800FF12083B020874D208D20680D8
:1009100095120800FB120800FA120800F94A4B7001
:1009200006791D7A0B7BFF20022EE532602A7E00BD
:100930008E82758300120DD760060EEE653370F05F
:10094000C2D5EBC0E0EAC0E0E9C0E0EE120A93D005
:10095000E0F9D0E0FAD0E0FB120E57FF60AAEBC03E
:10096000E0EAC0E0E9C0E012083BD0E02401F9D0A1
:10097000E03400FAD0E0FBE5330460DCD533D98005
:10098000877BFF7A0A798FD202809C791080027966
:1009900008C206C2088008D2D5790A8004790AC242
:1009A000D5E533047002F533E4FAFDFEFF120800CA
:1009B000FC7B08200113120800FD7B1030000A1296
:1009C0000800FE120800FF7B20EC3382D592D55040
:1009D00013C3E43000069FFFE49EFEE42001039D64
:1009E000FDE49CFCE4CBF8C201EC700CCFCECDCC86
:1009F000E824F8F870F38017C3EF33FFEE33FEED11
:100A000033FDEC33FCEB33FB994002FB0FD8E9EBF1
:100A1000300105F8D0E0C448B201C0E00AEC4D4E08
:100A20004F78207B0070C2EAB5330040BCC0E012B2
:100A30000A95D0F0D0E0200104C4C0E0C4B201C0E7
:100A4000F0120824D0F0D5F0EB020874120E8009E1
:100A50001153098B5808E24C08DE42098F4F099761
:0F0A60004409974908F743099D550981460981C3
:100A6F00450981470B3D5008E62D08EA2E090D2B4D
:100A7F0008EE23090B200B262A08A64800000905BB
:100A8F003F3F3F00790AA2D5200314300509B91062
:100A9F00020404B9080104A2D52006025001042063
:100AAF0002689202B532005034C0E07F2030031943
:100ABF007F30A20272067205500F120AECC202C2F8
:100ACF0006C205C2087F30800F300503E9C0E0126F
:100ADF00083B300503D0E0F9D0E0B532CC30051734
:100AEF007F30B9100C12083B7F583004077F788095
:100AFF0003B9080312083B3002057F2D02083B7F24
:100B0F00202008F87F2B2006F322920280CF286E38
:100B1F00756C6C2900D2011208003001F8C20178FF
:100B2F003230D50108F60208A62D50434958120855
:100B3F00002403B405004001E4900B389312082CF5
:0D0B4F00743A12082CD20375320402098B8F
:100E5700BB010689828A83E0225002E722BBFE0299
:090E6700E32289828A83E49322CC
:100E7000FAE6FB0808E6F925F0F618E6CA3AF62283
:100E8000D083D082F8E4937012740193700DA3A301
:100E900093F8740193F5828883E473740293686015
:060EA000EFA3A3A380DF15
:10132600EFB40A07740D121331740A309811A89994
:10133600B8130CC2983098FDA899C298B811F63027
:0713460099FDC299F59922FF
:00000001FF
