:102A1500257800554E415554484F52495A45442052
:082A250043415244200D0A0058
:062A570041014D00C10920
:030023000229416E
:10294100C0E0C083C082C09130980AD20D9001F4DA
:10295100E599F0C298309905200C02C299D091D026
:0629610082D083D0E032B9
:0B27E200900000EBF0A3EAF0A3E9F088
:1027ED00E4FFFE900003E0FBA3E0FAA3E0F98F8283
:1027FD008E83120590FD900000E0FBA3E0FAA3E0AC
:10280D00F98F828E83ED1205CF0FBF00010EEF649D
:04281D00054E70CF25
:012821002294
:10084000A2AF9211C2AF75C7AA75C755E4F591A2C0
:100850001192AFF5B1F5B2F5B3F5B4F5ACF5ADC2A3
:1008600084C2857F06121B6AA2AF9211C2AF75C700
:10087000AA75C755E4F591A21192AF53B1BF53B217
:10088000BF90000404F0A31207700001C2007F00B3
:100890007E367D6E7C01121A59D2ACD2AFD299D27B
:1008A0000C121C75D292C294C2937FB87E0B122890
:1008B000CA1228227B017A017955900005E4F0A341
:1008C0007405F07FE07E381226457B017A01795A63
:1008D000900005E4F0A37405F07FF07E3812264501
:1008E000300D1C900170E004F09001F4E0FF9001E5
:1008F00070E02412F582E43401F583EFF0C20D902C
:100900000170E0C394145003020B27E4A3F090019C
:1009100071E0FFD394144003020B2774122FF58269
:10092000E43401F583E064436003020B1E9001711F
:10093000E02413F582E43401F583E0644F600302A0
:100940000B1E74142FF582E43401F583E0645260C9
:1009500003020B1E900171E02415F582E43401F5C9
:1009600083E064466003020B1E74162FF582E434A4
:1009700001F583E064236003020B1E900171E02403
:1009800017F582E43401F583E0FE64317052900182
:1009900071E0FD2418F582E43401F583E090015FF5
:1009A000F074192DF582E43401F583E0900160F0D4
:1009B000900171E0241AF582E43401F583E090019E
:1009C00061F0741B2DF582E43401F583E09001623F
:1009D000F0741C2FF582E43401F583E0900163F09C
:1009E000EE64327055900171E0FF2418F582E43412
:1009F00001F583E090016BF074192FF582E4340166
:100A0000F583E090016CF0900171E0241AF582E426
:100A10003401F583E090016DF0741B2FF582E4340E
:100A200001F583E090016EF0900171E0241CF582E5
:100A3000E43401F583E090016FF0900171E0241738
:100A4000F582E43401F583E0B431167B017A017953
:100A50005F900005E4F0A37405F07FE07E38121F7C
:100A600010900171E02417F582E43401F583E0B4BD
:100A700032167B017A01796B900005E4F0A37405CE
:100A8000F07FF07E38121F10E4900170F0FE7F328C
:100A9000FD7B017A0179121208147B017A017955E4
:100AA000900005E4F0A37405F07FE07E381226453F
:100AB0007B017A01795A900005E4F0A37405F07F78
:100AC000F07E38122645E4900172F07BFF7A2A7995
:100AD00015900170E02455F582E43401F583E0902F
:100AE0000003F0120D8C900172E004F0E0D3940545
:100AF00040D9E4900172F07BFF7A2A791590017059
:100B0000E0245AF582E43401F583E0900003F0120A
:100B10000D8C900172E004F0E0D3940540D990016F
:100B200071E004F002090E7B017A0179647F2612DC
:100B300025D790014DEFF07B017A017964121FCE29
:100B400090014DEFF012243DAC06AD07E41201AA6E
:100B50009001451207641224D2AC06AD07E41201DD
:100B6000AA900149120764900145E0FCA3E0FDA3AF
:100B7000E0FEA3E0FF7B997A997919783812002674
:100B8000900145120764900149E0FCA3E0FDA3E059
:100B9000FEA3E0FF7BCD7ACC794C783A1200269008
:100BA000014912076490014DE060030208E09001E2
:100BB00055E0FF900164E0FEB50724900156E0FF88
:100BC000900165E0B50718900157E0FF900166E0DD
:100BD000B5070C900158E0FF900167E06F60359019
:100BE000015AE06E60030208E0A3E0FF900165E0B7
:100BF0006F60030208E090015CE0FF900166E06F27
:100C000060030208E090015DE0FF900167E06F6023
:100C1000030208E02009179000037401F0A3740197
:100C2000F0A37464F07B017A01794E1227E29001FF
:100C30004EE0FF900164E06F6003020D1590014FDC
:100C4000E0FF900165E06F6003020D15900150E038
:100C5000FF900166E06F6003020D15900151E0FF07
:100C6000900167E06F6003020D157FB87E1E7D85E1
:100C70007C3D900145E0F8A3E0F9A3E0FAA3E0FB96
:100C800012012C501D7F7B7E147DAE7C3D90014572
:100C9000E0F8A3E0F9A3E0FAA3E0FB12012C600264
:100CA00050667F527EB87DBE7C3F900149E0F8A33C
:100CB000E0F9A3E0FAA3E0FB12012C501F7433FF0C
:100CC000FEFD7C40900149E0F8A3E0F9A3E0FAA31F
:100CD000E0FB12012C600540030208E020090AD263
:100CE00093C294C292D284D285300917C293D29211
:100CF0001228C61228C21228C2C294C293D292C22B
:100D000084C285B2090208E0D294C292C293C2841E
:100D1000C2850208E07BFF7A2A7918120D8C02083E
:010D2000E0F2
:0828C200D293C2927FF47E0163
:1028CA00E4FDFCE4FBFAC3EB9FEE6480F8EA648063
:1028DA009850070BBB00010A80EC0DBD00010CBC2F
:0528EA0005E1BD10DE58
:0128EF0022C6
:06296700120590FD7F093E
:10296D00900019EDF0C295EF25E0547EFF122A621A
:0B297D00900019E0FF122A62D29522A0
:10000300C295EF25E0547E4480FF122A62900019C6
:0C001300E0FF122A3E900019EFF0D29599
:01001F0022BE
:0A29E100900018EDF0900017EFF0E1
:1029EB00120003AE07900017E0FFA3E04EFD022993
:0129FB006D6E
:0A29A900900018EDF0900017EFF019
:1029B300120003AE07900017E0FFA3E0F45EFD02F0
:0229C300296D7C
:102A2D007F141200037D037F141229E17F3702000A
:012A3D000395
:072A87007D037F140229A961
:072A8E007D0F7F0102296D9D
:10282200C295D297122A8E7D8D7F2A12296D7D3E06
:102832007F2B12296D7D1E7F2D12296DE4FD7F2CC9
:1028420012296D7D407F1512296D7D3D7F11122960
:092852006D7F37120003022A2DEC
:10141C0090000AF0A37401F0A37401F0A3748FF090
:10142C00A37401F0A37401F0A3748DF07A01798F89
:04143C007B017F0CA5
:10144000900007EBF0A3EAF0A3E9F0900006EFF0BC
:101450009000117402F0E4A3F0A3F0EF24F4601004
:1014600024FE70169000127412F0A37410F0800A1B
:101470009000127477F0A37430F0900012E0448072
:10148000FD7F0212296D7D807F041229A97D807F56
:101490000A1229E1E4FD7F0112296DE4900015F0A4
:1014A000A3F090000AE0FF900015E0FCA3E0FDC36C
:1014B0009FEC94005022900007E0FBA3E0FAA3E029
:1014C000F98D828C83122967900016E004F070D2A7
:1014D000900015E004F080CA900006E0FD7F011244
:1014E000296D900006E0B40C077D807F0D1229E184
:1014F0009000157407F0A374D0F07F0412000390DD
:101500000014EFF0900016E024FFF0900015E03496
:10151000FFF0E07002A3E06011900014E0FF20E013
:1015200009900013E0FEEF5E60D07D807F0D1229F0
:10153000A9900015E07002A3E070030216277F0651
:10154000120003EF541B6003021621900011F0A358
:10155000E0FF900014E05F30E0069000117401F0AD
:10156000900006E0640C60030216277F0A12000355
:10157000900014EFF07F0C120003EF5407FD602978
:10158000900014E024FFFFE434FFFEEF7803C33340
:10159000CE33CED8F97C002DFFEC3EF990000EE062
:1015A000FBA3E0FAA3E0C98016900014E075F008F0
:1015B000A4FF90000EE0FBA3E0FAA3E0F9E5F08FB2
:1015C000F0120607900014E0700204F0900014E09E
:1015D000D3941040037410F0E4900015F0A3F09041
:1015E0000014E0FFC3900016E09F900015E0940007
:1015F00050357F0912000390000BE0FBA3E0FAA333
:10160000E0F9900015E0FCA3E0F5828C83EF120571
:10161000CF900016E004F070C6900015E004F08052
:0C162000BE9000117402F0900011E0FF79
:01162C00229B
:0E25D700900000EFF0A3EBF0A3EAF0A3E9F010
:1025E5007D077F0D12296D900000E0FFA3E0FBA39E
:1025F500E0FAA3E0F9EF1205BD90000A7401F0902E
:102605000001E0F9A3E0FAA3E090000BC9F0A3EA0A
:10261500F0A3E9F0A37401F0A37400F0A37404F02F
:10262500900001E0FBA3A3E0F97F0C121440EF70CA
:0F2635000C900004E07004A3E0641060027F02C8
:012644002273
:0B1FCE00900000EBF0A3EAF0A3E9F0A4
:101FD900E4A3F0FD7F0D12296D900000E0FBA3E062
:101FE900FAA3E0F974931205BD900000E0FBA3E0A9
:101FF900FAA3E0F990000174201205CFC002C001D4
:1020090090000A7402F0900000E0F9A3E0FAA3E05E
:1020190090000BC9F0A3EAF0A3E9F0A37401F0A3BF
:102029007400F0A37404F0D001D0027F0C121440A4
:10203900AC07EC7044FD900003E0FF900000E0FB6A
:10204900A3E0FAA3E0F98D82758300120590FEEFF3
:102059006E900003F00DEDB404DC900000E0FBA3EA
:10206900E0FAA3E0F9AF058F82758300120590FFAE
:0B207900900003E06F60027C02AF04E7
:012084002239
:06226F007B017A01798F6A
:0E2275009001DBEBF0A3EAF0A3E9F0A3EDF09B
:102283007D047F051229A97D807F0A1229E1E4904C
:1022930001E2F09001DEE0FF9001E2E0FEC39F5017
:1022A3001B9001DBE0FBA3E0FAA3E0F98E827583C8
:1022B300001229679001E2E004F080D77D037F01DB
:1022C30012296D9001E274FFF07F05120003900163
:1022D300E2E014F0E06004EF30E2EE7F221200034C
:1022E3009001DFE0FBA3E0FAA3E0F9EF1205BD7F65
:1022F300211200039001DFE0FBA3E0FAA3E0F990D1
:062303000001EF0205CF0E
:0B2309009001A1EBF0A3EAF0A3E9F0C3
:102314009001A77493F0A37470F0E4FF9001A1E01E
:10232400FBA3E0FAA3E0F98F82758300120590FE07
:1023340074A92FF582E43401F583EEF00FEFB405B0
:10234400DB9001DF7401F0A37401F0A374AEF07BA1
:10235400017A0179A77D0712227590000A7409F0A9
:10236400A37401F0A37401F0A374A7F0A37401F0A3
:10237400A37401F0A374A5F07A0179A712143CEFB9
:1023840070129001A5E07004A3E064187006900137
:0E239400A7E08001E49001A4F09001A4E0FF16
:0123A2002218
:0B208500900175EBF0A3EAF0A3E9F076
:1020900090017EEFF0A3EDF0E4FF900175E0FBA36B
:1020A000E0FAA3E0F98F82758300120590FE748038
:1020B0002FF582E43401F583EEF00FEFB406DBE494
:1020C000FF900178E0FBA3E0FAA3E0F98F8275832B
:1020D00000120590FE74862FF582E43401F583EE3C
:1020E000F00FEFB404DB90000A740CF0A37401F05D
:1020F000A37401F0A3747EF0A37401F0A37401F043
:10210000A3747CF07B017A01797E7F0E12144090DB
:10211000017BEFF070097F08120003EF20E30690C7
:0A212000017B7402F090017BE0FFE8
:01212A002292
:0B21CF009001EFEBF0A3EAF0A3E9F0B1
:1021DA009001EFE0FBA3E0FAA3E0F974301205BD29
:1021EA009001EFE0FBA3E0FAA3E0F9900001EF12FF
:1021FA0005CFC003C002C0019001EFE0FBA3E0FAE3
:10220A00A3E02402F9E43AFA9001DFEBF0A3EAF042
:10221A00A3E9F0D001D002D0037D0212227590000A
:10222A000A7404F09001EFE0F9A3E0FAA3E0900049
:10223A000BC9F0A3EAF0A3E9F0A37401F0A37401B7
:10224A00F0A374F2F09001EFE0FBA3A3E0F97F0C96
:10225A00121440EF700C9001F2E07004A3E0649055
:04226A0060027F028D
:01226E00224D
:0B212B0090018AEBF0A3EAF0A3E9F0BA
:1021360090018F74A0F0A3EFF09001DF7401F0A37B
:102146007401F0A37491F07D0212226F74041214CC
:102156001CEF701690018DE07004A3E06404700A11
:1021660090018FE0540F640A60027F02EF7059FEFF
:1021760090018AE0FBA3E0FAA3E0F98E8275830062
:10218600120590FD748F2EF582E43401F583EDF08F
:102196000EEEB410DB9001DF7401F0A37401F0A31E
:1021A600749FF07D1012226F741212141CEF7016B9
:1021B60090018DE07004A3E06404700A90018FE042
:0821C600540F640A60027F025D
:0121CE0022EE
:10270E009001E57450F0E4A3F07B019001DF04F03A
:10271E00A37401F0A374E7F07A0179E57D02122229
:10272E007590000A7404F0A37401F0A37401F0A371
:10273E0074E5F0A37401F0A37401F0A374E3F07BCD
:0A274E00017A0179E57F0C021440C6
:101C7500A2AF9211C2AF75C7AA75C755E4F591A277
:101C85001192AF53B3DF53B4DFA2AF9211C2AF7558
:101C9500C7AA75C755F591A21192AF53B3FE53B4B8
:101CA500FEA2AF9211C2AF75C7AA75C755F591A22D
:101CB5001192AF53B1FE53B2FEA2AF9211C2AF75EE
:101CC500C7AA75C755F591A21192AF53B1FD53B28D
:101CD500FD43F408A2AF9211C2AF75C7AA75C755E7
:101CE500F591A21192AF53F37FA2AF9211C2AF75D6
:101CF500C7AA75C755F591A21192AF53F3DFA2AFED
:101D05009211C2AF75C7AA75C755F591A21192AFC9
:101D150053F3F7A2AF9211C2AF75C7AA75C755F5B0
:101D250091A21192AF53F3FBA2AF9211C2AF75C747
:101D3500AA75C755F591A21192AF43F310A2AF92C0
:101D450011C2AF75C7AA75C755F591A21192AF53C8
:101D5500F3FCA2AF9211C2AF75C7AA75C755F5912D
:0B1D6500A21192AF43F34053F47F2221
:0B2A62008FF5E5F430E7FB53F47F2212
:0C2A3E008FF5E5F430E7FBAFF553F47FB3
:012A4A002269
:042A7F008F828E8331
:032A8300E493FFDA
:012A8600222D
:0B2A4B00EF448075C7AA75C755F59FC2
:012A5600225D
:092A6D00300F054387020000222E
:092A760030100543870100002225
:061D70009001C912076496
:101D7600538EF75389F04389017B407A42790F7875
:101D8600009001C9E0FCA3E0FDA3E0FEA3E0FF1282
:101D960006B1A804A905AA06AB079001CFE0FEA3E9
:101DA600E0FFE4FCFD120626E47B0CFAF9F81206C5
:101DB600B1C374FF9FFF74FF9EE49DE49C9001D124
:101DC600EFF07B407A42790F78009001C9E0FCA3DE
:101DD600E0FDA3E0FEA3E0FF1206B1A804A905AA50
:101DE60006AB079001CFE0FEA3E0FFE4FCFD120680
:101DF60026E47B0CFAF9F81206B1C374FF9FFF7450
:101E0600FF9EFEE49DFDE49CFC78081207519001BC
:101E1600CDE07002A3E060219001D1E0F58A8F8CBD
:101E2600D28C308DFDC28DC28C9001CEE024FFF0A5
:091E36009001CDE034FFF080D5ED
:011E3F002280
:061E40009001D2120764BC
:101E4600538EEF53890F4389107B407A42790F787E
:101E5600009001D2E0FCA3E0FDA3E0FEA3E0FF12A8
:101E660006B1A804A905AA06AB079001D8E0FEA30F
:101E7600E0FFE4FCFD120626E47B0CFAF9F81206F4
:101E8600B1C374FF9FFF74FF9EE49DE49C9001DA4A
:101E9600EFF07B407A42790F78009001D2E0FCA304
:101EA600E0FDA3E0FEA3E0FF1206B1A804A905AA7F
:101EB60006AB079001D8E0FEA3E0FFE4FCFD1206A6
:101EC60026E47B0CFAF9F81206B1C374FF9FFF747F
:101ED600FF9EFEE49DFDE49CFC78081207519001EC
:101EE600D6E07002A3E060219001DAE0F58B8F8DD9
:101EF600D28E308FFDC28FC28E9001D7E024FFF0C4
:091F06009001D6E034FFF080D513
:011F0F0022AF
:06190A009001B012076419
:10191000E4F5919001B4E0FEA3E08EF01207E71920
:1019200043000119480004195000101958002019EB
:1019300060004019680080197001001978020000E9
:1019400000197E53C98F803653C98F43C910802E2A
:1019500053C98F43C920802653C98F43C930801E85
:1019600053C98F43C940801653C98F43C950800E55
:1019700053C98F43C960800653C98F43C970C2C819
:1019800043C98043C9047B407A42790F78009001B3
:10199000B0E0FCA3E0FDA3E0FEA3E0FF1206B190DF
:1019A00001B8E0F8A3E0F9A3E0FAA3E0FB120626F1
:1019B000C006C0079001B4E0FEA3E0FBAA06E4F96C
:1019C000F8D007D0061206B1C3E49FFFE49E74016D
:1019D0009DE49C9001BCEFF07B407A42790F780047
:1019E0009001B0E0FCA3E0FDA3E0FEA3E0FF12063F
:1019F000B19001B8E0F8A3E0F9A3E0FAA3E0FB128C
:101A00000626C006C0079001B4E0FEA3E0FBAA06CC
:101A1000E4F9F8D007D0061206B1C3E49FFFE49EB4
:101A2000FE74019DFDE49CFC78081207519001B6FC
:101A3000E07002A3E060219001BCE0F5CC8FCDD234
:101A4000CA30CFFDC2CFC2CA9001B7E024FFF090E8
:081A500001B6E034FFF080D57F
:011A5800226B
:06162D009001BD120764EC
:10163300E4F5919001C1E024FE602124FE6025249D
:10164300FC602924F8602D24F0603124E060352407
:10165300C06039247F703B53C4F8803653C4F843C9
:10166300C401802E53C4F843C402802653C4F843F4
:10167300C403801E53C4F843C404801653C4F84300
:10168300C405800E53C4F843C406800653C4F8430C
:10169300C4077B407A42790F78009001BDE0FCA338
:1016A300E0FDA3E0FEA3E0FF1206B19001C4E0F861
:1016B300A3E0F9A3E0FAA3E0FB120626C00790011A
:1016C300C1E0FBE4FAF9F8D0071206B1C3E49FFFC7
:1016D300E49E74019DE49C9001C8EFF07B407A4244
:1016E300790F78009001BDE0FCA3E0FDA3E0FEA329
:1016F300E0FF1206B19001C4E0F8A3E0F9A3E0FA19
:10170300A3E0FB120626C0079001C1E0FBE4FAF94F
:10171300F8D0071206B1C3E49FFFE49EFE74019D57
:10172300FDE49CFC78081207519001C2E07002A30B
:10173300E06074A2AF9211C2AF75C7AA75C755E432
:10174300F591A21192AF53C4EF9001C8E0F5C58F94
:10175300C6A2AF9211C2AF75C7AA75C755E4F5917A
:10176300A21192AF43C408E5C430E4FBA2AF9211C7
:10177300C2AF75C7AA75C755E4F591A21192AF53CD
:10178300C4EFA2AF9211C2AF75C7AA75C755F59141
:10179300A21192AF53C4F79001C3E024FFF090016C
:0717A300C2E034FFF0808278
:0117AA00221C
:1029C500EF14600D14600D14600E2403700DD2A970
:0C29D50022D2AB22439B8022439C0222B2
:101B6A00A2AF9211C2AF75C7AA75C755439F01A20A
:101B7A001192AFE4F591EF24F9600C146009240284
:101B8A00700875A638800375A630E4F5A775AF040A
:101B9A00A2AF9211C2AF75C7AA75C75543A401A2D5
:101BAA001192AF85AE0805A6A2AF9211C2AF75C752
:101BBA00AA75C75543A401A21192AF85AE09EF24B5
:101BCA00F86003021C4FE50825E0FFE50954012FE0
:101BDA00FF54C0F50BEF543FF50A74F22FFF75AFAF
:101BEA000C75A601E4F5A7A2AF9211C2AFA2AF92FB
:101BFA0011C2AF75C7AA75C75543AA40A21192AFC1
:101C0A0075C7AA75C75543A401A21192AFE5AE6480
:101C1A004B600BE5AE64526005E5AEB45322E50AAB
:101C2A00C3940F5017E50B6440600BE50B648060AA
:101C3A0005E50BB4C00A74F22FFF800474FC2FFF71
:101C4A00EFC313F50875C7AA75C75585088475C704
:101C5A00AA75C755850985A2AF9211C2AF75C7AAE1
:0A1C6A0075C755539FFEA21192AFFB
:011C7400224D
:1027A000EF24FD6011146012240270357F0212289C
:1027B000907F020226AC7F0380117F021228907F57
:1027C000021226AC7F041228907F041226ACA2AF1E
:1027D0009211C2AF75C7AA75C7555397DFA2119260
:0227E000AF2226
:10289000EF24FC601E24027028A2AF9211C2AF7513
:1028A000C7AA75C755439720A21192AFE59620E5B8
:1028B0001080F975C7AA75C7554397C0E59630E3F0
:0228C000FB22F9
:1028F000E4F591EF24FC60182402701DA2AF921140
:10290000C2AF75C7AA75C7555397DFA21192AF2200
:0A29100075C7AA75C75553973F22FB
:1026AC00E4F591A2AF9211C2AFEF24FD6018146053
:1026BC003924027048A2AF9211C2AF75C7AA75C770
:1026CC00555396FB800FA2AF9211C2AF75C7AA7576
:1026DC00C755439604A21192AFA2AF9211C2AF7527
:1026EC00C7AA75C7555396FD800FA2AF9211C2AF02
:1026FC0075C7AA75C755439608A21192AFA211923D
:02270C00AF22FA
:042A5D00C10CC10DDA
:101A5900900000120764900004E014605B14607940
:101A690024026003021B69759850438920438780CB
:101A7900438E10A2AF9211C2AF75C7AA75C755E4BC
:101A8900F591A21192AF53C4DF7B10FAF9F89000D7
:101A990000E0FCA3E0FDA3E0FEA3E0FF1206B19085
:101AA9000005E0F8A3E0F9A3E0FAA3E0FB1206B110
:101AB900EFF404F58DD28E2275985043878053C474
:101AC900F8A2AF9211C2AF75C7AA75C755E4F591CF
:101AD900A21192AF43C420800775F85075C480E401
:101AE9007B10FAF9F8900000E0FCA3E0FDA3E0FE0A
:101AF900A3E0FF1206B1900005E0F8A3E0F9A3E026
:101B0900FAA3E0FB1206B1C3E49FFFE49EFE740151
:101B19009DFDE49CFC78081207518FC6E47B10FAFE
:101B2900F9F8900000E0FCA3E0FDA3E0FEA3E0FFCC
:101B39001206B1900005E0F8A3E0F9A3E0FAA3E0EA
:101B4900FB1206B1C3E49FFFE48FC5A2AF9211C295
:101B5900AF75C7AA75C755F591A21192AF43C408CD
:011B69002259
:10298800C091E4F591EF14600C047012C2998D990E
:1029980020990B80FBC2F9AF058F9A20F9FDD091E1
:0129A800220C
:10285B00A2AF9211C2AF75C7AA75C755E4F591A285
:10286B001192AF53B1BF53B2BF900004F0A3120744
:10287B00700001C2007F007E367D6E7C01121A59FA
:05288B00D299D20C22DD
:10275800AB07E4F591ED540FF5CEECC4F854F0C88E
:10276800EDC4540F48F5CFEB6017A2AF9211C2AF7A
:1027780075C7AA75C755E4F591A21192AF43E22037
:1027880022A2AF9211C2AF75C7AA75C755E4F591D9
:08279800A21192AF53E2DF220F
:1029FC00E4F59153E18FEF5407C454F042E153E2F4
:092A0C00F1ED540725E042E2223D
:10256700A2AF9211C2AF75C7AA75C755439F01A203
:102577001192AF75AF0475A60DE4F5A7A2AF92113E
:10258700C2AF75C7AA75C75543A401A21192AFE59B
:10259700AE540FFD75A60CE4F5A7A2AF9211C2AF1A
:1025A70075C7AA75C75543A401A21192AFAFAEEF85
:1025B70075F010A47C002DFFEC35F0FEA2AF921150
:0F25C700C2AF75C7AA75C755539FFEA21192AF39
:0125D60022E2
:10243D00A2AF9211C2AF75C7AA75C755E4F591A2A7
:10244D001192AF53E8F043E806A2AF9211C2AF75F7
:10245D00C7AA75C755F591A21192AF43B10853B2F2
:10246D00F7F5F643F64043E101A2AF9211C2AF7505
:10247D00C7AA75C755F591A21192AFC2EFA2AF923F
:10248D0011C2AF75C7AA75C755F591A21192AFD2FA
:10249D00EE30EFFDAFC37E00EFC4F8540FC868FFF8
:1024AD00EEC454F048FEE5C2540FFDEF4DFFA2AF50
:1024BD009211C2AF75C7AA75C755E4F591A21192D5
:0424CD00AF53E1FE2A
:0124D10022E8
:1024D200A2AF9211C2AF75C7AA75C755E4F591A212
:1024E2001192AF53E8F043E807A2AF9211C2AF7561
:1024F200C7AA75C755F591A21192AF43B30253B45F
:10250200FDF5F643F68043E101A2AF9211C2AF7529
:10251200C7AA75C755F591A21192AFC2EFA2AF92A9
:1025220011C2AF75C7AA75C755F591A21192AFD264
:10253200EE30EFFDAFC37E00EFC4F8540FC868FF62
:10254200EEC454F048FEE5C2540FFDEF4DFFA2AFBA
:102552009211C2AF75C7AA75C755E4F591A211923F
:04256200AF53E1FE94
:012566002252
:0B17AB009001E9EEF0A3EFF0A3EDF0D9
:1017B600E4A3F09001E9E0FEA3E07807CEC313CEE0
:1017C60013D8F97807C333CE33CED8F9FF9001ED9D
:1017D600EEF0A3EFF0E49001ECF09001ECE0FFC333
:1017E600948050299001EEE02FFF9001EDE0340047
:1017F600FE122A7F7E009001ECE02492F582E4340A
:1018060000F583EFF09001ECE004F080CD9001EB61
:10181600E0FF7C009001EAE0547F2492F582EC34EC
:1018260000F583EFF09001EDE0FEA3E0F5A6EEF5FE
:10183600A775AEFFA2AF9211C2AF75C7AA75C755FD
:10184600439F01A21192AFA2AF9211C2AF75C7AA70
:1018560075C75543A501A21192AF75AF22A2AF92EB
:1018660011C2AF75C7AA75C75543A401A21192AF9D
:10187600A2AF9211C2AF75C7AA75C755439F01A201
:101886001192AFA2AF9211C2AF75C7AA75C75543E1
:10189600A501A21192AF75AF21E49001ECF0900181
:1018A600ECE0FDC394805035A3E0FEA3E0FCED2CF4
:1018B600F5A6EEF5A774922DF582E43400F583E0E3
:1018C600F5AEA2AF9211C2AF75C7AA75C75543A4AC
:1018D60001A21192AF9001ECE004F080C1A2AF9298
:1018E60011C2AF75C7AA75C75553A5FEA21192AF0F
:1018F600A2AF9211C2AF75C7AA75C755539FFEA274
:031906001192AF8C
:0119090022BB
:101F1000900000EEF0A3EFF0A3EBF0A3EAF0A3E94A
:011F2000F0D0
:101F2100900000E0FCA3E0FDAE047807CEC313CE21
:101F310013D8F9FB900005E0FEA3E02DFFEC3EFE77
:101F4100EF7807CEC313CE13D8F9900007F09000B5
:101F510007E06B6053900000E0FEA3E0FFA3E0FB0D
:101F6100A3E0FAA3E0F990000D7480F01211A4AD82
:101F710007900001E02FF0900000E03400F09000A5
:101F810003E48FF01205F1C3900006E09FF090008A
:101F910005E09400F0900000E0FEA3E07807CEC3D6
:101FA10013CE13D8F9FB80A6900005E0FCA3E0FD59
:101FB1004C6019900000E0FEA3E0FFA3E0FBA3E06A
:0C1FC100FAA3E0F990000DEDF01211A45D
:011FCD0022F1
:10264500900000EEF0A3EFF0A3EBF0A3EAF0A3E90E
:01265500F094
:10265600E4900007F0A3F0900005E0FEA3E0FFA3DE
:10266600E0FCA3E0FDC39FEC9E503A900001E02DF4
:10267600FF900000E03C8F82F583E493FF90000218
:10268600E0FBA3E0FAA3E0F9900007A3E0F5828C53
:1026960083EF1205CF900008E004F070BA900007AF
:0526A600E004F080B229
:0126AB00220C
:1011A400900008EEF0A3EFF0A3EBF0A3EAF0A3E9BC
:0111B400F04A
:1011B500A2AF9211C2AF75C7AA75C755439F01A2C9
:1011C5001192AFA2AF9211C2AF75C7AA75C75543A9
:1011D500A501A21192AF900008E0FEA3E0FF547FA5
:1011E500FD90000FF0C374809DFD90000EF09000FF
:1011F5000DE0D39D4006A3E090000DF0900010EEA9
:10120500F0A3EFF0E490000EF090000DE0FFA3E0F6
:10121500FEC39F501B900010E0FCA3E02EF582E476
:101225003CF583E493B4FF0890000EE004F080D908
:10123500EE6F60030212DB75AF21900008E0FEA39C
:10124500E0F5A6EEF5A7E490000EF090000DE0FFA6
:10125500A3E0FEC39F503290000AE0FBA3E0FAA38F
:10126500E0F98E82758300120590F5AEA2AF92115A
:10127500C2AF75C7AA75C75543A401A21192AF05A0
:10128500A690000EE004F080C2E490000EF09000FD
:101295000DE0FFA3E0FEC39F502F90000AE0FBA3E3
:1012A500E0FAA3E0F98E82758300120590FF9000A5
:1012B50010E0FCA3E02EF582E43CF583E493B5074A
:1012C5000890000EE004F080C590000DE0FFA3E05B
:1012D5006F7003021403900008E0FFA3E0548090B0
:1012E5000010CFF0A3EFF0E490000EF090000EE0B8
:1012F500FF900010E0FCA3E02FF582E43CF583E4C9
:1013050093FE74122FF582E43400F583EEF090001D
:101315000EE004F0E0B480D4E490000EF090000DEF
:10132500E0FFA3E0C39F503190000AE0FBA3E0FA81
:10133500A3E0F990000EE0FFF58275830012059099
:10134500FE90000FE02F2412F582E43400F583EEC1
:10135500F090000EE004F080C4900008E0FEA3E0E9
:101365005480F5A6EEF5A775AF2275AEFFA2AF9234
:1013750011C2AF75C7AA75C75543A401A21192AF93
:1013850075AF21E490000EF090000EE0FFC394804D
:10139500502A74122FF582E43400F583E0F5AEA2ED
:1013A500AF9211C2AF75C7AA75C75543A401A21163
:1013B50092AF05A690000EE004F080CCE490000EFC
:1013C500F090000EE0FFC39480502BE0FE900010DB
:1013D500E0FCA3E02EF582E43CF583E493FD741272
:1013E5002EF582E43400F583E0FEEDB506089000A5
:1013F5000EE004F080CBEF6480600302135EA2AFC1
:101405009211C2AF75C7AA75C755539FFEA2119217
:06141500AF90000DE0FFA6
:01141B0022AE
:030000000223A335
:1023A300787FE4F6D8FD9000007FFF7E08E4F0A379
:0A23B300DFFCDEFA7581220223F838
:10002600EC4D6011E8497017ED33EC3304600DE4D4
:10003600FCFFFEFD22E933E8330470F802021812D1
:1000460001E358046009E4CC2481500628500902D3
:10005600022228400302021FC0E0EB4A7044B98026
:1000660006D0E0FB02020EEF4E701CBD8008EBFFCF
:10007600EAFEE9FD80EBE98DF0A4FEE5F002010F52
:10008600E9CDF9EAFEEBFFEF89F0A4FCE5F0CE89B5
:10009600F0A42EFFE435F0CD89F0A42DFEE435F072
:1000A6008067EF4E7005BD80D780C3EF8BF0A4ACA0
:1000B600F0EE8BF0A42CFCE435F0F8EF8AF0A42CDB
:1000C600E5F038FCE433CB8DF0A42CFCE5F03BF8EE
:1000D600EE8AF0A42CFCE5F038F8E433CF89F0A4DE
:1000E6002CFCE5F038CF3400CE89F0A42FFFE5F0E4
:1000F6003EFEE433C98DF0A42EFEE5F039CD8AF03C
:10010600A42FFFE5F03EFEE43DFD33D0E0FB5007B3
:100116000BBB000F020222EC2CFCEF33FFEE33FE8A
:06012600ED33FD0201FAB9
:10012C0074F8CC6480CCC86480C8F58204604FC37A
:10013C00EB9FF5F0EA9E42F0E99D42F0E89C45F019
:10014C00603C501DE5825FFFE582D313CB5BCBF4A3
:10015C002B5582FB50280ABA002409B900200880CC
:10016C001DE5825BFBE582D313CF5FCFF4C3132F66
:10017C005582FF50090EBE00050DBD00010CC3EBEE
:10018C009FF5F0EA9E42F0E99D42F0E89C45F06054
:09019C0007CC4820E701B3EC2276
:1001A50075F020800E75F010800575F0087D007ED5
:1001B500007F003392D530D503120743EC3340104E
:1001C500EF33FFEE33FEED33FDEC33FCD5F0ED22DE
:0E01D500E5F0247EA2D513CC92E7CDCEFF221A
:100D2100E5082403F582E43400F583E00508229008
:100D31000000300703900003E475F0011207A102DF
:100D410005772000E97F2ED2008018EF540F249000
:100D5100D43440D4FF30040BEF24BFB41A00500345
:100D61002461FFE50960021509050CE50C70020517
:100D71000B30070E900000E475F0011207A1EF029D
:100D810005BD02291A7403D2078003E4C207F508DE
:100D91009000001207B8E4F509F50BF50CE50960C0
:100DA100077F20120D6480F5750AFFC201C200C2DF
:100DB10002C203C205C206C208120D30FF700D3017
:100DC10007057F00120D75AF0CAE0B22B4255FC273
:100DD100D5C204120D30FF24D0B40A00501A75F0A8
:100DE1000A780930D50508B6FF0106C6A426F62003
:100DF100D5047002D20380D924CFB41A00EF500475
:100E0100C2E5D204021067D20180C6D20080C0D2EE
:100E11000280BCD2D580BAD20580B47F20120D6485
:100E21002002077401B5090040F1120D21FF120DD6
:100E310064020D9ED208D2068095120D21FB120D7F
:100E410021FA120D21F94A4B700679657A117BFF5F
:100E510020022EE509602A7E008E8275830012052C
:100E61009060060EEE650A70F0C2D5EBC0E0EAC0F4
:100E7100E0E9C0E0EE1210C8D0E0F9D0E0FAD0E02D
:100E8100FB120577FF60AAEBC0E0EAC0E0E9C0E031
:100E9100120D64D0E02401F9D0E03400FAD0E0FB77
:100EA100E50A0460DCD50AD98087D20280A212103B
:100EB100AA60F7E50A70010412022DA90A600DE586
:100EC1000A600914F50A121152EF60F3EA30E702E1
:100ED100F404C3995079EAF4250A0430E701E404E3
:100EE100F50A800D1210AA60C1EA050A250A12024C
:100EF1002DEA90002FF030E701E4250A04D50A0419
:100F0100200501141210C8E4C0E012115290002F04
:100F1100E0601320E70714F0120D4C802204F0D09A
:100F2100E014C0E07F00120D4CE50A6007120D438A
:100F3100150A800B300503120D43D0E0020D9ED03F
:100F4100E00480C41210AA609EE50A0412022D90EA
:100F5100002FEAF0E50A20050260010424041210C2
:010F6100C8C7
:100F620074FF04C0E0121152120D4CE50A20050272
:100F72006003120D43D0E0B50AE87F45120D56908A
:100F8200002FE07F2B30E7047F2DF404C0E0120D28
:100F920064D0E075F00A84C0F0120D4DD0E0120D5D
:100FA2004D020D9E791080027908C206C20880089F
:100FB200D2D5790A8004790AC2D5E50A047002F50D
:100FC2000AE4FAFDFEFF120D21FC7B082001131238
:100FD2000D21FD7B1030000A120D21FE120D21FFA2
:100FE2007B20EC3382D592D55013C3E43000069FA8
:100FF200FFE49EFEE42001039DFDE49CFCE4CBF8AB
:10100200C201EC700CCFCECDCCE824F8F870F3809E
:1010120017C3EF33FFEE33FEED33FDEC33FCEB335E
:10102200FB994002FB0FD8E9EB300105F8D0E0C490
:1010320048B201C0E00AEC4D4E4F78207B0070C2EE
:10104200EAB50A0040BCC0E01210CAD0F0D0E020DD
:101052000104C4C0E0C4B201C0F0120D4DD0F0D5FD
:10106200F0EB020D9E1207C10E3B530FA6580E0C59
:101072004C0E08420FAA4F0FB2440FB2490E214341
:101082000FB8550EE5460F45450EAF471185500E78
:10109200102D0E142E0E372B0E18230E3520116E26
:1010A2002A0DD04800000E2FE50AB4FF03750A0688
:1010B200120D21FC120D21FD120D21FE120D21FF38
:1010C20090002802026A790AA2D520031430050989
:1010D200B910020404B9080104A2D5200602500185
:1010E200042002689202B509005034C0E07F20302B
:1010F20003197F30A20272067205500F121121C22B
:1011020002C206C205C2087F30800F300503E9C063
:10111200E0120D64300503D0E0F9D0E0B509CC301F
:1011220005177F30B9100C120D647F583004077F09
:10113200788003B90803120D643002057F2D020D79
:10114200647F202008F87F2B2006F322920280CFB2
:101152007F00B40700500B2428F582E43400F583A5
:10116200E0FF22286E756C6C2900D201120D21302D
:1011720001F8C201780930D50108F6020DD02D50D0
:10118200434958120D212403B405004001E4901193
:101192008093120D55743A120D55D203750904024B
:0211A2000FA696
:1001E300E9D2E7C933E833F892D5EDD2E7CD33EC62
:0701F30033FC5002B2D522DB
:1001FA00EC30E7100FBF000C0EBE00080DBD000466
:10020A000BEB6014A2D5EB13FCED92E7FD2274FF11
:10021A00FCFDFEFF22E480F8A2D574FF13FC7D806A
:03022A00E480EF7E
:10022D00F920E73624F950037907E4F42402FBE5BD
:10023D0082158270021583DBF6E024FB501BE9600A
:10024D0014E4F0E582158270021583E004F0B40A1F
:0D025D0008E4F0D9EE7401F00A22C2D522A7
:10026A00ED33EC3392D5FA602AB4FF33EDC2E77B63
:10027A00FF60067A02798FE4227A02799820D504FF
:10028A007A027993224E614E002B494E46002D493F
:10029A004E4600E47A08F0A3DAFC7B00740722C019
:1002AA0083C082ECC0E0EDC0E0EEC0E0EFC0E0EA5F
:1002BA0075F010A4CAABF075F04DA42BFBE435F031
:1002CA00FCEA2410FAEB34C5FBEC34D9FCEDC2E7A6
:1002DA00FF75F056A4F42411C5F0F434C58FF0A4C8
:1002EA002AE5F03BE43CF020E714120537D0E0FFA2
:1002FA00D0E0FED0E0FDD0E0FC12046A8014F404E1
:10030A00120537D0E0FFD0E0FED0E0FDD0E0FC12CD
:10031A000026D082D083E0FAEDD2E7CD33EC332445
:10032A0082FBE4C3CF33CFCE33CECD33CD33DBF331
:10033A007B0775F00A846004F0A31B0AE5F0F0A3BA
:10034A008FF0740AA4FFACF08EF0740AA42CFEACF1
:10035A00F050010C8DF0740AA42CFDE435F0F0A3E2
:05036A00DBDE74072238
:10036F00020218E86480F8E933E83360110460F0A2
:10037F00ED33EC337009E8FCE9FDEAFEEBFF2204F4
:10038F0060DED3EB9FEA9EE99DE8C2E78CF0C2F7EF
:10039F0095F0400CE8CCF8E9CDF9EACEFAEBCFFBBB
:1003AF001201E385D0F05804700320D5B3E8047030
:1003BF00075002B2D502022292D5EC0460F7E4CCCA
:1003CF00C0E0C398F8603B94186008400DD0E0FB84
:1003DF000201FAE4FBFAC9FC8028E830E406E4C91C
:1003EF00FBE4CAFCE830E305E4C9CACBFCE85407D8
:1003FF006010F8C3E913F9EA13FAEB13FBEC13FCE3
:10040F00D8F130F52FC3E49CFCEF9BFFEE9AFEED85
:10041F0099FDD0E0FBEF4E4D4C701222DB03020230
:10042F001FEC2CFCEF33FFEE33FEED33FDED30E729
:10043F00EB0201FAEF2BFFEE3AFEED39FDD0E0FBB8
:10044F0050130BBB0003020222ED13FDEE13FEEF60
:08045F0013FFEC13FC0201FA8B
:10046700020222EC5D046005E859047003020218D9
:100477001201E3580460F6EC4860F2EC7004FDFEEC
:10048700FF22C860DB2481C85009C3986002500668
:1004970002021F9850CAF582E9294B4A7005AB82C0
:1004A70002020E75F0007C1A7880C3EF9BEE9AED7E
:1004B70099400DC3EF9BFFEE9AFEED99FDE842F0E0
:1004C700DC23ACF0D0E0FFD0E0FED0E0FDAB822033
:1004D700E7101BEB60BAEC2CFCEF33FFEE33FEEDBD
:1004E70033FD0201FAE803F830E705C0F075F000C4
:1004F700EF2FFFEE33FEED33FD40B830E7C280AAA1
:100507003F8000004120000042C80000447A0000FC
:10051700461C400047C35000497424004B1896807E
:100527004CBEBC205A0E1BCA6753C21C749DC5AE75
:10053700FB60065407601C2323120565EB543860E3
:1005470009120551120560120026ECF8EDF9EEFAD2
:10055700EFCB22EB12056080F1543803241C900581
:1005670007FE93FC0EEE93FD0EEE930ECE93FF2245
:1023BD00020840E493A3F8E493A34003F68001F2EE
:1023CD0008DFF48029E493A3F85407240CC8C33321
:1023DD00C4540F4420C8834004F456800146F6DFF0
:1023ED00E4800B0102040810204080902A57E47EFF
:1023FD00019360BCA3FF543F30E509541FFEE493E5
:10240D00A360010ECF54C025E060A840B8E493A3AB
:10241D00FAE493A3F8E493A3C8C582C8CAC583CAD6
:10242D00F0A3C8C582C8CAC583CADFE9DEE780BE8E
:012A61000074
:10057700BB010689828A83E0225002E722BBFE0282
:09058700E32289828A83E49322B5
:10059000BB010CE58229F582E5833AF583E0225020
:1005A00006E92582F8E622BBFE06E92582F8E2226A
:0D05B000E58229F582E5833AF583E4932284
:1005BD00BB010689828A83F0225002F722BBFE011D
:0205CD00F32217
:1005CF00F8BB010DE58229F582E5833AF583E8F062
:1005DF00225006E92582C8F622BBFE05E92582C80E
:0205EF00F222F6
:1005F100C5F0F8A3E028F0C5F0F8E5821582700295
:060601001583E038F02231
:10060700BB010A89828A83F0E5F0A3F0225006F73E
:0F06170009A7F01922BBFE06F3E5F009F319223B
:10062600E88FF0A4CC8BF0A42CFCE98EF0A42CFC73
:100636008AF0EDA42CFCEA8EF0A4CDA8F08BF0A4F1
:100646002DCC3825F0FDE98FF0A42CCD35F0FCEB50
:100656008EF0A4FEA9F0EB8FF0A4CFC5F02ECD3915
:0F066600FEE43CFCEAA42DCE35F0FDE43CFC2282
:1006750075F008758200EF2FFFEE33FECD33CDCC3C
:1006850033CCC58233C5829BED9AEC99E5829840BF
:100695000CF582EE9BFEED9AFDEC99FC0FD5F0D69C
:1006A500E4CEFBE4CDFAE4CCF9A88222B800C1B9C6
:1006B5000059BA002DEC8BF084CFCECDFCE5F0CB04
:1006C500F97818EF2FFFEE33FEED33FDEC33FCEB3D
:1006D50033FB10D703994004EB99FB0FD8E5E4F9F8
:1006E500FA227818EF2FFFEE33FEED33FDEC33FCE5
:1006F500C933C910D7059BE99A4007EC9BFCE99AD9
:10070500F90FD8E0E4C9FAE4CCFB2275F010EF2F1D
:10071500FFEE33FEED33FDCC33CCC833C810D7071D
:100725009BEC9AE899400AED9BFDEC9AFCE899F858
:0E0735000FD5F0DAE4CDFBE4CCFAE4C8F922EB
:0E074300C3E49FFFE49EFEE49DFDE49CFC22C7
:10075100E8600FECC313FCED13FDEE13FEEF13FF86
:03076100D8F122AA
:0C076400ECF0A3EDF0A3EEF0A3EFF02208
:10077000A8828583F0D083D0821207871207871260
:100780000787120787E473E493A3C583C5F0C58385
:10079000C8C582C8F0A3C583C5F0C583C8C582C8D3
:0107A0002236
:1007A100F8E0FBA3A3E0F925F0F0E58215827002E1
:0707B1001583E0FA38F02285
:0907B800EBF0A3EAF0A3E9F02242
:1007C100D083D082F8E4937012740193700DA3A3C7
:1007D10093F8740193F5828883E4737402936860DB
:0607E100EFA3A3A380DFDB
:1007E700D083D082F8E4937012740193700DA3A3A1
:1007F70093F8740193F5828883E473740293B5F0D8
:0D080700067403936860E9A3A3A3A380D83F
:10291A00EFB40A07740D122925740A309811A89980
:10292A00B8130CC2983098FDA899C298B811F6301D
:07293A0099FDC299F59922F5
:10081400EF4E6012EF60010EEDBB010B89828A83FB
:10082400F0A3DFFCDEFA2289F05007F709DFFCA908
:0C083400F022BBFEFCF309DFFCA9F0225F
:00000001FF
