:10221500554E415554484F52495A45442043415221
:0522250044200D0A0039
:0622540041004100C10C35
:0B1FEB00900009EBF0A3EAF0A3E9F07E
:101FF600E4FFFE90000CE0FBA3E0FAA3E0F98F8279
:102006008E8312056DFD900009E0FBA3E0FAA3E0C4
:10201600F98F828E83ED1205AC0FBF00010EEF64BF
:04202600054E70CF24
:01202A002293
:100C5E00A2AF920FC2AF75C7AA75C755E4F591A2A0
:100C6E000F92AFF5B1F5B2F5B3F5B4F5ACF5ADC283
:100C7E0084C2857F06121498A2AF920FC2AF75C7B9
:100C8E00AA75C755E4F591A20F92AF53B1BF53B2F7
:100C9E00BF90000D04F0A31207370001C2007F00C1
:100CAE007E367D6E7C01121387D299D2091215A35E
:100CBE00D292C294C2937FB87E0B1220D312202BF5
:100CCE007FD07E071220D31220CF7B017A00794984
:100CDE007F26121E47900041EFF07B017A00794982
:100CEE0012183E900041EFF0121CADAC06AD07E4B9
:100CFE0012018790003912072B121D42AC06AD0768
:100D0E00E412018790003D12072B900039E0FCA3FE
:100D1E00E0FDA3E0FEA3E0FF7B997A99791978387C
:100D2E0012000390003912072B90003DE0FCA3E067
:100D3E00FDA3E0FEA3E0FF7BCD7ACC794C783A128E
:100D4E00000390003D12072B900041E06003020C5F
:100D5E00D5900049E0FFB4D310A3E0B4020BA3E09A
:100D6E00B40306A3E064AD6025EF64436003020C98
:100D7E00D590004AE064356003020CD5A3E064050B
:100D8E006003020CD5A3E064AD6003020CD5200C09
:100D9E001790000C7401F0A37400F0A37449F07B5B
:100DAE00017A007942121FEB900042E0FF90004959
:100DBE00E06F6003020E9D900043E0FF90004AE05A
:100DCE006F6003020E9D900044E0FF90004BE06FB9
:100DDE006003020E9D900045E0FF90004CE06F60B6
:100DEE0003020E9D7FB87E1E7D857C3D900039E00E
:100DFE00F8A3E0F9A3E0FAA3E0FB120109501D7F6E
:100E0E007B7E147DAE7C3D900039E0F8A3E0F9A323
:100E1E00E0FAA3E0FB120109600250667F527EB831
:100E2E007DBE7C3F90003DE0F8A3E0F9A3E0FAA37D
:100E3E00E0FB120109501F7433FFFEFD7C40900051
:100E4E003DE0F8A3E0F9A3E0FAA3E0FB120109608C
:100E5E00054003020CD5200C0AD293C294C292D242
:100E6E0084D285300C17C293D2921220CF1220CB8F
:100E7E001220CBC294C293D292C284C285B20C020B
:100E8E000CD5D294C292C293C284C285020CD57B79
:0B0E9E00FF7A227915120846020CD5DD
:0820CB00D293C2927FF47E0162
:1020D300E4FDFCE4FBFAC3EB9FEE6480F8EA648062
:1020E3009850070BBB00010A80EC0DBD00010CBC2E
:0520F30005E1BD10DE57
:0120F80022C5
:06214A0012056DFD7F0986
:10215000900022EDF0C295EF25E0547EFF12225F41
:0B216000900022E0FF12225FD29522C7
:10218C00C295EF25E0547E4480FF12225F9000221E
:0C219C00E0FF12223B900022EFF0D295F1
:0121A8002214
:0A21E100900021EDF0900020EFF0D7
:1021EB0012218CAE07900020E0FFA3E04EFD0221F0
:0121FB005093
:0A21A900900021EDF0900020EFF00F
:1021B30012218CAE07900020E0FFA3E0F45EFD0245
:0221C3002150A9
:10222A007F1412218C7D037F141221E17F37022152
:01223A008C17
:072284007D037F140221A974
:07228B007D0F7F01022150CD
:10202B00C295D29712228B7D8D7F2A1221507D3E35
:10203B007F2B1221507D1E7F2D122150E4FD7F2C12
:10204B001221507D407F151221507D3D7F111221B1
:09205B00507F3712218C02222A69
:100EA900900013F0A37401F0A37400F0A3746CF024
:100EB900A37401F0A37400F0A3746AF07A00796C4A
:040EC9007B017F0C1E
:100ECD00900010EBF0A3EAF0A3E9F090000FEFF023
:100EDD0090001A7402F0E4A3F0A3F0EF24F4601074
:100EED0024FE701690001B7412F0A37410F0800A8B
:100EFD0090001B7477F0A37430F090001BE04480D9
:100F0D00FD7F021221507D807F041221A97D807FFB
:100F1D000A1221E1E4FD7F01122150E490001EF040
:100F2D00A3F0900013E0FF90001EE0FCA3E0FDC3D2
:100F3D009FEC94005022900010E0FBA3E0FAA3E098
:100F4D00F98D828C8312214A90001FE004F070D23B
:100F5D0090001EE004F080CA90000FE0FD7F0112AA
:100F6D00215090000FE0B40C077D807F0D1221E120
:100F7D0090001E7407F0A374D0F07F0412218C90A2
:100F8D00001DEFF090001FE024FFF090001EE034F4
:100F9D00FFF0E07002A3E0601190001DE0FF20E083
:100FAD000990001CE0FEEF5E60D07D807F0D122168
:100FBD00A990001EE07002A3E070030210B47F063A
:100FCD0012218CEF541B60030210AE90001AF0A397
:100FDD00E0FF90001DE05F30E00690001A7401F014
:100FED0090000FE0640C60030210B47F0A12218C94
:100FFD0090001DEFF07F0C12218CEF5407FD60293E
:10100D0090001DE024FFFFE434FFFEEF7803C333AF
:10101D00CE33CED8F97C002DFFEC3EF9900017E0D1
:10102D00FBA3E0FAA3E0C9801690001DE075F0085F
:10103D00A4FF900017E0FBA3E0FAA3E0F9E5F08F21
:10104D00F01205CE90001DE0700204F090001DE03E
:10105D00D3941040037410F0E490001EF0A3F090B0
:10106D00001DE0FFC390001FE09F90001EE0940064
:10107D0050357F0912218C900014E0FBA3E0FAA3F8
:10108D00E0F990001EE0FCA3E0F5828C83EF1205E1
:10109D00AC90001FE004F070C690001EE004F080DC
:0C10AD00BE90001A7402F090001AE0FFE0
:0110B9002214
:0E1E4700900009EFF0A3EBF0A3EAF0A3E9F09E
:101E55007D077F0D122150900009E0FFA3E0FBA351
:101E6500E0FAA3E0F9EF12059A9000137401F090DF
:101E7500000AE0F9A3E0FAA3E0900014C9F0A3EA90
:101E8500F0A3E9F0A37401F0A37400F0A3740DF0BE
:101E950090000AE0FBA3A3E0F97F0C120ECDEF70D2
:0F1EA5000C90000DE07004A3E0641060027F0257
:011EB400220B
:0B183E00900009EBF0A3EAF0A3E9F032
:10184900E4A3F0FD7F0D122150900009E0FBA3E015
:10185900FAA3E0F9749312059A900009E0FBA3E05A
:10186900FAA3E0F990000174201205ACC002C0018E
:101879009000137402F0900009E0F9A3E0FAA3E0E4
:10188900900014C9F0A3EAF0A3E9F0A37401F0A34E
:101899007400F0A3740DF0D001D0027F0C120ECDAC
:1018A900AC07EC7044FD90000CE0FF900009E0FBF0
:1018B900A3E0FAA3E0F98D8275830012056DFEEFAE
:1018C9006E90000CF00DEDB404DC900009E0FBA370
:1018D900E0FAA3E0F9AF058F8275830012056DFF69
:0B18E90090000CE06F60027C02AF0476
:0118F40022D1
:061ADF007B017A00796C26
:0E1AE500900000EBF0A3EAF0A3E9F0A3EDF00F
:101AF3007D047F051221A97D807F0A1221E1E490F4
:101B03000007F0900003E0FF900007E0FEC39F5042
:101B13001B900000E0FBA3E0FAA3E0F98E8275833B
:101B23000012214A900007E004F080D77D037F0173
:101B330012215090000774FFF07F0512218C900052
:101B430007E014F0E06004EF30E2EE7F2212218C14
:101B5300900004E0FBA3E0FAA3E0F9EF12059A7FFB
:101B63002112218C900004E0FBA3E0FAA3E0F9909A
:061B73000001EF0205ACC9
:0B1B7900900081EBF0A3EAF0A3E9F07C
:101B84009000877493F0A37470F0E4FF900081E0F8
:101B9400FBA3E0FAA3E0F98F8275830012056DFEC2
:101BA40074892FF582E43400F583EEF00FEFB40569
:101BB400DB9000047401F0A37400F0A3748EF07B36
:101BC400017A0079877D07121AE59000137409F0F1
:101BD400A37401F0A37400F0A37487F0A37401F05C
:101BE400A37400F0A37485F07A007987120EC9EF0C
:101BF4007012900085E07004A3E0641870069000F1
:0E1C040087E08001E4900084F0900084E0FF0F
:011C120022AF
:0B18F500900052EBF0A3EAF0A3E9F032
:1019000090005BEFF0A3EDF0E4FF900052E0FBA34A
:10191000E0FAA3E0F98F8275830012056DFE745D15
:101920002FF582E43400F583EEF00FEFB406DBE42C
:10193000FF900055E0FBA3E0FAA3E0F98F827583E6
:101940000012056DFE74632FF582E43400F583EE1A
:10195000F00FEFB404DB900013740CF0A37401F0EB
:10196000A37400F0A3745BF0A37401F0A37400F0FF
:10197000A37459F07B017A00795B7F0E120ECD9033
:101980000058EFF070097F0812218CEF20E30690D9
:0A19900000587402F0900058E0FFC8
:01199A00222A
:0B1A3F009000C1EBF0A3EAF0A3E9F077
:101A4A009000C1E0FBA3E0FAA3E0F9743012059A12
:101A5A009000C1E0FBA3E0FAA3E0F9900001EF12C5
:101A6A0005ACC003C002C0019000C1E0FBA3E0FACC
:101A7A00A3E02402F9E43AFA900004EBF0A3EAF0B6
:101A8A00A3E9F0D001D002D0037D02121AE590003A
:101A9A00137404F09000C1E0F9A3E0FAA3E0900007
:101AAA0014C9F0A3EAF0A3E9F0A37401F0A3740047
:101ABA00F0A374C4F09000C1E0FBA3A3E0F97F0C8B
:101ACA00120ECDEF700C9000C4E07004A3E0649095
:041ADA0060027F0225
:011ADE0022E5
:0B199B00900067EBF0A3EAF0A3E9F076
:1019A60090006C74A0F0A3EFF09000047401F0A313
:1019B6007400F0A3746EF07D02121ADF7404120E26
:1019C600A9EF701690006AE07004A3E06404700A40
:1019D60090006CE0540F640A60027F02EF7059FEBB
:1019E600900067E0FBA3E0FAA3E0F98E827583001E
:1019F60012056DFD746C2EF582E43400F583EDF06E
:101A06000EEEB410DB9000047401F0A37400F0A392
:101A1600747CF07D10121ADF7412120EA9EF701684
:101A260090006AE07004A3E06404700A90006CE021
:081A3600540F640A60027F02F4
:011A3E002285
:101F17009000BD7450F0E4A3F07B0190000404F03E
:101F2700A37400F0A374BFF07A0079BD7D02121A82
:101F3700E59000137404F0A37401F0A37400F0A3F8
:101F470074BDF0A37401F0A37400F0A374BBF07B1D
:0A1F5700017A0079BD7F0C020ECD67
:1015A300A2AF920FC2AF75C7AA75C755E4F591A252
:1015B3000F92AF53B3DF53B4DFA2AF920FC2AF7535
:1015C300C7AA75C755F591A20F92AF53B3FE53B493
:1015D300FEA2AF920FC2AF75C7AA75C755F591A208
:1015E3000F92AF53B1FE53B2FEA2AF920FC2AF75CB
:1015F300C7AA75C755F591A20F92AF53B1FD53B268
:10160300FD43F408A2AF920FC2AF75C7AA75C755C1
:10161300F591A20F92AF53F37FA2AF920FC2AF75B2
:10162300C7AA75C755F591A20F92AF53F3DFA2AFC7
:10163300920FC2AF75C7AA75C755F591A20F92AFA6
:1016430053F3F7A2AF920FC2AF75C7AA75C755F58B
:1016530091A20F92AF53F3FBA2AF920FC2AF75C724
:10166300AA75C755F591A20F92AF43F310A2AF929B
:101673000FC2AF75C7AA75C755F591A20F92AF53A5
:10168300F3FCA2AF920FC2AF75C7AA75C755F59108
:0B169300A20F92AF43F34053F47F22FC
:0B225F008FF5E5F430E7FB53F47F221D
:0C223B008FF5E5F430E7FBAFF553F47FBE
:012247002274
:04227C008F828E833C
:03228000E493FFE5
:012283002238
:0B224800EF448075C7AA75C755F59FCD
:012253002268
:09226A00300D054387020000223B
:09227300300E0543870100002232
:06169E009000A912072BC9
:1016A400538EF75389F04389017B407A42790F784E
:1016B400009000A9E0FCA3E0FDA3E0FEA3E0FF127C
:1016C4000678A804A905AA06AB079000AFE0FEA31C
:1016D400E0FFE4FCFD1205EDE47B0CFAF9F81206D8
:1016E40078C374FF9FFF74FF9EE49DE49C9000B157
:1016F400EFF07B407A42790F78009000A9E0FCA3D8
:10170400E0FDA3E0FEA3E0FF120678A804A905AA61
:1017140006AB079000AFE0FEA3E0FFE4FCFD12057A
:10172400EDE47B0CFAF9F8120678C374FF9FFF749A
:10173400FF9EFEE49DFDE49CFC78081207189000CF
:10174400ADE07002A3E060219000B1E0F58A8F8CD7
:10175400D28C308DFDC28DC28C9000AEE024FFF09F
:091764009000ADE034FFF080D5E7
:01176D002259
:06176E009000B212072BEF
:10177400538EEF53890F4389107B407A42790F7857
:10178400009000B2E0FCA3E0FDA3E0FEA3E0FF12A2
:101794000678A804A905AA06AB079000B8E0FEA342
:1017A400E0FFE4FCFD1205EDE47B0CFAF9F8120607
:1017B40078C374FF9FFF74FF9EE49DE49C9000BA7D
:1017C400EFF07B407A42790F78009000B2E0FCA3FE
:1017D400E0FDA3E0FEA3E0FF120678A804A905AA91
:1017E40006AB079000B8E0FEA3E0FFE4FCFD1205A1
:1017F400EDE47B0CFAF9F8120678C374FF9FFF74CA
:10180400FF9EFEE49DFDE49CFC78081207189000FE
:10181400B6E07002A3E060219000BAE0F58B8F8DF2
:10182400D28E308FFDC28FC28E9000B7E024FFF0BD
:091834009000B6E034FFF080D50D
:01183D002288
:0612380090009012072B4C
:10123E00E4F591900094E0FEA3E08EF01207AE125A
:10124E0071000112760004127E0010128600201228
:10125E008E004012960080129E010012A60200001F
:10126E000012AC53C98F803653C98F43C910802EDC
:10127E0053C98F43C920802653C98F43C930801E5E
:10128E0053C98F43C940801653C98F43C950800E2E
:10129E0053C98F43C960800653C98F43C970C2C8F2
:1012AE0043C98043C9047B407A42790F780090008D
:1012BE0090E0FCA3E0FDA3E0FEA3E0FF1206789011
:1012CE000098E0F8A3E0F9A3E0FAA3E0FB1205ED25
:1012DE00C006C007900094E0FEA3E0FBAA06E4F966
:1012EE00F8D007D006120678C3E49FFFE49E74017F
:1012FE009DE49C90009CEFF07B407A42790F780041
:10130E00900090E0FCA3E0FDA3E0FEA3E0FF120638
:10131E0078900098E0F8A3E0F9A3E0FAA3E0FB12BE
:10132E0005EDC006C007900094E0FEA3E0FBAA0600
:10133E00E4F9F8D007D006120678C3E49FFFE49EC6
:10134E00FE74019DFDE49CFC78081207189000962F
:10135E00E07002A3E0602190009CE0F5CC8FCDD22E
:10136E00CA30CFFDC2CFC2CA900097E024FFF090E2
:08137E000096E034FFF080D579
:011386002244
:0610BA0090009D12072BBF
:1010C000E4F5919000A1E024FE602124FE60252437
:1010D000FC602924F8602D24F0603124E060352480
:1010E000C06039247F703B53C4F8803653C4F84342
:1010F000C401802E53C4F843C402802653C4F8436D
:10110000C403801E53C4F843C404801653C4F84378
:10111000C405800E53C4F843C406800653C4F84384
:10112000C4077B407A42790F780090009DE0FCA3D1
:10113000E0FDA3E0FEA3E0FF1206789000A4E0F833
:10114000A3E0F9A3E0FAA3E0FB1205EDC0079000CD
:10115000A1E0FBE4FAF9F8D007120678C3E49FFF98
:10116000E49E74019DE49C9000A8EFF07B407A42DD
:10117000790F780090009DE0FCA3E0FDA3E0FEA3C2
:10118000E0FF1206789000A4E0F8A3E0F9A3E0FAEB
:10119000A3E0FB1205EDC0079000A1E0FBE4FAF923
:1011A000F8D007120678C3E49FFFE49EFE74019D09
:1011B000FDE49CFC78081207189000A2E07002A3DE
:1011C000E06074A2AF920FC2AF75C7AA75C755E4AD
:1011D000F591A20F92AF53C4EF9000A8E0F5C58F30
:1011E000C6A2AF920FC2AF75C7AA75C755E4F591F5
:1011F000A20F92AF43C408E5C430E4FBA2AF920F44
:10120000C2AF75C7AA75C755E4F591A20F92AF5347
:10121000C4EFA2AF920FC2AF75C7AA75C755F591BB
:10122000A20F92AF53C4F79000A3E024FFF0900008
:07123000A2E034FFF0808210
:011237002294
:1021C500EF14600D14600D14600E2403700DD2A978
:0C21D50022D2AB22439B8022439C0222BA
:10149800A2AF920FC2AF75C7AA75C755439F01A2E5
:1014A8000F92AFE4F591EF24F9600C14600924025F
:1014B800700875A638800375A630E4F5A775AF04E3
:1014C800A2AF920FC2AF75C7AA75C75543A401A2B0
:1014D8000F92AF85AE0805A6A2AF920FC2AF75C72F
:1014E800AA75C75543A401A20F92AF85AE09EF2490
:1014F800F8600302157DE50825E0FFE50954012F92
:10150800FF54C0F50BEF543FF50A74F22FFF75AF87
:101518000C75A601E4F5A7A2AF920FC2AFA2AF92D5
:101528000FC2AF75C7AA75C75543AA40A20F92AF9D
:1015380075C7AA75C75543A401A20F92AFE5AE645B
:101548004B600BE5AE64526005E5AEB45322E50A84
:10155800C3940F5017E50B6440600BE50B64806083
:1015680005E50BB4C00A74F22FFF800474FC2FFF4A
:10157800EFC313F50875C7AA75C75585088475C7DD
:10158800AA75C755850985A2AF920FC2AF75C7AABC
:0A15980075C755539FFEA20F92AFD6
:0115A2002226
:101FA900EF24FD6011146012240270357F021220A3
:101FB900997F02021EB57F0380117F021220997F4B
:101FC90002121EB57F041220997F04121EB5A2AF1A
:101FD900920FC2AF75C7AA75C7555397DFA20F9263
:021FE900AF2225
:10209900EF24FC601E24027028A2AF920FC2AF7514
:1020A900C7AA75C755439720A20F92AFE59620E5B9
:1020B9001080F975C7AA75C7554397C0E59630E3EF
:0220C900FB22F8
:1020F900E4F591EF24FC60182402701DA2AF920F41
:10210900C2AF75C7AA75C7555397DFA20F92AF2201
:0A21190075C7AA75C75553973F22FA
:101EB500E4F591A2AF920FC2AFEF24FD6018146054
:101EC5003924027048A2AF920FC2AF75C7AA75C771
:101ED500555396FB800FA2AF920FC2AF75C7AA7577
:101EE500C755439604A20F92AFA2AF920FC2AF752A
:101EF500C7AA75C7555396FD800FA2AF920FC2AF03
:101F050075C7AA75C755439608A20F92AFA20F923F
:021F1500AF22F9
:04225A00C109C10AEB
:1013870090000912072B90000DE014605B14607940
:10139700240260030214977598504389204387807D
:1013A700438E10A2AF920FC2AF75C7AA75C755E497
:1013B700F591A20F92AF53C4DF7B10FAF9F89000B2
:1013C70009E0FCA3E0FDA3E0FEA3E0FF120678908E
:1013D700000EE0F8A3E0F9A3E0FAA3E0FB12067819
:1013E700EFF404F58DD28E2275985043878053C44D
:1013F700F8A2AF920FC2AF75C7AA75C755E4F591AA
:10140700A20F92AF43C420800775F85075C480E4DB
:101417007B10FAF9F8900009E0FCA3E0FDA3E0FED9
:10142700A3E0FF12067890000EE0F8A3E0F9A3E02E
:10143700FAA3E0FB120678C3E49FFFE49EFE740163
:101447009DFDE49CFC78081207188FC6E47B10FA10
:10145700F9F8900009E0FCA3E0FDA3E0FEA3E0FF9C
:1014670012067890000EE0F8A3E0F9A3E0FAA3E0F3
:10147700FB120678C3E49FFFE48FC5A2AF920FC2A9
:10148700AF75C7AA75C755F591A20F92AF43C408A8
:011497002232
:10216B00C091E4F591EF14600C047012C2998D9933
:10217B0020990B80FBC2F9AF058F9A20F9FDD09106
:01218B002231
:10206400A2AF920FC2AF75C7AA75C755E4F591A286
:102074000F92AF53B1BF53B2BF90000DF0A312073C
:10208400370001C2007F007E367D6E7C011213870B
:05209400D299D20922DF
:101F6100AB07E4F591ED540FF5CEECC4F854F0C88D
:101F7100EDC4540F48F5CFEB6017A2AF920FC2AF7B
:101F810075C7AA75C755E4F591A20F92AF43E22038
:101F910022A2AF920FC2AF75C7AA75C755E4F591DA
:081FA100A20F92AF53E2DF2210
:1021FC00E4F59153E18FEF5407C454F042E153E2FC
:09220C00F1ED540725E042E22245
:101DD700A2AF920FC2AF75C7AA75C755439F01A29D
:101DE7000F92AF75AF0475A60DE4F5A7A2AF920FDA
:101DF700C2AF75C7AA75C75543A401A20F92AFE535
:101E0700AE540FFD75A60CE4F5A7A2AF920FC2AFB3
:101E170075C7AA75C75543A401A20F92AFAFAEEF1E
:101E270075F010A47C002DFFEC35F0FEA2AF920FE9
:0F1E3700C2AF75C7AA75C755539FFEA20F92AFD2
:011E46002279
:101CAD00A2AF920FC2AF75C7AA75C755E4F591A241
:101CBD000F92AF53E8F043E806A2AF920FC2AF7593
:101CCD00C7AA75C755F591A20F92AF43B10853B28C
:101CDD00F7F5F643F64043E101A2AF920FC2AF759F
:101CED00C7AA75C755F591A20F92AFC2EFA2AF92D9
:101CFD000FC2AF75C7AA75C755F591A20F92AFD296
:101D0D00EE30EFFDAFC37E00EFC4F8540FC868FF8F
:101D1D00EEC454F048FEE5C2540FFDEF4DFFA2AFE7
:101D2D00920FC2AF75C7AA75C755E4F591A20F9270
:041D3D00AF53E1FEC1
:011D4100227F
:101D4200A2AF920FC2AF75C7AA75C755E4F591A2AB
:101D52000F92AF53E8F043E807A2AF920FC2AF75FC
:101D6200C7AA75C755F591A20F92AF43B30253B4F8
:101D7200FDF5F643F68043E101A2AF920FC2AF75C3
:101D8200C7AA75C755F591A20F92AFC2EFA2AF9243
:101D92000FC2AF75C7AA75C755F591A20F92AFD200
:101DA200EE30EFFDAFC37E00EFC4F8540FC868FFFA
:101DB200EEC454F048FEE5C2540FFDEF4DFFA2AF52
:101DC200920FC2AF75C7AA75C755E4F591A20F92DB
:041DD200AF53E1FE2C
:011DD60022EA
:03000000021C13CC
:101C1300787FE4F6D8FD9000007FFF7E08E4F0A310
:0A1C2300DFFCDEFA758190021C68F8
:10000300EC4D6011E8497017ED33EC3304600DE4F7
:10001300FCFFFEFD22E933E8330470F80201F51218
:1000230001C058046009E4CC248150062850090219
:1000330001FF2840030201FCC0E0EB4A7044B98091
:1000430006D0E0FB0201EBEF4E701CBD8008EBFF16
:10005300EAFEE9FD80EBE98DF0A4FEE5F00200EC99
:10006300E9CDF9EAFEEBFFEF89F0A4FCE5F0CE89D8
:10007300F0A42EFFE435F0CD89F0A42DFEE435F095
:100083008067EF4E7005BD80D780C3EF8BF0A4ACC3
:10009300F0EE8BF0A42CFCE435F0F8EF8AF0A42CFE
:1000A300E5F038FCE433CB8DF0A42CFCE5F03BF811
:1000B300EE8AF0A42CFCE5F038F8E433CF89F0A401
:1000C3002CFCE5F038CF3400CE89F0A42FFFE5F007
:1000D3003EFEE433C98DF0A42EFEE5F039CD8AF05F
:1000E300A42FFFE5F03EFEE43DFD33D0E0FB5007D7
:1000F3000BBB000F0201FFEC2CFCEF33FFEE33FED2
:06010300ED33FD0201D7FF
:1001090074F8CC6480CCC86480C8F58204604FC39D
:10011900EB9FF5F0EA9E42F0E99D42F0E89C45F03C
:10012900603C501DE5825FFFE582D313CB5BCBF4C6
:100139002B5582FB50280ABA002409B900200880EF
:100149001DE5825BFBE582D313CF5FCFF4C3132F89
:100159005582FF50090EBE00050DBD00010CC3EB11
:100169009FF5F0EA9E42F0E99D42F0E89C45F06077
:0901790007CC4820E701B3EC2299
:1001820075F020800E75F010800575F0087D007EF8
:10019200007F003392D530D50312070AEC334010AA
:1001A200EF33FFEE33FEED33FDEC33FCD5F0ED2201
:0E01B200E5F0247EA2D513CC92E7CDCEFF223D
:1007DB00E508240CF582E43400F583E0050822904B
:1007EB00000930070390000CE475F0011207680252
:1007FB0005542000E97F2ED2008018EF540F24906F
:10080B00D43440D4FF30040BEF24BFB41A00500390
:10081B002461FFE50960021509050CE50C70020562
:10082B000B30070E900009E475F001120768EF0218
:10083B00059A0221237403D2078003E4C207F5084B
:10084B0090000912077FE4F509F50BF50CE509603B
:10085B00077F2012081E80F5750AFFC201C200C275
:10086B0002C203C205C206C2081207EAFF700D30AE
:10087B0007057F0012082FAF0CAE0B22B4255FC209
:10088B00D5C2041207EAFF24D0B40A00501A75F03F
:10089B000A780930D50508B6FF0106C6A426F6204E
:1008AB00D5047002D20380D924CFB41A00EF5004C0
:1008BB00C2E5D204020B21D20180C6D20080C0D285
:1008CB000280BCD2D580BAD20580B47F2012081E1C
:1008DB002002077401B5090040F11207DBFF120873
:1008EB001E020858D208D20680951207DBFB1207AE
:1008FB00DBFA1207DBF94A4B7006791F7A0C7BFF88
:10090B0020022EE509602A7E008E82758300120577
:10091B006D60060EEE650A70F0C2D5EBC0E0EAC062
:10092B00E0E9C0E0EE120B82D0E0F9D0E0FAD0E0C3
:10093B00FB120554FF60AAEBC0E0EAC0E0E9C0E09F
:10094B0012081ED0E02401F9D0E03400FAD0E0FB0D
:10095B00E50A0460DCD50AD98087D20280A2120B8B
:10096B006460F7E50A70010412020AA90A600DE53A
:10097B000A600914F50A120C0CEF60F3EA30E70277
:10098B00F404C3995079EAF4250A0430E701E4042E
:10099B00F50A800D120B6460C1EA050A250A1202E2
:1009AB000AEA900038F030E701E4250A04D50A047E
:1009BB0020050114120B82E4C0E0120C0C900038DD
:1009CB00E0601320E70714F0120806802204F0D031
:1009DB00E014C0E07F00120806E50A60071207FD6D
:1009EB00150A800B3005031207FDD0E0020858D022
:1009FB00E00480C4120B64609EE50A0412020A90A4
:100A0B000038EAF0E50A2005026001042404120B09
:010A1B008258
:100A1C0074FF04C0E0120C0C120806E50A20050253
:100A2C0060031207FDD0E0B50AE87F45120810906C
:100A3C000038E07F2B30E7047F2DF404C0E012086F
:100A4C001ED0E075F00A84C0F0120807D0E012083E
:100A5C0007020858791080027908C206C20880087B
:100A6C00D2D5790A8004790AC2D5E50A047002F558
:100A7C000AE4FAFDFEFF1207DBFC7B0820011312CF
:100A8C0007DBFD7B1030000A1207DBFE1207DBFFD1
:100A9C007B20EC3382D592D55013C3E43000069FF3
:100AAC00FFE49EFEE42001039DFDE49CFCE4CBF8F6
:100ABC00C201EC700CCFCECDCCE824F8F870F380EA
:100ACC0017C3EF33FFEE33FEED33FDEC33FCEB33AA
:100ADC00FB994002FB0FD8E9EB300105F8D0E0C4DC
:100AEC0048B201C0E00AEC4D4E4F78207B0070C23A
:100AFC00EAB50A0040BCC0E0120B84D0F0D0E02074
:100B0C000104C4C0E0C4B201C0F0120807D0F0D593
:100B1C00F0EB02085812078808F5530A605808C60B
:100B2C004C08C2420A644F0A6C440A6C4908DB4305
:100B3C000A7255099F4609FF450969470C3F500841
:100B4C00CA2D08CE2E08F12B08D22308EF200C2832
:100B5C002A088A48000008E9E50AB4FF03750A066A
:100B6C001207DBFC1207DBFD1207DBFE1207DBFFB3
:100B7C00900031020247790AA2D5200314300509EE
:100B8C00B910020404B9080104A2D52006025001D0
:100B9C00042002689202B509005034C0E07F203076
:100BAC0003197F30A20272067205500F120BDBC2C2
:100BBC0002C206C205C2087F30800F300503E9C0AF
:100BCC00E012081E300503D0E0F9D0E0B509CC30B6
:100BDC0005177F30B9100C12081E7F583004077FA0
:100BEC00788003B9080312081E3002057F2D020815
:100BFC001E7F202008F87F2B2006F322920280CF44
:100C0C007F00B40700500B2431F582E43400F583E7
:100C1C00E0FF22286E756C6C2900D2011207DB30C4
:100C2C0001F8C201780930D50108F602088A2D5066
:100C3C004349581207DB2403B405004001E4900C2F
:100C4C003A9312080F743A12080FD2037509040272
:020C5C000A602C
:1001C000E9D2E7C933E833F892D5EDD2E7CD33EC85
:0701D00033FC5002B2D522FE
:1001D700EC30E7100FBF000C0EBE00080DBD000489
:1001E7000BEB6014A2D5EB13FCED92E7FD2274FF35
:1001F700FCFDFEFF22E480F8A2D574FF13FC7D808E
:03020700E480EFA1
:10020A00F920E73624F950037907E4F42402FBE5E0
:10021A0082158270021583DBF6E024FB501BE9602D
:10022A0014E4F0E582158270021583E004F0B40A42
:0D023A0008E4F0D9EE7401F00A22C2D522CA
:10024700ED33EC3392D5FA602AB4FF33EDC2E77B86
:10025700FF60067A02796CE4227A02797520D50468
:100267007A027970224E614E002B494E46002D4985
:100277004E4600E47A08F0A3DAFC7B00740722C03C
:1002870083C082ECC0E0EDC0E0EEC0E0EFC0E0EA82
:1002970075F010A4CAABF075F04DA42BFBE435F054
:1002A700FCEA2410FAEB34C5FBEC34D9FCEDC2E7C9
:1002B700FF75F056A4F42411C5F0F434C58FF0A4EB
:1002C7002AE5F03BE43CF020E714120514D0E0FFE8
:1002D700D0E0FED0E0FDD0E0FC1204478014F40427
:1002E700120514D0E0FFD0E0FED0E0FDD0E0FC1214
:1002F7000003D082D083E0FAEDD2E7CD33EC33248C
:1003070082FBE4C3CF33CFCE33CECD33CD33DBF354
:100317007B0775F00A846004F0A31B0AE5F0F0A3DD
:100327008FF0740AA4FFACF08EF0740AA42CFEAC14
:10033700F050010C8DF0740AA42CFDE435F0F0A305
:05034700DBDE7407225B
:10034C000201F5E86480F8E933E83360110460F0E9
:10035C00ED33EC337009E8FCE9FDEAFEEBFF220417
:10036C0060DED3EB9FEA9EE99DE8C2E78CF0C2F712
:10037C0095F0400CE8CCF8E9CDF9EACEFAEBCFFBDE
:10038C001201C085D0F05804700320D5B3E8047076
:10039C00075002B2D50201FF92D5EC0460F7E4CC11
:1003AC00C0E0C398F8603B94186008400DD0E0FBA7
:1003BC000201D7E4FBFAC9FC8028E830E406E4C962
:1003CC00FBE4CAFCE830E305E4C9CACBFCE85407FB
:1003DC006010F8C3E913F9EA13FAEB13FBEC13FC06
:1003EC00D8F130F52FC3E49CFCEF9BFFEE9AFEEDA9
:1003FC0099FDD0E0FBEF4E4D4C701222DB03020155
:10040C00FCEC2CFCEF33FFEE33FEED33FDED30E76F
:10041C00EB0201D7EF2BFFEE3AFEED39FDD0E0FBFE
:10042C0050130BBB00030201FFED13FDEE13FEEFA7
:08043C0013FFEC13FC0201D7D1
:100444000201FFEC5D046005E8590470030201F544
:100454001201C0580460F6EC4860F2EC7004FDFE32
:10046400FF22C860DB2481C85009C398600250068B
:100474000201FC9850CAF582E9294B4A7005AB8207
:100484000201EB75F0007C1A7880C3EF9BEE9AEDC5
:1004940099400DC3EF9BFFEE9AFEED99FDE842F003
:1004A400DC23ACF0D0E0FFD0E0FED0E0FDAB822056
:1004B400E7101BEB60BAEC2CFCEF33FFEE33FEEDE0
:1004C40033FD0201D7E803F830E705C0F075F0000A
:1004D400EF2FFFEE33FEED33FD40B830E7C280AAC4
:1004E4003F8000004120000042C80000447A000020
:1004F400461C400047C35000497424004B189680A2
:100504004CBEBC205A0E1BCA6753C21C749DC5AE98
:10051400FB60065407601C2323120542EB54386029
:100524000912052E12053D120003ECF8EDF9EEFA5E
:10053400EFCB22EB12053D80F1543803241C9004C8
:10054400E4FE93FC0EEE93FD0EEE930ECE93FF228B
:101C2D00020C5EE493A3F8E493A34003F68001F263
:101C3D0008DFF48029E493A3F85407240CC8C333B8
:101C4D00C4540F4420C8834004F456800146F6DF87
:101C5D00E4800B0102040810204080902254E47EA1
:101C6D00019360BCA3FF543F30E509541FFEE4937C
:101C7D00A360010ECF54C025E060A840B8E493A343
:101C8D00FAE493A3F8E493A3C8C582C8CAC583CA6E
:101C9D00F0A3C8C582C8CAC583CADFE9DEE780BE26
:01225E00007F
:10055400BB010689828A83E0225002E722BBFE02A5
:09056400E32289828A83E49322D8
:10056D00BB010CE58229F582E5833AF583E0225043
:10057D0006E92582F8E622BBFE06E92582F8E2228D
:0D058D00E58229F582E5833AF583E49322A7
:10059A00BB010689828A83F0225002F722BBFE0140
:0205AA00F3223A
:1005AC00F8BB010DE58229F582E5833AF583E8F085
:1005BC00225006E92582C8F622BBFE05E92582C831
:0205CC00F22219
:1005CE00BB010A89828A83F0E5F0A3F0225006F778
:0F05DE0009A7F01922BBFE06F3E5F009F3192275
:1005ED00E88FF0A4CC8BF0A42CFCE98EF0A42CFCAD
:1005FD008AF0EDA42CFCEA8EF0A4CDA8F08BF0A42B
:10060D002DCC3825F0FDE98FF0A42CCD35F0FCEB89
:10061D008EF0A4FEA9F0EB8FF0A4CFC5F02ECD394E
:0F062D00FEE43CFCEAA42DCE35F0FDE43CFC22BB
:10063C0075F008758200EF2FFFEE33FECD33CDCC75
:10064C0033CCC58233C5829BED9AEC99E5829840F8
:10065C000CF582EE9BFEED9AFDEC99FC0FD5F0D6D5
:10066C00E4CEFBE4CDFAE4CCF9A88222B800C1B9FF
:10067C000059BA002DEC8BF084CFCECDFCE5F0CB3D
:10068C00F97818EF2FFFEE33FEED33FDEC33FCEB76
:10069C0033FB10D703994004EB99FB0FD8E5E4F931
:1006AC00FA227818EF2FFFEE33FEED33FDEC33FC1E
:1006BC00C933C910D7059BE99A4007EC9BFCE99A12
:1006CC00F90FD8E0E4C9FAE4CCFB2275F010EF2F57
:1006DC00FFEE33FEED33FDCC33CCC833C810D70757
:1006EC009BEC9AE899400AED9BFDEC9AFCE899F892
:0E06FC000FD5F0DAE4CDFBE4CCFAE4C8F92225
:0E070A00C3E49FFFE49EFEE49DFDE49CFC2200
:10071800E8600FECC313FCED13FDEE13FEEF13FFBF
:03072800D8F122E3
:0C072B00ECF0A3EDF0A3EEF0A3EFF02241
:10073700A8828583F0D083D08212074E12074E120B
:10074700074E12074EE473E493A3C583C5F0C58330
:10075700C8C582C8F0A3C583C5F0C583C8C582C80C
:01076700226F
:10076800F8E0FBA3A3E0F925F0F0E582158270021A
:070778001583E0FA38F022BE
:09077F00EBF0A3EAF0A3E9F0227B
:10078800D083D082F8E4937012740193700DA3A300
:1007980093F8740193F5828883E473740293686014
:0607A800EFA3A3A380DF14
:1007AE00D083D082F8E4937012740193700DA3A3DA
:1007BE0093F8740193F5828883E473740293B5F011
:0D07CE00067403936860E9A3A3A3A380D879
:10212300EFB40A07740D12212E740A309811A8997E
:10213300B8130CC2983098FDA899C298B811F6301C
:0721430099FDC299F59922F4
:00000001FF
