:10174C0052464944206973207374617274696E67E0
:10175C000D0A002E2E2E2E2E2E496E697469616C88
:10176C00697A6174696F6E0A006C657427732067FF
:10177C006F0D0A0020554944203A203078257820F6
:10178C0030782578203078257820307825782030EE
:07179C00782578200D0A00FA
:041A8E00410076009D
:100CDB00A2AF920EC2AF75C7AA75C755E4F591A224
:100CEB000E92AFF5B1F5B2F5B3F5B4F5ACF5AD7F4A
:100CFB0006120BD0A2AF920EC2AF75C7AA75C7551D
:100D0B00E4F591A20E92AF53B1BF53B2BF90000462
:100D1B0004F0A31205240001C2007F007E367D6E15
:100D2B007C01120ABFD299D209120DD87BFF7A1718
:100D3B00794C12006E7BFF7A17795F12006E7FB8C9
:100D4B007E0B1219681218777FD07E071219687BF9
:100D5B00FF7A17797512006E900004E4F0A374C843
:100D6B00F0A37401F0A374F4F07F007E367D6E7CEB
:100D7B0001120ED37B017A0079777F2612167C90B5
:100D8B000076EFF07B017A00797712107390007682
:100D9B00EFF070C47BFF7A177980A3E0900003F02B
:100DAB00900078E0900004F0900079E0900005F05E
:100DBB0090007AE0900006F090007BE0900007F046
:0D0DCB0090007CE0900008F012006E808B1C
:10196800E4FDFCE4FBFAC3EB9FEE6480F8EA6480D4
:101978009850070BBB00010A80EC0DBD00010CBCA0
:0519880005E1BD10DEC9
:01198D002237
:06198E00120368FD7F0951
:10199400900019EDF0C295EF25E0547EFF121A83F2
:0B19A400900019E0FF121A83D2952278
:1019D000C295EF25E0547E4480FF121A83900019CF
:0C19E000E0FF121A6A900019EFF0D29597
:0119EC0022D8
:0A1A2500900018EDF0900017EFF0AC
:101A2F001219D0AE07900017E0FFA3E04EFD021988
:011A3F009412
:0A19ED00900018EDF0900017EFF0E5
:1019F7001219D0AE07900017E0FFA3E0F45EFD02D6
:021A0700199430
:101A59007F141219D07D037F14121A257F370219BA
:011A6900D0AC
:071AB1007D037F140219ED13
:071AB8007D0F7F010219946C
:10187700C295D297121AB87D8D7F2A1219947D3E90
:101887007F2B1219947D1E7F2D121994E4FD7F2C56
:101897001219947D407F151219947D3D7F111219FD
:0918A700947F371219D0021A597E
:1005E10090000AF0A37401F0A37400F0A37444F026
:1005F100A37401F0A37400F0A37442F07A0079446B
:040601007B017F0CEE
:10060500900007EBF0A3EAF0A3E9F0900006EFF005
:100615009000117402F0E4A3F0A3F0EF24F460104D
:1006250024FE70169000127412F0A37410F0800A64
:100635009000127477F0A37430F0900012E04480BB
:10064500FD7F021219947D807F041219ED7D807F54
:100655000A121A25E4FD7F01121994E4900015F0A1
:10066500A3F090000AE0FF900015E0FCA3E0FDC3B5
:100675009FEC94005022900007E0FBA3E0FAA3E072
:10068500F98D828C8312198E900016E004F070D2D9
:10069500900015E004F080CA900006E0FD7F01128D
:1006A5001994900006E0B40C077D807F0D121A2581
:1006B5009000157407F0A374D0F07F041219D09040
:1006C5000014EFF0900016E024FFF0900015E034E0
:1006D500FFF0E07002A3E06011900014E0FF20E05D
:1006E50009900013E0FEEF5E60D07D807F0D12194A
:1006F500ED900015E07002A3E070030207EC7F06A1
:100705001219D0EF541B60030207E6900011F0A305
:10071500E0FF900014E05F30E0069000117401F0F6
:10072500900006E0640C60030207EC7F0A1219D002
:10073500900014EFF07F0C1219D0EF5407FD6029DB
:10074500900014E024FFFFE434FFFEEF7803C33389
:10075500CE33CED8F97C002DFFEC3EF990000EE0AB
:10076500FBA3E0FAA3E0C98016900014E075F00839
:10077500A4FF90000EE0FBA3E0FAA3E0F9E5F08FFB
:10078500F01203C9900014E0700204F0900014E028
:10079500D3941040037410F0E4900015F0A3F0908A
:1007A5000014E0FFC3900016E09F900015E0940050
:1007B50050357F091219D090000BE0FBA3E0FAA396
:1007C500E0F9900015E0FCA3E0F5828C83EF1203BD
:1007D500A7900016E004F070C6900015E004F080C4
:0C07E500BE9000117402F0900011E0FFC3
:0107F10022E5
:0E167C00900000EFF0A3EBF0A3EAF0A3E9F07A
:10168A007D077F0D121994900000E0FFA3E0FBA3F1
:10169A00E0FAA3E0F9EF12039590000A7401F090C2
:1016AA000001E0F9A3E0FAA3E090000BC9F0A3EA75
:1016BA00F0A3E9F0A37401F0A37400F0A37404F09A
:1016CA00900001E0FBA3A3E0F97F0C120605EF707E
:0F16DA000C900004E07004A3E0641060027F0233
:0116E90022DE
:0B107300900000EBF0A3EAF0A3E9F00E
:10107E00E4A3F0FD7F0D121994900000E0FBA3E0B5
:10108E00FAA3E0F97493120395900000E0FBA3E03D
:10109E00FAA3E0F990000174201203A7C002C00168
:1010AE0090000A7402F0900000E0F9A3E0FAA3E0C9
:1010BE0090000BC9F0A3EAF0A3E9F0A37401F0A32A
:1010CE007400F0A37404F0D001D0027F0C12060558
:1010DE00AC07EC7044FD900003E0FF900000E0FBD5
:1010EE00A3E0FAA3E0F98D82758300120368FEEF88
:1010FE006E900003F00DEDB404DC900000E0FBA355
:10110E00E0FAA3E0F9AF058F82758300120368FF42
:0B111E00900003E06F60027C02AF0451
:0111290022A3
:061314007B017A00794420
:0E131A00900093EBF0A3EAF0A3E9F0A3EDF04E
:101328007D047F051219ED7D807F0A121A25E4904D
:10133800009AF0900096E0FF90009AE0FEC39F505C
:101348001B900093E0FBA3E0FAA3E0F98E8275837B
:101358000012198E90009AE004F080D77D037F0177
:1013680012199490009A74FFF07F051219D090001A
:101378009AE014F0E06004EF30E2EE7F221219D018
:10138800900097E0FBA3E0FAA3E0F9EF1203957F42
:10139800211219D0900097E0FBA3E0FAA3E0F9909E
:0613A8000001EF0203A7A3
:0B13AE00900056EBF0A3EAF0A3E9F07A
:1013B90090005C7493F0A37470F0E4FF900056E021
:1013C900FBA3E0FAA3E0F98F82758300120368FE9C
:1013D900745E2FF582E43400F583EEF00FEFB40567
:1013E900DB9000977401F0A37400F0A37463F07BA1
:1013F900017A00795C7D0712131A90000A7409F0CA
:10140900A37401F0A37400F0A3745CF0A37401F059
:10141900A37400F0A3745AF07A00795C120601EF04
:10142900701290005AE07004A3E0641870069000EE
:0E1439005CE08001E4900059F0900059E0FF63
:011447002282
:0B112A0090002AEBF0A3EAF0A3E9F02C
:10113500900033EFF0A3EDF0E4FF90002AE0FBA36D
:10114500E0FAA3E0F98F82758300120368FE743517
:101155002FF582E43400F583EEF00FEFB406DBE4FF
:10116500FF90002DE0FBA3E0FAA3E0F98F827583E1
:1011750000120368FE743B2FF582E43400F583EE1C
:10118500F00FEFB404DB90000A740CF0A37401F0C7
:10119500A37400F0A37433F0A37401F0A37400F0FA
:1011A500A37431F07B017A0079337F0E1206059026
:1011B5000030EFF070097F081219D0EF20E3069098
:0A11C50000307402F0900030E0FFEB
:0111CF0022FD
:0B1274009000A1EBF0A3EAF0A3E9F06A
:10127F009000A1E0FBA3E0FAA3E0F974301203950C
:10128F009000A1E0FBA3E0FAA3E0F9900001EF12B8
:10129F0003A7C003C002C0019000A1E0FBA3E0FAC6
:1012AF00A3E02402F9E43AFA900097EBF0A3EAF0F6
:1012BF00A3E9F0D001D002D0037D0212131A9000DF
:1012CF000A7404F09000A1E0F9A3E0FAA3E0900003
:1012DF000BC9F0A3EAF0A3E9F0A37401F0A3740023
:1012EF00F0A374A4F09000A1E0FBA3A3E0F97F0C9E
:1012FF00120605EF700C9000A4E07004A3E0649058
:04130F0060027F02F7
:0113130022B7
:0B11D00090003FEBF0A3EAF0A3E9F071
:1011DB0090004474A0F0A3EFF09000977401F0A37B
:1011EB007400F0A37446F07D0212131474041205FC
:1011FB00E1EF7016900042E07004A3E06404700A03
:10120B00900044E0540F640A60027F02EF7059FEB5
:10121B0090003FE0FBA3E0FAA3E0F98E8275830018
:10122B00120368FD74442EF582E43400F583EDF06F
:10123B000EEEB410DB9000977401F0A37400F0A3D2
:10124B007454F07D1012131474121205E1EF701622
:10125B00900042E07004A3E06404700A900044E044
:08126B00540F640A60027F02C7
:011273002258
:1017A30090009D7450F0E4A3F07B0190009704F047
:1017B300A37400F0A3749FF07A00799D7D02121345
:1017C3001A90000A7404F0A37401F0A37400F0A348
:1017D300749DF0A37401F0A37400F0A3749BF07BD9
:0A17E300017A00799D7F0C020605D3
:100DD800A2AF920EC2AF75C7AA75C755E4F591A226
:100DE8000E92AF53B3DF53B4DFA2AF920EC2AF750A
:100DF800C7AA75C755F591A20E92AF53B3FE53B467
:100E0800FEA2AF920EC2AF75C7AA75C755F591A2DB
:100E18000E92AF53B1FE53B2FEA2AF920EC2AF759F
:100E2800C7AA75C755F591A20E92AF53B1FD53B23B
:100E3800FD43F408A2AF920EC2AF75C7AA75C75595
:100E4800F591A20E92AF53F37FA2AF920EC2AF7587
:100E5800C7AA75C755F591A20E92AF53F3DFA2AF9B
:100E6800920EC2AF75C7AA75C755F591A20E92AF7B
:100E780053F3F7A2AF920EC2AF75C7AA75C755F55F
:100E880091A20E92AF53F3FBA2AF920EC2AF75C7F9
:100E9800AA75C755F591A20E92AF43F310A2AF926F
:100EA8000EC2AF75C7AA75C755F591A20E92AF537A
:100EB800F3FCA2AF920EC2AF75C7AA75C755F591DC
:0B0EC800A20E92AF43F34053F47F22D0
:0B1A83008FF5E5F430E7FB53F47F2201
:0C1A6A008FF5E5F430E7FBAFF553F47F97
:011A7600224D
:041AA9008F828E8317
:031AAD00E493FFC0
:011AB0002213
:0B1A7700EF448075C7AA75C755F59FA6
:011A82002241
:091A9700300C0543870200002217
:091AA000300D054387010000220E
:060ED3009000001205185A
:100ED900538EF75389F04389017B407A42790F7821
:100EE90000900000E0FCA3E0FDA3E0FEA3E0FF12F8
:100EF9000473A804A905AA06AB07900006E0FEA39F
:100F0900E0FFE4FCFD1203E8E47B0CFAF9F81204B3
:100F190073C374FF9FFF74FF9EE49DE49C900008D7
:100F2900EFF07B407A42790F7800900000E0FCA353
:100F3900E0FDA3E0FEA3E0FF120473A804A905AA3B
:100F490006AB07900006E0FEA3E0FFE4FCFD1203F8
:100F5900E8E47B0CFAF9F8120473C374FF9FFF7479
:100F6900FF9EFEE49DFDE49CFC78081205059000B7
:100F790004E07002A3E06021900008E0F58A8F8CFC
:100F8900D28C308DFDC28DC28C900005E024FFF01B
:090F9900900004E034FFF080D563
:010FA200222C
:060FA30090008A120518FF
:100FA900538EEF53890F4389107B407A42790F782A
:100FB9000090008AE0FCA3E0FDA3E0FEA3E0FF129D
:100FC9000473A804A905AA06AB07900090E0FEA344
:100FD900E0FFE4FCFD1203E8E47B0CFAF9F81204E3
:100FE90073C374FF9FFF74FF9EE49DE49C9000927D
:100FF900EFF07B407A42790F780090008AE0FCA3F9
:10100900E0FDA3E0FEA3E0FF120473A804A905AA6A
:1010190006AB07900090E0FEA3E0FFE4FCFD12039D
:10102900E8E47B0CFAF9F8120473C374FF9FFF74A8
:10103900FF9EFEE49DFDE49CFC78081205059000E6
:101049008EE07002A3E06021900092E0F58B8F8D15
:10105900D28E308FFDC28FC28E90008FE024FFF0B8
:0910690090008EE034FFF080D508
:01107200225B
:060970009000651205185D
:10097600E4F591900069E0FEA3E08EF012055509BA
:10098600A9000109AE000409B6001009BE0020093D
:10099600C6004009CE008009D6010009DE0200002B
:1009A6000009E453C98F803653C98F43C910802E7E
:1009B60053C98F43C920802653C98F43C930801E2F
:1009C60053C98F43C940801653C98F43C950800EFF
:1009D60053C98F43C960800653C98F43C970C2C8C3
:1009E60043C98043C9047B407A42790F780090005E
:1009F60065E0FCA3E0FDA3E0FEA3E0FF1204739014
:100A0600006DE0F8A3E0F9A3E0FAA3E0FB1203E827
:100A1600C006C007900069E0FEA3E0FBAA06E4F961
:100A2600F8D007D006120473C3E49FFFE49E740156
:100A36009DE49C900071EFF07B407A42790F78003C
:100A4600900065E0FCA3E0FDA3E0FEA3E0FF120436
:100A56007390006DE0F8A3E0F9A3E0FAA3E0FB12BF
:100A660003E8C006C007900069E0FEA3E0FBAA0603
:100A7600E4F9F8D007D006120473C3E49FFFE49E9E
:100A8600FE74019DFDE49CFC780812050590006B40
:100A9600E07002A3E06021900071E0F5CC8FCDD22A
:100AA600CA30CFFDC2CFC2CA90006CE024FFF090DE
:080AB600006BE034FFF080D575
:010ABE002215
:0607F20090007E120518C4
:1007F800E4F591900082E024FE602124FE60252427
:10080800FC602924F8602D24F0603124E060352450
:10081800C06039247F703B53C4F8803653C4F84312
:10082800C401802E53C4F843C402802653C4F8433D
:10083800C403801E53C4F843C404801653C4F84349
:10084800C405800E53C4F843C406800653C4F84355
:10085800C4077B407A42790F780090007EE0FCA3C1
:10086800E0FDA3E0FEA3E0FF120473900085E0F82A
:10087800A3E0F9A3E0FAA3E0FB1203E8C0079000A5
:1008880082E0FBE4FAF9F8D007120473C3E49FFF8F
:10089800E49E74019DE49C900089EFF07B407A42CD
:1008A800790F780090007EE0FCA3E0FDA3E0FEA3B2
:1008B800E0FF120473900085E0F8A3E0F9A3E0FAE2
:1008C800A3E0FB1203E8C007900082E0FBE4FAF91A
:1008D800F8D007120473C3E49FFFE49EFE74019DE1
:1008E800FDE49CFC7808120505900083E07002A3E3
:1008F800E06074A2AF920EC2AF75C7AA75C755E47F
:10090800F591A20E92AF53C4EF900089E0F5C58F20
:10091800C6A2AF920EC2AF75C7AA75C755E4F591C6
:10092800A20E92AF43C408E5C430E4FBA2AF920E16
:10093800C2AF75C7AA75C755E4F591A20E92AF5319
:10094800C4EFA2AF920EC2AF75C7AA75C755F5918D
:10095800A20E92AF53C4F7900084E024FFF09000F9
:0709680083E034FFF0808200
:01096F002265
:101A0900EF14600D14600D14600E2403700DD2A93B
:0C1A190022D2AB22439B8022439C02227D
:100BD000A2AF920EC2AF75C7AA75C755439F01A2B7
:100BE0000E92AFE4F591EF24F9600C146009240231
:100BF000700875A638800375A630E4F5A775AF04B4
:100C0000A2AF920EC2AF75C7AA75C75543A401A281
:100C10000E92AF85AE0805A6A2AF920EC2AF75C701
:100C2000AA75C75543A401A20E92AF85AE09EF2461
:100C3000F86003020CB5E50825E0FFE50954012F33
:100C4000FF54C0F50BEF543FF50A74F22FFF75AF58
:100C50000C75A601E4F5A7A2AF920EC2AFA2AF92A7
:100C60000EC2AF75C7AA75C75543AA40A20E92AF70
:100C700075C7AA75C75543A401A20E92AFE5AE642D
:100C80004B600BE5AE64526005E5AEB45322E50A55
:100C9000C3940F5017E50B6440600BE50B64806054
:100CA00005E50BB4C00A74F22FFF800474FC2FFF1B
:100CB000EFC313F50875C7AA75C75585088475C7AE
:100CC000AA75C755850985A2AF920EC2AF75C7AA8E
:0A0CD00075C755539FFEA20E92AFA8
:010CDA0022F7
:10183500EF24FD6011146012240270357F02121826
:10184500E57F020216EA7F0380117F021218E57F09
:10185500021216EA7F041218E57F041216EAA2AFF7
:10186500920EC2AF75C7AA75C7555397DFA20E92E0
:02187500AF22A0
:1018E500EF24FC601E24027028A2AF920EC2AF75D1
:1018F500C7AA75C755439720A20E92AFE59620E576
:101905001080F975C7AA75C7554397C0E59630E3AA
:02191500FB22B3
:10191700E4F591EF24FC60182402701DA2AF920E2B
:10192700C2AF75C7AA75C7555397DFA20E92AF22EC
:0A19370075C7AA75C75553973F22E4
:1016EA00E4F591A2AF920EC2AFEF24FD6018146028
:1016FA003924027048A2AF920EC2AF75C7AA75C745
:10170A00555396FB800FA2AF920EC2AF75C7AA754A
:10171A00C755439604A20E92AFA2AF920EC2AF75FE
:10172A00C7AA75C7555396FD800FA2AF920EC2AFD6
:10173A0075C7AA75C755439608A20E92AFA20E9214
:02174A00AF22CC
:041A9200C109C10ABB
:100ABF00900000120518900004E014605B14607938
:100ACF0024026003020BCF7598504389204387801F
:100ADF00438E10A2AF920EC2AF75C7AA75C755E469
:100AEF00F591A20E92AF53C4DF7B10FAF9F8900084
:100AFF0000E0FCA3E0FDA3E0FEA3E0FF120473906F
:100B0F000005E0F8A3E0F9A3E0FAA3E0FB120473F9
:100B1F00EFF404F58DD28E2275985043878053C41D
:100B2F00F8A2AF920EC2AF75C7AA75C755E4F5917B
:100B3F00A20E92AF43C420800775F85075C480E4AD
:100B4F007B10FAF9F8900000E0FCA3E0FDA3E0FEB3
:100B5F00A3E0FF120473900005E0F8A3E0F9A3E00F
:100B6F00FAA3E0FB120473C3E49FFFE49EFE74013B
:100B7F009DFDE49CFC78081205058FC6E47B10FAF6
:100B8F00F9F8900000E0FCA3E0FDA3E0FEA3E0FF76
:100B9F00120473900005E0F8A3E0F9A3E0FAA3E0D4
:100BAF00FB120473C3E49FFFE48FC5A2AF920EC282
:100BBF00AF75C7AA75C755F591A20E92AF43C4087A
:010BCF002203
:1019AF00C091E4F591EF14600C047012C2998D99F7
:1019BF0020990B80FBC2F9AF058F9A20F9FDD091CA
:0119CF0022F5
:1018B000A2AF920EC2AF75C7AA75C755E4F591A243
:1018C0000E92AF53B1BF53B2BF900004F0A3120504
:1018D000240001C2007F007E367D6E7C01120ABFAB
:0518E000D299D209229B
:1017ED00AB07E4F591ED540FF5CEECC4F854F0C809
:1017FD00EDC4540F48F5CFEB6017A2AF920EC2AFF8
:10180D0075C7AA75C755E4F591A20E92AF43E220B4
:10181D0022A2AF920EC2AF75C7AA75C755E4F59156
:08182D00A20E92AF53E2DF228C
:101A4000E4F59153E18FEF5407C454F042E153E2BF
:091A5000F1ED540725E042E22209
:10160C00A2AF920EC2AF75C7AA75C755439F01A270
:10161C000E92AF75AF0475A60DE4F5A7A2AF920EAE
:10162C00C2AF75C7AA75C75543A401A20E92AFE508
:10163C00AE540FFD75A60CE4F5A7A2AF920EC2AF87
:10164C0075C7AA75C75543A401A20E92AFAFAEEFF2
:10165C0075F010A47C002DFFEC35F0FEA2AF920EBD
:0F166C00C2AF75C7AA75C755539FFEA20E92AFA6
:01167B00224C
:1014E200A2AF920EC2AF75C7AA75C755E4F591A215
:1014F2000E92AF53E8F043E806A2AF920EC2AF7568
:10150200C7AA75C755F591A20E92AF43B10853B25F
:10151200F7F5F643F64043E10143E13043E20EA220
:10152200AF920EC2AF75C7AA75C755F591A20E92BA
:10153200AFC2EFA2AF920EC2AF75C7AA75C755F57B
:1015420091A20E92AFD2EEE5E830E7FBAFC3EF75A2
:10155200F010A4FFAEF0E5C2540FFDEF4DFFA2AFB5
:10156200920EC2AF75C7AA75C755E4F591A20E9245
:04157200AF53E1FE94
:011576002252
:10157700A2AF920EC2AF75C7AA75C755E4F591A27F
:101587000E92AF53E8F043E807A2AF920EC2AF75D1
:10159700C7AA75C755F591A20E92AF43B30253B4CC
:1015A700FDF5F643F68043E10143E13043E2E0A273
:1015B700AF920EC2AF75C7AA75C755F591A20E9225
:1015C700AFC2EFA2AF920EC2AF75C7AA75C755F5E6
:1015D70091A20E92AFD2EEE5E830E7FBAFC3EF750D
:1015E700F010A4FFAEF0E5C2540FFDEF4DFFA2AF20
:1015F700920EC2AF75C7AA75C755E4F591A20E92B0
:04160700AF53E1FEFE
:01160B0022BC
:030000000214489F
:10144800787FE4F6D8FD9000007FFF7E08E4F0A3E3
:0A145800DFFCDEFA75812102149D0D
:10146200020CDBE493A3F8E493A34003F68001F2B9
:1014720008DFF48029E493A3F85407240CC8C3338B
:10148200C4540F4420C8834004F456800146F6DF5A
:10149200E4800B0102040810204080901A8EE47E42
:1014A200019360BCA3FF543F30E509541FFEE4934F
:1014B200A360010ECF54C025E060A840B8E493A316
:1014C200FAE493A3F8E493A3C8C582C8CAC583CA41
:1014D200F0A3C8C582C8CAC583CADFE9DEE780BEF9
:011A9600004F
:10036800BB010CE58229F582E5833AF583E022504A
:1003780006E92582F8E622BBFE06E92582F8E22294
:0D038800E58229F582E5833AF583E49322AE
:10039500BB010689828A83F0225002F722BBFE0147
:0203A500F32241
:1003A700F8BB010DE58229F582E5833AF583E8F08C
:1003B700225006E92582C8F622BBFE05E92582C838
:0203C700F22220
:1003C900BB010A89828A83F0E5F0A3F0225006F77F
:0F03D90009A7F01922BBFE06F3E5F009F319227C
:1003E800E88FF0A4CC8BF0A42CFCE98EF0A42CFCB4
:1003F8008AF0EDA42CFCEA8EF0A4CDA8F08BF0A432
:100408002DCC3825F0FDE98FF0A42CCD35F0FCEB90
:100418008EF0A4FEA9F0EB8FF0A4CFC5F02ECD3955
:0F042800FEE43CFCEAA42DCE35F0FDE43CFC22C2
:1004370075F008758200EF2FFFEE33FECD33CDCC7C
:1004470033CCC58233C5829BED9AEC99E5829840FF
:100457000CF582EE9BFEED9AFDEC99FC0FD5F0D6DC
:10046700E4CEFBE4CDFAE4CCF9A88222B800C1B906
:100477000059BA002DEC8BF084CFCECDFCE5F0CB44
:10048700F97818EF2FFFEE33FEED33FDEC33FCEB7D
:1004970033FB10D703994004EB99FB0FD8E5E4F938
:1004A700FA227818EF2FFFEE33FEED33FDEC33FC25
:1004B700C933C910D7059BE99A4007EC9BFCE99A19
:1004C700F90FD8E0E4C9FAE4CCFB2275F010EF2F5E
:1004D700FFEE33FEED33FDCC33CCC833C810D7075E
:1004E7009BEC9AE899400AED9BFDEC9AFCE899F899
:0E04F7000FD5F0DAE4CDFBE4CCFAE4C8F9222C
:10050500E8600FECC313FCED13FDEE13FEEF13FFD4
:03051500D8F122F8
:0C051800ECF0A3EDF0A3EEF0A3EFF02256
:10052400A8828583F0D083D08212053B12053B124A
:10053400053B12053BE473E493A3C583C5F0C5836F
:10054400C8C582C8F0A3C583C5F0C583C8C582C821
:010554002284
:10055500D083D082F8E4937012740193700DA3A335
:1005650093F8740193F5828883E473740293B5F06C
:0D057500067403936860E9A3A3A3A380D8D4
:10000300E5082403F582E43400F583E00508229033
:100013000000300703900003E475F00112059B0212
:1000230005822000E97F2ED2008018EF540F249020
:10003300D43440D4FF30040BEF24BFB41A00500370
:100043002461FFE50960021509050CE50C70020542
:100053000B30070E900000E475F00112059BEF02D0
:1000630003950219417403D2078003E4C207F5081C
:100073009000001205B2E4F509F50BF50CE50960F3
:10008300077F2012004680F5750AFFC201C200C235
:1000930002C203C205C206C208120012FF700D306D
:1000A30007057F00120057AF0CAE0B22B4255FC2C9
:1000B300D5C204120012FF24D0B40A00501A75F0FE
:1000C3000A780930D50508B6FF0106C6A426F6202E
:1000D300D5047002D20380D924CFB41A00EF5004A0
:1000E300C2E5D204020258D20180C6D20080C0D237
:1000F3000280BCD2D580BAD20580B47F20120046DC
:100103002002077401B5090040F1120003FF120039
:1001130046020080D208D2068095120003FB12002B
:1001230003FA120003F94A4B700679297A037BFF1D
:1001330020022EE509602A7E008E82758300120359
:100143006860060EEE650A70F0C2D5EBC0E0EAC047
:10015300E0E9C0E0EE12029FD0E0F9D0E0FAD0E08F
:10016300FB120582FF60AAEBC0E0EAC0E0E9C0E051
:10017300120046D0E02401F9D0E03400FAD0E0FBCD
:10018300E50A0460DCD50AD980877BFF7A02799B74
:10019300D202809C791080027908C206C2088008C6
:1001A300D2D5790A8004790AC2D5E50A047002F52A
:1001B3000AE4FAFDFEFF120003FC7B082001131280
:1001C3000003FD7B1030000A120003FE120003FF40
:1001D3007B20EC3382D592D55013C3E43000069FC5
:1001E300FFE49EFEE42001039DFDE49CFCE4CBF8C8
:1001F300C201EC700CCFCECDCCE824F8F870F380BC
:1002030017C3EF33FFEE33FEED33FDEC33FCEB337B
:10021300FB994002FB0FD8E9EB300105F8D0E0C4AD
:1002230048B201C0E00AEC4D4E4F78207B0070C20B
:10023300EAB50A0040BCC0E01202A1D0F0D0E02031
:100243000104C4C0E0C4B201C0F012002FD0F0D545
:10025300F0EB0200801205BB011D5301975800EE1D
:100263004C00EA42019B4F01A34401A3490103430C
:0802730001A955018D46018D22
:10027B0045018D4703495000F22D00F62E01192B35
:10028B0000FA2301172003322A00B24800000111A3
:10029B003F3F3F00790AA2D5200314300509B9105E
:1002AB00020404B9080104A2D5200602500104205F
:1002BB0002689202B509005034C0E07F2030031968
:1002CB007F30A20272067205500F1202F8C202C2F0
:1002DB0006C205C2087F30800F300503E9C0E0126B
:1002EB000046300503D0E0F9D0E0B509CC30051756
:1002FB007F30B9100C1200467F583004077F78808E
:10030B0003B908031200463002057F2D0200467F19
:10031B00202008F87F2B2006F322920280CF286E34
:10032B00756C6C2900D2011200033001F8C2017800
:10033B000930D50108F60200B22D5043495812007E
:10034B00032403B405004001E490034493120037E7
:0D035B00743A120037D203750904020197AD
:10058200BB010689828A83E0225002E722BBFE0277
:09059200E32289828A83E49322AA
:10059B00F8E0FBA3A3E0F925F0F0E58215827002E9
:0705AB001583E0FA38F0228D
:0905B200EBF0A3EAF0A3E9F0224A
:1005BB00D083D082F8E4937012740193700DA3A3CF
:1005CB0093F8740193F5828883E4737402936860E3
:0605DB00EFA3A3A380DFE3
:10194100EFB40A07740D12194C740A309811A89952
:10195100B8130CC2983098FDA899C298B811F63006
:0719610099FDC299F59922DE
:00000001FF
