:102BFD00554E415554484F52495A45442043415230
:052C0D0044200D0A0047
:102AF300C1094100A20041009F004500AED302037B
:102B0300AD004500B3636F66AC00C10A4200A0008C
:012B130000C1
:03000B00021AE6F0
:101AE600C0E0C0F0C083C082C0D075D000C000C0C6
:101AF60001C002C003C004C005C006C007C091757E
:101B06008C00758A10C28DC39000A1E094019000EC
:101B1600A0E094005003021BB5D209122575AC064D
:101B2600AD07E412008C9000971207BB12260AAC90
:101B360006AD07E412008C90009B1207BB9000973D
:101B4600E0FCA3E0FDA3E0FEA3E0FF1200C59000C9
:101B56009FE025E02433F582E43400F583EEF0A31C
:101B6600EFF090009BE0FCA3E0FDA3E0FEA3E0FF06
:101B76001200C590009FE0FD25E024D0F582E434F4
:101B860000F583EEF0A3EFF0EDC39430500690001D
:101B96009FE004F09000A0E4F0A3F09000971207F5
:101BA600C70000000090009B1207C70000000090CD
:101BB60000A1E004F070069000A0E004F0D091D0FF
:101BC60007D006D005D004D003D002D001D000D073
:0A1BD600D0D082D083D0F0D0E032EE
:0B1DC40090023EEBF0A3EAF0A3E9F070
:101DCF009000CDEDF0900242E0FF9000CDE0D39F68
:101DDF004003021E9F90023EE0FBA3E0FAA3E0F94E
:101DEF009000CDE0FF75F002A4F58285F083120616
:101DFF0026FDEF25E02445F582E43402F583E5F076
:101E0F00F0A3EDF09000CDE0FD2401FFE433FEEFF1
:101E1F0025E0FFEE338F82F583120626FFED25E0D6
:101E2F002447F582E43402F583E5F0F0A3EFF09058
:101E3F0000CDE0FF25E02447F582E43402F583E08E
:101E4F00FCA3E0FDEF25E02445F582E43402F583A1
:101E5F00E0FEA3E0C39DEE9C402D9000CDE025E079
:101E6F002445F582E43402F583E0FCA3E0FD900203
:101E7F0043ECF0A3EDF0EF25E02447F582E43402C4
:101E8F00F583ECF0A3EDF09000CDE004F0021DD44B
:081E9F00900243E0FEA3E0FF06
:011EA7002218
:0C1CD4007B0190009FE0900242F0E4FDD4
:0B1CE00090023EEBF0A3EAF0A3E9F055
:101CEB009000CDEDF0900242E0FF9000CDE0D39F4D
:101CFB004003021DBB90023EE0FBA3E0FAA3E0F918
:101D0B009000CDE0FF75F002A4F58285F0831206FA
:101D1B0026FDEF25E02443F582E43402F583E5F05C
:101D2B00F0A3EDF09000CDE0FD2401FFE433FEEFD6
:101D3B0025E0FFEE338F82F583120626FFED25E0BB
:101D4B002445F582E43402F583E5F0F0A3EFF0903F
:101D5B0000CDE0FF25E02445F582E43402F583E075
:101D6B00FCA3E0FDEF25E02443F582E43402F58388
:101D7B00E0FEA3E0C39DEE9C502D9000CDE025E04E
:101D8B002443F582E43402F583E0FCA3E0FD9002EA
:101D9B0093ECF0A3EDF0EF25E02445F582E434025B
:101DAB00F583ECF0A3EDF09000CDE004F0021CF015
:081DBB00900293E0FEA3E0FF9B
:011DC30022FD
:10269F0090009FE0FFD39428406FE49000CBF0A30D
:1026AF00F09000ACF0A3F09000C9F0A3F09000AA56
:1026BF00F0A3F07B017A007933900242EFF0E4FD52
:1026CF00121DC49000CBEEF0A3EFF07B017A0079DE
:1026DF00D090009FE0900242F0E4FD121DC49000E4
:1026EF00ACEEF0A3EFF07A007933121CD49000C94E
:1026FF00EEF0A3EFF07A0079D0121CD49000AAEE7E
:0A270F00F0A3EFF0E490009FF02229
:0B29940090023EEBF0A3EAF0A3E9F094
:10299F00E4FFFE900241E0FBA3E0FAA3E0F98F828F
:1029AF008E831205AFFD90023EE0FBA3E0FAA3E099
:1029BF00F98F828E83ED1205EE0FBF00010EEF64CB
:0429CF00054E70CF72
:0129D30022E1
:100F6600A2AF9212C2AF75C7AA75C755E4F591A292
:100F76001292AFF5B1F5B2F5B3F5B4F5ACF5ADC275
:100F860084C2857F061218E0A2AF9212C2AF75C75F
:100F9600AA75C755E4F591A21292AF53B1BF53B2E9
:100FA600BF53890F538EF790024204F0A31207C76E
:100FB6000001C2007F007E367D6E7C011217CFD203
:100FC600A9D2AFD28C1219EBD292C294C2937FB837
:100FD6007E0B122A7C1229D47B017A0079BD7F26EA
:100FE6001227899000A2EFF07B017A0079BD1221C9
:100FF600069000A2EFF0300905C20912269F900064
:10100600A2E060030211859000AEE0FF9000BDE013
:10101600FEB507249000AFE0FF9000BEE0B50718CC
:101026009000B0E0FF9000BFE0B5070C9000B1E083
:10103600FF9000C0E06F602C9000B3E06E7099A343
:10104600E0FF9000BEE06F708F9000B5E0FF90006B
:10105600BFE06F70839000B6E0FF9000C0E06F6065
:1010660003020FDE200A179002417401F0A37400F8
:10107600F0A374BDF07B017A0079A3122994900045
:10108600A3E0FF9000BDE06F60030211799000A419
:10109600E0FF9000BEE06F60030211799000A5E0CA
:1010A600FF9000BFE06F60030211799000A6E0FF99
:1010B6009000C0E06F60030211797FB87E1E7D85C7
:1010C6007C3D900097E0F8A3E0F9A3E0FAA3E0FBEB
:1010D60012000E501D7F7B7E147DAE7C3D900097E6
:1010E600E0F8A3E0F9A3E0FAA3E0FB12000E600229
:1010F60050747F527EB87DBE7C3F90009BE0F8A383
:10110600E0F9A3E0FAA3E0FB12000E501F7433FFD0
:10111600FEFD7C4090009BE0F8A3E0F9A3E0FAA373
:10112600E0FB12000E60054003020FDE200A18D213
:1011360093C294C2927FD07E07122A7CD284D28533
:101146007FD07E07122A7C300A17C293D292122AC7
:1011560078122A74122A74C294C293D292C284C29A
:1011660085B20A020FDED294C292C293C284C285AD
:10117600020FDE7BFF7A2B79FD1208D6020FDE12F4
:0C11860029D47F197E00122A7C020FDEA3
:082A7400D293C2927FF47E01AF
:102A7C00E4FDFCE4FBFAC3EB9FEE6480F8EA6480AF
:102A8C009850070BBB00010A80EC0DBD00010CBC7B
:052A9C0005E1BD10DEA4
:012AA1002212
:062B19001205AFFD7F096B
:102B1F00900257EDF0C295EF25E0547EFF122C4B3B
:0B2B2F00900257E0FF122C4BD29522C1
:102B5B00C295EF25E0547E4480FF122C4B90025718
:0C2B6B00E0FF122C32900257EFF0D295E0
:012B7700223B
:0A2BB000900256EDF0900255EFF090
:102BBA00122B5BAE07900255E0FFA3E04EFD022BFD
:012BCA001FEB
:0A2B7800900256EDF0900255EFF0C8
:102B8200122B5BAE07900255E0FFA3E0F45EFD025C
:022B92002B1FF7
:102C12007F14122B5B7D037F14122BB07F37022BA4
:012C22005B56
:072C68007D037F14022B78AD
:072C6F007D0F7F01022B1F06
:1029D400C295D297122C6F7D8D7F2A122B1F7D3EBC
:1029E4007F2B122B1F7D1E7F2D122B1FE4FD7F2CAE
:1029F400122B1F7D407F15122B1F7D3D7F11122B43
:092A04001F7F37122B5B022C121C
:10119200900248F0A37401F0A37402F0A374B1F0BA
:1011A200A37401F0A37402F0A374AFF07A0279B1D0
:0411B2007B017F0C32
:1011B600900245EBF0A3EAF0A3E9F0900244EFF0C9
:1011C60090024F7402F0E4A3F0A3F0EF24F4601051
:1011D60024FE70169002507412F0A37410F0800A68
:1011E6009002507477F0A37430F0900250E044807F
:1011F600FD7F02122B1F7D807F04122B787D807F5E
:101206000A122BB0E4FD7F01122B1FE4900253F06B
:10121600A3F0900248E0FF900253E0FCA3E0FDC378
:101226009FEC94005022900245E0FBA3E0FAA3E075
:10123600F98D828C83122B19900254E004F070D23F
:10124600900253E004F080CA900244E0FD7F011250
:101256002B1F900244E0B40C077D807F0D122BB04B
:101266009002537407F0A374D0F07F04122B5B90A6
:101276000252EFF0900254E024FFF0900253E03463
:10128600FFF0E07002A3E06011900252E0FF20E060
:1012960009900251E0FEEF5E60D07D807F0D122B3B
:1012A60078900253E07002A3E0700302139D7F065C
:1012B600122B5BEF541B600302139790024FF0A3AF
:1012C600E0FF900252E05F30E00690024F7401F0BA
:1012D600900244E0640C600302139D7F0A122B5BAC
:1012E600900252EFF07F0C122B5BEF5407FD602942
:1012F600900252E024FFFFE434FFFEEF7803C3338D
:10130600CE33CED8F97C002DFFEC3EF990024CE0AE
:10131600FBA3E0FAA3E0C98016900252E075F0083C
:10132600A4FF90024CE0FBA3E0FAA3E0F9E5F08FFE
:10133600F012065E900252E0700204F0900252E053
:10134600D3941040037410F0E4900253F0A3F0908D
:101356000252E0FFC3900254E09F900253E09400D3
:1013660050357F09122B5B900249E0FBA3E0FAA3FC
:10137600E0F9900253E0FCA3E0F5828C83EF1205BE
:10138600EE900254E004F070C6900253E004F08040
:0C139600BE90024F7402F090024FE0FF86
:0113A2002228
:0E27890090023EEFF0A3EBF0A3EAF0A3E9F01C
:102797007D077F0D122B1F90023EE0FFA3E0FBA3F6
:1027A700E0FAA3E0F9EF1205DC9002487401F0901B
:1027B700023FE0F9A3E0FAA3E0900249C9F0A3EAD7
:1027C700F0A3E9F0A37401F0A37402F0A37442F03C
:1027D70090023FE0FBA3A3E0F97F0C1211B6EF7064
:0F27E7000C900242E07004A3E0641060027F02D5
:0127F60022C0
:0B21060090023EEBF0A3EAF0A3E9F02A
:10211100E4A3F0FD7F0D122B1F90023EE0FBA3E034
:10212100FAA3E0F974931205DC90023EE0FBA3E010
:10213100FAA3E0F990000174201205EEC002C0017B
:102141009002487402F090023EE0F9A3E0FAA3E0A5
:10215100900249C9F0A3EAF0A3E9F0A37401F0A346
:102161007402F0A37442F0D001D0027F0C1211B6B8
:10217100AC07EC7044FD900241E0FF90023EE0FBB1
:10218100A3E0FAA3E0F98D827583001205AFFEEF9B
:102191006E900241F00DEDB404DC90023EE0FBA331
:1021A100E0FAA3E0F9AF058F827583001205AFFF56
:0B21B100900241E06F60027C02AF046E
:0121BC002200
:0623A7007B017A0279B10E
:0E23AD00900306EBF0A3EAF0A3E9F0A3EDF035
:1023BB007D047F05122B787D807F0A122BB0E49071
:1023CB00030DF0900309E0FF90030DE0FEC39F5057
:1023DB001B900306E0FBA3E0FAA3E0F98E82758362
:1023EB0000122B1990030DE004F080D77D037F01C1
:1023FB00122B1F90030D74FFF07F05122B5B9003C4
:10240B000DE014F0E06004EF30E2EE7F22122B5B64
:10241B0090030AE0FBA3E0FAA3E0F9EF1205DC7FDF
:10242B0021122B5B90030AE0FBA3E0FAA3E0F990E7
:06243B000001EF0205EEB6
:0B2441009002C3EBF0A3EAF0A3E9F067
:10244C009002C97493F0A37470F0E4FF9002C3E09F
:10245C00FBA3E0FAA3E0F98F827583001205AFFEAF
:10246C0074CB2FF582E43402F583EEF00FEFB40554
:10247C00DB90030A7401F0A37402F0A374D0F07B18
:10248C00017A0279C97D071223AD9002487409F0D4
:10249C00A37401F0A37402F0A374C9F0A37401F047
:1024AC00A37402F0A374C7F07A0279C91211B2EFC7
:1024BC0070129002C7E07004A3E0641870069002DA
:0E24CC00C9E08001E49002C6F09002C6E0FF75
:0124DA0022DF
:0B21BD00900297EBF0A3EAF0A3E9F01A
:1021C8009002A0EFF0A3EDF0E4FF900297E0FBA3EC
:1021D800E0FAA3E0F98F827583001205AFFE74A2BE
:1021E8002FF582E43402F583EEF00FEFB406DBE45A
:1021F800FF90029AE0FBA3E0FAA3E0F98F827583CF
:10220800001205AFFE74A82FF582E43402F583EEC0
:10221800F00FEFB404DB900248740CF0A37401F0E3
:10222800A37402F0A374A0F0A37401F0A37402F0E5
:10223800A3749EF07B017A0279A07F0E1211B690EA
:10224800029DEFF070097F08122B5BEF20E30690E8
:0A225800029D7402F090029DE0FF69
:012262002259
:0B230700900322EBF0A3EAF0A3E9F042
:10231200900322E0FBA3E0FAA3E0F974301205DC9B
:10232200900322E0FBA3E0FAA3E0F9900001EF1290
:1023320005EEC003C002C001900322E0FBA3E0FA55
:10234200A3E02402F9E43AFA90030AEBF0A3EAF0DC
:10235200A3E9F0D001D002D0037D021223AD900296
:10236200487404F0900322E0F9A3E0FAA3E090029B
:1023720049C9F0A3EAF0A3E9F0A37401F0A374033E
:10238200F0A37425F0900322E0FBA3A3E0F97F0CF5
:102392001211B6EF700C900325E07004A3E0649074
:0423A20060027F0254
:0123A6002214
:0B2263009002ACEBF0A3EAF0A3E9F05E
:10226E009002B174A0F0A3EFF090030A7401F0A3F2
:10227E007402F0A374B3F07D021223A7740412113A
:10228E0092EF70169002AFE07004A3E06404700A3F
:10229E009002B1E0540F640A60027F02EF7059FEA3
:1022AE009002ACE0FBA3E0FAA3E0F98E8275830006
:1022BE001205AFFD74B12EF582E43402F583EDF014
:1022CE000EEEB410DB90030A7401F0A37402F0A3B7
:1022DE0074C1F07D101223A77412121192EF7016B2
:1022EE009002AFE07004A3E06404700A9002B1E0C3
:0822FE00540F640A60027F0224
:0123060022B4
:1028C0009003187450F0E4A3F07B0190030A04F025
:1028D000A37403F0A3741AF07A0379187D0212230B
:1028E000AD9002487404F0A37401F0A37403F0A344
:1028F0007418F0A37401F0A37403F0A37416F07BB2
:0A290000017A0379187F0C0211B66A
:1019EB00A2AF9212C2AF75C7AA75C755E4F591A203
:1019FB001292AF53B3DF53B4DFA2AF9212C2AF75E3
:101A0B00C7AA75C755F591A21292AF53B3FE53B443
:101A1B00FEA2AF9212C2AF75C7AA75C755F591A2B8
:101A2B001292AF53B1FE53B2FEA2AF9212C2AF7578
:101A3B00C7AA75C755F591A21292AF53B1FD53B218
:101A4B00FD43F408A2AF9212C2AF75C7AA75C75572
:101A5B00F591A21292AF53F37FA2AF9212C2AF7560
:101A6B00C7AA75C755F591A21292AF53F3DFA2AF78
:101A7B009212C2AF75C7AA75C755F591A21292AF54
:101A8B0053F3F7A2AF9212C2AF75C7AA75C755F53C
:101A9B0091A21292AF53F3FBA2AF9212C2AF75C7D2
:101AAB00AA75C755F591A21292AF43F310A2AF924C
:101ABB0012C2AF75C7AA75C755F591A21292AF5353
:101ACB00F3FCA2AF9212C2AF75C7AA75C755F591B9
:0B1ADB00A21292AF43F34053F47F22AD
:0B2C4B008FF5E5F430E7FB53F47F2227
:0C2C32008FF5E5F430E7FBAFF553F47FBD
:012C3E002273
:040003008F828E83D7
:03000700E493FF80
:01000A0022D3
:0B2C3F00EF448075C7AA75C755F59FCC
:012C4A002267
:092C560030100543870200002242
:092C5F0030110543870100002239
:061EA8009002EB1207BBE3
:101EAE00538EF75389F04389017B407A42790F783C
:101EBE00009002EBE0FCA3E0FDA3E0FEA3E0FF1226
:101ECE000708A804A905AA06AB079002F1E0FEA335
:101EDE00E0FFE4FCFD12067DE47B0CFAF9F8120734
:101EEE0008C374FF9FFF74FF9EE49DE49C9002F371
:101EFE00EFF07B407A42790F78009002EBE0FCA382
:101F0E00E0FDA3E0FEA3E0FF120708A804A905AABE
:101F1E0006AB079002F1E0FEA3E0FFE4FCFD120623
:101F2E007DE47B0CFAF9F8120708C374FF9FFF7467
:101F3E00FF9EFEE49DFDE49CFC78081207A890022B
:101F4E00EFE07002A3E060219002F3E0F58A8F8C3F
:101F5E00D28C308DFDC28DC28C9002F0E024FFF049
:091F6E009002EFE034FFF080D591
:011F77002247
:061F78009002F41207BB09
:101F7E00538EEF53890F4389107B407A42790F7845
:101F8E00009002F4E0FCA3E0FDA3E0FEA3E0FF124C
:101F9E000708A804A905AA06AB079002FAE0FEA35B
:101FAE00E0FFE4FCFD12067DE47B0CFAF9F8120763
:101FBE0008C374FF9FFF74FF9EE49DE49C9002FC97
:101FCE00EFF07B407A42790F78009002F4E0FCA3A8
:101FDE00E0FDA3E0FEA3E0FF120708A804A905AAEE
:101FEE0006AB079002FAE0FEA3E0FFE4FCFD12064A
:101FFE007DE47B0CFAF9F8120708C374FF9FFF7497
:10200E00FF9EFEE49DFDE49CFC78081207A890025A
:10201E00F8E07002A3E060219002FCE0F58B8F8D5A
:10202E00D28E308FFDC28FC28E9002F9E024FFF067
:09203E009002F8E034FFF080D5B7
:012047002276
:061680009002D21207BB2C
:10168600E4F5919002D6E0FEA3E08EF012083E1635
:10169600B9000116BE000416C6001016CE002016AC
:1016A600D6004016DE008016E6010016EE020000A7
:1016B6000016F453C98F803653C98F43C910802E44
:1016C60053C98F43C920802653C98F43C930801E12
:1016D60053C98F43C940801653C98F43C950800EE2
:1016E60053C98F43C960800653C98F43C970C2C8A6
:1016F60043C98043C9047B407A42790F780090023F
:10170600D2E0FCA3E0FDA3E0FEA3E0FF12070890F1
:1017160002DAE0F8A3E0F9A3E0FAA3E0FB12067D03
:10172600C006C0079002D6E0FEA3E0FBAA06E4F9D5
:10173600F8D007D006120708C3E49FFFE49E7401A1
:101746009DE49C9002DEEFF07B407A42790F7800B0
:101756009002D2E0FCA3E0FDA3E0FEA3E0FF1207A7
:10176600089002DAE0F8A3E0F9A3E0FAA3E0FB129E
:10177600067DC006C0079002D6E0FEA3E0FBAA06DF
:10178600E4F9F8D007D006120708C3E49FFFE49EE9
:10179600FE74019DFDE49CFC78081207A89002D80F
:1017A600E07002A3E060219002DEE0F5CC8FCDD29E
:1017B600CA30CFFDC2CFC2CA9002D9E024FFF09052
:0817C60002D8E034FFF080D5E9
:0117CE0022F8
:0613A3009002DF1207BBFF
:1013A900E4F5919002E3E024FE602124FE60252407
:1013B900FC602924F8602D24F0603124E060352494
:1013C900C06039247F703B53C4F8803653C4F84356
:1013D900C401802E53C4F843C402802653C4F84381
:1013E900C403801E53C4F843C404801653C4F8438D
:1013F900C405800E53C4F843C406800653C4F84399
:10140900C4077B407A42790F78009002DFE0FCA3A1
:10141900E0FDA3E0FEA3E0FF1207089002E6E0F872
:10142900A3E0F9A3E0FAA3E0FB12067DC00790024E
:10143900E3E0FBE4FAF9F8D007120708C3E49FFFD9
:10144900E49E74019DE49C9002EAEFF07B407A42AD
:10145900790F78009002DFE0FCA3E0FDA3E0FEA392
:10146900E0FF1207089002E6E0F8A3E0F9A3E0FA2A
:10147900A3E0FB12067DC0079002E3E0FBE4FAF962
:10148900F8D007120708C3E49FFFE49EFE74019D8C
:10149900FDE49CFC78081207A89002E4E07002A31E
:1014A900E06074A2AF9212C2AF75C7AA75C755E4BE
:1014B900F591A21292AF53C4EF9002EAE0F5C58FFD
:1014C900C6A2AF9212C2AF75C7AA75C755E4F59106
:1014D900A21292AF43C408E5C430E4FBA2AF921252
:1014E900C2AF75C7AA75C755E4F591A21292AF5359
:1014F900C4EFA2AF9212C2AF75C7AA75C755F591CD
:10150900A21292AF53C4F79002E5E024FFF09002D3
:07151900E4E034FFF08082E2
:0115200022A8
:102B9400EF14600D14600D14600E2403700DD2A99F
:0C2BA40022D2AB22439B8022439C0222E1
:1018E000A2AF9212C2AF75C7AA75C755439F01A296
:1018F0001292AFE4F591EF24F9600C146009240210
:10190000700875A638800375A630E4F5A775AF0496
:10191000A2AF9212C2AF75C7AA75C75543A401A260
:101920001292AF85AE0805A6A2AF9212C2AF75C7DC
:10193000AA75C75543A401A21292AF85AE09EF2440
:10194000F860030219C5E50825E0FFE50954012FF9
:10195000FF54C0F50BEF543FF50A74F22FFF75AF3B
:101960000C75A601E4F5A7A2AF9212C2AFA2AF9286
:1019700012C2AF75C7AA75C75543AA40A21292AF4B
:1019800075C7AA75C75543A401A21292AFE5AE640C
:101990004B600BE5AE64526005E5AEB45322E50A38
:1019A000C3940F5017E50B6440600BE50B64806037
:1019B00005E50BB4C00A74F22FFF800474FC2FFFFE
:1019C000EFC313F50875C7AA75C75585088475C791
:1019D000AA75C755850985A2AF9212C2AF75C7AA6D
:0A19E00075C755539FFEA21292AF87
:0119EA0022DA
:10295200EF24FD6011146012240270357F02122AE6
:10296200427F0202285E7F0380117F02122A427F89
:102972000212285E7F04122A427F0412285EA2AF4E
:102982009212C2AF75C7AA75C7555397DFA21292AA
:02299200AF2272
:102A4200EF24FC601E24027028A2AF9212C2AF755E
:102A5200C7AA75C755439720A21292AFE59620E503
:102A62001080F975C7AA75C7554397C0E59630E33C
:022A7200FB2245
:102AA200E4F591EF24FC60182402701DA2AF92128B
:102AB200C2AF75C7AA75C7555397DFA21292AF224C
:0A2AC20075C7AA75C75553973F2248
:10285E00E4F591A2AF9212C2AFEF24FD601814609E
:10286E003924027048A2AF9212C2AF75C7AA75C7BB
:10287E00555396FB800FA2AF9212C2AF75C7AA75C1
:10288E00C755439604A21292AFA2AF9212C2AF7571
:10289E00C7AA75C7555396FD800FA2AF9212C2AF4D
:1028AE0075C7AA75C755439608A21292AFA2129287
:0228BE00AF2247
:042B1400C10DC10E20
:1017CF0090023E1207BB900242E014605B146079F6
:1017DF00240260030218DF759850438920438780E5
:1017EF00438E10A2AF9212C2AF75C7AA75C755E448
:1017FF00F591A21292AF53C4DF7B10FAF9F8900261
:10180F003EE0FCA3E0FDA3E0FEA3E0FF120708907B
:10181F000243E0F8A3E0F9A3E0FAA3E0FB12070804
:10182F00EFF404F58DD28E2275985043878053C400
:10183F00F8A2AF9212C2AF75C7AA75C755E4F5915A
:10184F00A21292AF43C420800775F85075C480E48C
:10185F007B10FAF9F890023EE0FCA3E0FDA3E0FE56
:10186F00A3E0FF120708900243E0F8A3E0F9A3E01A
:10187F00FAA3E0FB120708C3E49FFFE49EFE740186
:10188F009DFDE49CFC78081207A88FC6E47B10FA34
:10189F00F9F890023EE0FCA3E0FDA3E0FEA3E0FF19
:1018AF00120708900243E0F8A3E0F9A3E0FAA3E0DF
:1018BF00FB120708C3E49FFFE48FC5A2AF9212C2C9
:1018CF00AF75C7AA75C755F591A21292AF43C40859
:0118DF0022E6
:102B3A00C091E4F591EF14600C047012C2998D995A
:102B4A0020990B80FBC2F9AF058F9A20F9FDD0912D
:012B5A002258
:102A0D00A2AF9212C2AF75C7AA75C755E4F591A2D0
:102A1D001292AF53B1BF53B2BF900242F0A312074F
:102A2D00C70001C2007F007E367D6E7C011217CF7C
:052A3D00D299D20D2228
:10290A00AB07E4F591ED540FF5CEECC4F854F0C8DA
:10291A00EDC4540F48F5CFEB6017A2AF9212C2AFC5
:10292A0075C7AA75C755E4F591A21292AF43E22082
:10293A0022A2AF9212C2AF75C7AA75C755E4F59124
:08294A00A21292AF53E2DF225A
:102BCB00E4F59153E18FEF5407C454F042E153E223
:092BDB00F1ED540725E042E2226D
:10271900A2AF9212C2AF75C7AA75C755439F01A24E
:102729001292AF75AF0475A60DE4F5A7A2AF921288
:10273900C2AF75C7AA75C75543A401A21292AFE5E6
:10274900AE540FFD75A60CE4F5A7A2AF9212C2AF65
:1027590075C7AA75C75543A401A21292AFAFAEEFD0
:1027690075F010A47C002DFFEC35F0FEA2AF92129B
:0F277900C2AF75C7AA75C755539FFEA21292AF84
:01278800222E
:10257500A2AF9212C2AF75C7AA75C755E4F591A26D
:102585001292AF53E8F043E806A2AF9212C2AF75BC
:10259500C7AA75C755F591A21292AF43B10853B2B8
:1025A500F7F5F643F64043E101A2AF9212C2AF75CB
:1025B500C7AA75C755F591A21292AFC2EFA2AF9205
:1025C50012C2AF75C7AA75C755F591A21292AFD2BF
:1025D500EE30EFFDAFC37E00EFC4F8540FC868FFBF
:1025E500EEC454F048FEE5C2540FFDEF4DFFA2AF17
:1025F5009212C2AF75C7AA75C755E4F591A212929A
:04260500AF53E1FEF0
:0126090022AE
:10260A00A2AF9212C2AF75C7AA75C755E4F591A2D7
:10261A001292AF53E8F043E807A2AF9212C2AF7525
:10262A00C7AA75C755F591A21292AF43B30253B424
:10263A00FDF5F643F68043E101A2AF9212C2AF75EF
:10264A00C7AA75C755F591A21292AFC2EFA2AF926F
:10265A0012C2AF75C7AA75C755F591A21292AFD229
:10266A00EE30EFFDAFC37E00EFC4F8540FC868FF29
:10267A00EEC454F048FEE5C2540FFDEF4DFFA2AF81
:10268A009212C2AF75C7AA75C755E4F591A2129204
:04269A00AF53E1FE5B
:01269E002219
:0B15210090031CEEF0A3EFF0A3EDF030
:10152C00E4A3F090031CE0FEA3E07807CEC313CE37
:10153C0013D8F97807C333CE33CED8F9FF900320F4
:10154C00EEF0A3EFF0E490031FF090031FE0FFC355
:10155C0094805029900321E02FFF900320E0340069
:10156C00FE1200037E0090031FE024BEF582E434DB
:10157C0001F583EFF090031FE004F080CD90031E83
:10158C00E0FF7C0090031DE0547F24BEF582EC3418
:10159C0001F583EFF0900320E0FEA3E0F5A6EEF555
:1015AC00A775AEFFA2AF9212C2AF75C7AA75C75589
:1015BC00439F01A21292AFA2AF9212C2AF75C7AAFB
:1015CC0075C75543A501A21292AF75AF22A2AF9277
:1015DC0012C2AF75C7AA75C75543A401A21292AF28
:1015EC00A2AF9212C2AF75C7AA75C755439F01A28D
:1015FC001292AFA2AF9212C2AF75C7AA75C755436C
:10160C00A501A21292AF75AF21E490031FF09003D5
:10161C001FE0FDC394805035A3E0FEA3E0FCED2C4D
:10162C00F5A6EEF5A774BE2DF582E43401F583E042
:10163C00F5AEA2AF9212C2AF75C7AA75C75543A437
:10164C0001A21292AF90031FE004F080C1A2AF92EE
:10165C0012C2AF75C7AA75C75553A5FEA21292AF99
:10166C00A2AF9212C2AF75C7AA75C755539FFEA2FF
:03167C001292AF18
:01167F002248
:1020480090030EEEF0A3EFF0A3EBF0A3EAF0A3E900
:01205800F097
:1020590090030EE0FCA3E0FDAE047807CEC313CED7
:1020690013D8F9FB900313E0FEA3E02DFFEC3EFE2D
:10207900EF7807CEC313CE13D8F9900315F0900368
:1020890015E06B605390030EE0FEA3E0FFA3E0FBB5
:10209900A3E0FAA3E0F99001397480F0120CEEADD7
:1020A9000790030FE02FF090030EE03400F0900347
:1020B90011E48FF0120610C3900314E09FF090030F
:1020C90013E09400F090030EE0FEA3E07807CEC37E
:1020D90013CE13D8F9FB80A6900313E0FCA3E0FD0F
:1020E9004C601990030EE0FEA3E0FFA3E0FBA3E020
:0C20F900FAA3E0F9900139EDF0120CEEB2
:0121050022B7
:1027F7009002FDEEF0A3EFF0A3EBF0A3EAF0A3E95C
:01280700F0E0
:10280800E4900304F0A3F0900302E0FEA3E0FFA32A
:10281800E0FCA3E0FDC39FEC9E503A9002FEE02D41
:10282800FF9002FDE03C8F82F583E493FF9002FF66
:10283800E0FBA3E0FAA3E0F9900304A3E0F5828C9F
:1028480083EF1205EE900305E004F070BA900304DC
:05285800E004F080B275
:01285D002258
:100CEE00900134EEF0A3EFF0A3EBF0A3EAF0A3E94A
:010CFE00F005
:100CFF00A2AF9212C2AF75C7AA75C755439F01A283
:100D0F001292AFA2AF9212C2AF75C7AA75C7554361
:100D1F00A501A21292AF900134E0FEA3E0FF547F31
:100D2F00FD90013BF0C374809DFD90013AF090015E
:100D3F0039E0D39D4006A3E0900139F090013CEEDD
:100D4F00F0A3EFF0E490013AF0900139E0FFA3E057
:100D5F00FEC39F501B90013CE0FCA3E02EF582E404
:100D6F003CF583E493B4FF0890013AE004F080D996
:100D7F00EE6F6003020E2575AF21900134E0FEA3E4
:100D8F00E0F5A6EEF5A7E490013AF0900139E0FF07
:100D9F00A3E0FEC39F5032900136E0FBA3E0FAA31D
:100DAF00E0F98E827583001205AFF5AEA2AF9212F5
:100DBF00C2AF75C7AA75C75543A401A21292AF055A
:100DCF00A690013AE004F080C2E490013AF090015D
:100DDF0039E0FFA3E0FEC39F502F900136E0FBA345
:100DEF00E0FAA3E0F98E827583001205AFFF900140
:100DFF003CE0FCA3E02EF582E43CF583E493B507D9
:100E0F000890013AE004F080C5900139E0FFA3E0BB
:100E1F006F7003020F4D900134E0FFA3E0548090F8
:100E2F00013CCFF0A3EFF0E490013AF090013AE0EB
:100E3F00FF90013CE0FCA3E02FF582E43CF583E456
:100E4F0093FE743E2FF582E43401F583EEF09001AA
:100E5F003AE004F0E0B480D4E490013AF090013924
:100E6F00E0FFA3E0C39F5031900136E0FBA3E0FA0F
:100E7F00A3E0F990013AE0FFF5827583001205AF08
:100E8F00FE90013BE02F243EF582E43401F583EE22
:100E9F00F090013AE004F080C4900134E0FEA3E04A
:100EAF005480F5A6EEF5A775AF2275AEFFA2AF92EF
:100EBF0012C2AF75C7AA75C75543A401A21292AF4C
:100ECF0075AF21E490013AF090013AE0FFC39480AE
:100EDF00502A743E2FF582E43401F583E0F5AEA27B
:100EEF00AF9212C2AF75C7AA75C75543A401A2121C
:100EFF0092AF05A690013AE004F080CCE490013A5D
:100F0F00F090013AE0FFC39480502BE0FE90013C3B
:100F1F00E0FCA3E02EF582E43CF583E493FD743E00
:100F2F002EF582E43401F583E0FEEDB5060890015D
:100F3F003AE004F080CBEF64806003020EA8A2AF0A
:100F4F009212C2AF75C7AA75C755539FFEA21292D0
:060F5F00AF900139E0FF34
:010F65002269
:101BE000E4F591A2AF9212C2AFEF8EF012083E1C44
:101BF0001300011C1F00041C3300081C4700101CAC
:101C00005B00201C6F00401C8300801C97010000BB
:101C1000001CA975C7AA75C75553AAF8021CA97557
:101C2000C7AA75C75553AAF875C7AA75C75543AA59
:101C300001807675C7AA75C75553AAF875C7AA75E6
:101C4000C75543AA02806275C7AA75C75553AAF83B
:101C500075C7AA75C75543AA03804E75C7AA75C72D
:101C60005553AAF875C7AA75C75543AA04803A7593
:101C7000C7AA75C75553AAF875C7AA75C75543AA09
:101C800005802675C7AA75C75553AAF875C7AA75E2
:101C9000C75543AA06801275C7AA75C75553AAF837
:101CA00075C7AA75C75543AA07A21292AFA2AF92F1
:101CB00012C2AF75C7AA75C75543AA10A21292AF38
:101CC000A2AF9212C2AF75C7AA75C75543AA80A228
:041CD0001292AF229B
:0F2C2300EF146007047007539BEF22439B1022AE
:102BE400A2AF9212C2AF75C7AA75C75543AA40A235
:092BF4001292AFE5AA20E6FB22D3
:030000000224DBFC
:1024DB00787FE4F6D8FD9000007FFF7E08E4F0A340
:0A24EB00DFFCDEFA758122022530C5
:10000E0074F8CC6480CCC86480C8F58204604FC399
:10001E00EB9FF5F0EA9E42F0E99D42F0E89C45F038
:10002E00603C501DE5825FFFE582D313CB5BCBF4C2
:10003E002B5582FB50280ABA002409B900200880EB
:10004E001DE5825BFBE582D313CF5FCFF4C3132F85
:10005E005582FF50090EBE00050DBD00010CC3EB0D
:10006E009FF5F0EA9E42F0E99D42F0E89C45F06073
:09007E0007CC4820E701B3EC2295
:1000870075F020800E75F010800575F0087D007EF4
:10009700007F003392D530D50312079AEC33401016
:1000A700EF33FFEE33FEED33FDEC33FCD5F0ED22FD
:0E00B700E5F0247EA2D513CC92E7CDCEFF2239
:1000C500EDD2E7CD33EC3392D524814006E4FFFE33
:1000D500FDFC22FCE4CFCECDCC24E0501174FF8092
:1000E500EDC3CC13CCCD13CDCE13CECF13CF04702F
:0700F500F030D5DE02079A8E
:10086B00E5082441F582E43402F583E00508229083
:10087B00023E300703900241E475F0011207F802C3
:10088B0005962000E97F2ED2008018EF540F24909C
:10089B00D43440D4FF30040BEF24BFB41A00500300
:1008AB002461FFE50960021509050CE50C700205D2
:1008BB000B30070E90023EE475F0011207F8EF02C1
:1008CB0005DC022ACC7403D2078003E4C207F508C7
:1008DB0090023E12080FE4F509F50BF50CE50960E3
:1008EB00077F201208AE80F5750AFFC201C200C255
:1008FB0002C203C205C206C20812087AFF700D308D
:10090B0007057F001208BFAF0CAE0B22B4255FC2E8
:10091B00D5C20412087AFF24D0B40A00501A75F01D
:10092B000A780930D50508B6FF0106C6A426F620BD
:10093B00D5047002D20380D924CFB41A00EF50042F
:10094B00C2E5D204020BB1D20180C6D20080C0D264
:10095B000280BCD2D580BAD20580B47F201208AEFB
:10096B002002077401B5090040F112086BFF120851
:10097B00AE0208E8D208D206809512086BFB12086B
:10098B006BFA12086BF94A4B700679AF7A0C7BFF46
:10099B0020022EE509602A7E008E827583001205E7
:1009AB00AF60060EEE650A70F0C2D5EBC0E0EAC090
:1009BB00E0E9C0E0EE120C12D0E0F9D0E0FAD0E0A2
:1009CB00FB120596FF60AAEBC0E0EAC0E0E9C0E0CD
:1009DB001208AED0E02401F9D0E03400FAD0E0FBED
:1009EB00E50A0460DCD50AD98087D20280A2120BFB
:1009FB00F460F7E50A7001041200FCA90A600DE52A
:100A0B000A600914F50A120C9CEF60F3EA30E70256
:100A1B00F404C3995079EAF4250A0430E701E4049D
:100A2B00F50A800D120BF460C1EA050A250A1200C3
:100A3B00FCEA90026DF030E701E4250A04D50A04C4
:100A4B0020050114120C12E4C0E0120C9C90026DF4
:100A5B00E0601320E70714F0120896802204F0D010
:100A6B00E014C0E07F00120896E50A600712088DBB
:100A7B00150A800B30050312088DD0E00208E8D070
:100A8B00E00480C4120BF4609EE50A041200FC9093
:100A9B00026DEAF0E50A2005026001042404120C41
:010AAB001238
:100AAC0074FF04C0E0120C9C120896E50A200502A3
:100ABC00600312088DD0E0B50AE87F451208A090BB
:100ACC00026DE07F2B30E7047F2DF404C0E01208A8
:100ADC00AED0E075F00A84C0F0120897D0E012088E
:100AEC00970208E8791080027908C206C2088008CB
:100AFC00D2D5790A8004790AC2D5E50A047002F5C8
:100B0C000AE4FAFDFEFF12086BFC7B0820011312AD
:100B1C00086BFD7B1030000A12086BFE12086BFF8D
:100B2C007B20EC3382D592D55013C3E43000069F62
:100B3C00FFE49EFEE42001039DFDE49CFCE4CBF865
:100B4C00C201EC700CCFCECDCCE824F8F870F38059
:100B5C0017C3EF33FFEE33FEED33FDEC33FCEB3319
:100B6C00FB994002FB0FD8E9EB300105F8D0E0C44B
:100B7C0048B201C0E00AEC4D4E4F78207B0070C2A9
:100B8C00EAB50A0040BCC0E0120C14D0F0D0E02052
:100B9C000104C4C0E0C4B201C0F0120897D0F0D573
:100BAC00F0EB0208E81208180985530AF0580956A8
:100BBC004C0952420AF44F0AFC440AFC49096B43A3
:100BCC000B02550A2F460A8F4509F9470CCF5009DD
:100BDC005A2D095E2E09812B096223097F200CB83E
:100BEC002A091A4800000979E50AB4FF03750A06B8
:100BFC0012086BFC12086BFD12086BFE12086BFFDF
:100C0C00900266020139790AA2D520031430050935
:100C1C00B910020404B9080104A2D520060250013F
:100C2C00042002689202B509005034C0E07F2030E5
:100C3C0003197F30A20272067205500F120C6BC2A0
:100C4C0002C206C205C2087F30800F300503E9C01E
:100C5C00E01208AE300503D0E0F9D0E0B509CC3095
:100C6C0005177F30B9100C1208AE7F583004077F7F
:100C7C00788003B908031208AE3002057F2D0208F4
:100C8C00AE7F202008F87F2B2006F322920280CF23
:100C9C007F00B40700500B2466F582E43402F58320
:100CAC00E0FF22286E756C6C2900D20112086B30A3
:100CBC0001F8C201780930D50108F602091A2D5045
:100CCC0043495812086B2403B405004001E4900C0E
:100CDC00CA9312089F743A12089FD2037509040232
:020CEC000AF00C
:1000FC00F920E73624F950037907E4F42402FBE5F0
:10010C0082158270021583DBF6E024FB501BE9603C
:10011C0014E4F0E582158270021583E004F0B40A51
:0D012C0008E4F0D9EE7401F00A22C2D522D9
:10013900ED33EC3392D5FA602AB4FF33EDC2E77B95
:10014900FF60067A01795EE4227A01796720D50495
:100159007A017962224E614E002B494E46002D49A3
:100169004E4600E47A08F0A3DAFC7B00740722C04B
:1001790083C082ECC0E0EDC0E0EEC0E0EFC0E0EA91
:1001890075F010A4CAABF075F04DA42BFBE435F063
:10019900FCEA2410FAEB34C5FBEC34D9FCEDC2E7D8
:1001A900FF75F056A4F42411C5F0F434C58FF0A4FA
:1001B9002AE5F03BE43CF020E71412050CD0E0FFFF
:1001C900D0E0FED0E0FDD0E0FC12043F8014F4043E
:1001D90012050CD0E0FFD0E0FED0E0FDD0E0FC122B
:1001E9000336D082D083E0FAEDD2E7CD33EC332465
:1001F90082FBE4C3CF33CFCE33CECD33CD33DBF364
:100209007B0775F00A846004F0A31B0AE5F0F0A3EC
:100219008FF0740AA4FFACF08EF0740AA42CFEAC23
:10022900F050010C8DF0740AA42CFDE435F0F0A314
:05023900DBDE7407226A
:10023E00020581E86480F8E933E83360110460F068
:10024E00ED33EC337009E8FCE9FDEAFEEBFF220426
:10025E0060DED3EB9FEA9EE99DE8C2E78CF0C2F721
:10026E0095F0400CE8CCF8E9CDF9EACEFAEBCFFBED
:10027E0012054C85D0F05804700320D5B3E80470F5
:10028E00075002B2D502058B92D5EC0460F7E4CC90
:10029E00C0E0C398F8603B94186008400DD0E0FBB6
:1002AE00020563E4FBFAC9FC8028E830E406E4C9E1
:1002BE00FBE4CAFCE830E305E4C9CACBFCE854070A
:1002CE006010F8C3E913F9EA13FAEB13FBEC13FC15
:1002DE00D8F130F52FC3E49CFCEF9BFFEE9AFEEDB8
:1002EE0099FDD0E0FBEF4E4D4C701222DB03020560
:1002FE0088EC2CFCEF33FFEE33FEED33FDED30E7F3
:10030E00EB020563EF2BFFEE3AFEED39FDD0E0FB7D
:10031E0050130BBB000302058BED13FDEE13FEEF26
:08032E0013FFEC13FC02056350
:10033600EC4D6011E8497017ED33EC3304600DE4C1
:10034600FCFFFEFD22E933E8330470F80205811252
:10035600054C58046009E4CC248150062850090253
:10036600058B284003020588C0E0EB4A7044B9803B
:1003760006D0E0FB020577EF4E701CBD8008EBFF50
:10038600EAFEE9FD80EBE98DF0A4FEE5F002041F2C
:10039600E9CDF9EAFEEBFFEF89F0A4FCE5F0CE89A2
:1003A600F0A42EFFE435F0CD89F0A42DFEE435F05F
:1003B6008067EF4E7005BD80D780C3EF8BF0A4AC8D
:1003C600F0EE8BF0A42CFCE435F0F8EF8AF0A42CC8
:1003D600E5F038FCE433CB8DF0A42CFCE5F03BF8DB
:1003E600EE8AF0A42CFCE5F038F8E433CF89F0A4CB
:1003F6002CFCE5F038CF3400CE89F0A42FFFE5F0D1
:100406003EFEE433C98DF0A42EFEE5F039CD8AF028
:10041600A42FFFE5F03EFEE43DFD33D0E0FB5007A0
:100426000BBB000F02058BEC2CFCEF33FFEE33FE0B
:06043600ED33FD02056339
:10043C0002058BEC5D046005E8590470030205812C
:10044C0012054C580460F6EC4860F2EC7004FDFEAA
:10045C00FF22C860DB2481C85009C3986002500693
:10046C000205889850CAF582E9294B4A7005AB827F
:10047C0002057775F0007C1A7880C3EF9BEE9AED3D
:10048C0099400DC3EF9BFFEE9AFEED99FDE842F00B
:10049C00DC23ACF0D0E0FFD0E0FED0E0FDAB82205E
:1004AC00E7101BEB60BAEC2CFCEF33FFEE33FEEDE8
:1004BC0033FD020563E803F830E705C0F075F00082
:1004CC00EF2FFFEE33FEED33FD40B830E7C280AACC
:1004DC003F8000004120000042C80000447A000028
:1004EC00461C400047C35000497424004B189680AA
:1004FC004CBEBC205A0E1BCA6753C21C749DC5AEA1
:10050C00FB60065407601C232312053AEB54386039
:10051C0009120526120535120336ECF8EDF9EEFA40
:10052C00EFCB22EB12053580F1543803241C9004D8
:10053C00DCFE93FC0EEE93FD0EEE930ECE93FF229B
:10054C00E9D2E7C933E833F892D5EDD2E7CD33ECF5
:07055C0033FC5002B2D5226E
:10056300EC30E7100FBF000C0EBE00080DBD0004F9
:100573000BEB6014A2D5EB13FCED92E7FD2274FFA5
:10058300FCFDFEFF22E480F8A2D574FF13FC7D80FE
:03059300E480EF12
:1024F500020F66E493A3F8E493A34003F68001F288
:1025050008DFF48029E493A3F85407240CC8C333E7
:10251500C4540F4420C8834004F456800146F6DFB6
:10252500E4800B0102040810204080902AF3E47E29
:10253500019360BCA3FF543F30E509541FFEE493AB
:10254500A360010ECF54C025E060A840B8E493A372
:10255500FAE493A3F8E493A3C8C582C8CAC583CA9D
:10256500F0A3C8C582C8CAC583CADFE9DEE780BE55
:012B180000BC
:10059600BB010689828A83E0225002E722BBFE0263
:0905A600E32289828A83E4932296
:1005AF00BB010CE58229F582E5833AF583E0225001
:1005BF0006E92582F8E622BBFE06E92582F8E2224B
:0D05CF00E58229F582E5833AF583E4932265
:1005DC00BB010689828A83F0225002F722BBFE01FE
:0205EC00F322F8
:1005EE00F8BB010DE58229F582E5833AF583E8F043
:1005FE00225006E92582C8F622BBFE05E92582C8EF
:02060E00F222D6
:10061000C5F0F8A3E028F0C5F0F8E5821582700275
:060620001583E038F02212
:10062600BB0110E58229F582E5833AF583E0F5F012
:10063600A3E0225009E92582F886F008E622BBFEEF
:100646000AE92582F8E2F5F008E222E5832AF58335
:08065600E993F5F0A3E99322FA
:10065E00BB010A89828A83F0E5F0A3F0225006F7E7
:0F066E0009A7F01922BBFE06F3E5F009F31922E4
:10067D00E88FF0A4CC8BF0A42CFCE98EF0A42CFC1C
:10068D008AF0EDA42CFCEA8EF0A4CDA8F08BF0A49A
:10069D002DCC3825F0FDE98FF0A42CCD35F0FCEBF9
:1006AD008EF0A4FEA9F0EB8FF0A4CFC5F02ECD39BE
:0F06BD00FEE43CFCEAA42DCE35F0FDE43CFC222B
:1006CC0075F008758200EF2FFFEE33FECD33CDCCE5
:1006DC0033CCC58233C5829BED9AEC99E582984068
:1006EC000CF582EE9BFEED9AFDEC99FC0FD5F0D645
:1006FC00E4CEFBE4CDFAE4CCF9A88222B800C1B96F
:10070C000059BA002DEC8BF084CFCECDFCE5F0CBAC
:10071C00F97818EF2FFFEE33FEED33FDEC33FCEBE5
:10072C0033FB10D703994004EB99FB0FD8E5E4F9A0
:10073C00FA227818EF2FFFEE33FEED33FDEC33FC8D
:10074C00C933C910D7059BE99A4007EC9BFCE99A81
:10075C00F90FD8E0E4C9FAE4CCFB2275F010EF2FC6
:10076C00FFEE33FEED33FDCC33CCC833C810D707C6
:10077C009BEC9AE899400AED9BFDEC9AFCE899F801
:0E078C000FD5F0DAE4CDFBE4CCFAE4C8F92294
:0E079A00C3E49FFFE49EFEE49DFDE49CFC2270
:1007A800E8600FECC313FCED13FDEE13FEEF13FF2F
:0307B800D8F12253
:0C07BB00ECF0A3EDF0A3EEF0A3EFF022B1
:1007C700A8828583F0D083D0821207DE1207DE125B
:1007D70007DE1207DEE473E493A3C583C5F0C58380
:1007E700C8C582C8F0A3C583C5F0C583C8C582C87C
:0107F70022DF
:1007F800F8E0FBA3A3E0F925F0F0E582158270028A
:070808001583E0FA38F0222D
:09080F00EBF0A3EAF0A3E9F022EA
:10081800D083D082F8E4937012740193700DA3A36F
:1008280093F8740193F5828883E473740293686083
:06083800EFA3A3A380DF83
:10083E00D083D082F8E4937012740193700DA3A349
:10084E0093F8740193F5828883E473740293B5F080
:0D085E00067403936860E9A3A3A3A380D8E8
:102ACC00EFB40A07740D122AD7740A309811A8991A
:102ADC00B8130CC2983098FDA899C298B811F6306A
:072AEC0099FDC299F5992242
:00000001FF
