:102D2C00554E415554484F52495A454420434152FF
:052D3C0044200D0A0017
:1029C100C1014100A5004100A2004100A100420057
:1029D100AF000042009F00004500BFD30203AD00DD
:1029E1004500C4636F66AC00C103C106C102C107E3
:1029F100C105C1044200A300004400B90000000069
:102A01004400B1000000004200A600004200B500F1
:072A1100004100D500C100E7
:03000B00021C6F65
:101C6F00C0E0C0F0C083C082C0D075D000C000C03B
:101C7F0001C002C003C004C005C006C007C09175F3
:101C8F008C00758A10C28DC39000A4E0940290005E
:101C9F00A3E094005003021D409000A2E09428405E
:101CAF0003021D40D201122627AC06AD07E4120233
:101CBF00329000971208261226BCAC06AD07E4122C
:101CCF00023290009B120826900097E0FCA3E0FDE3
:101CDF00A3E0FEA3E0FF12026B9000A2E025E02438
:101CEF0033F582E43400F583EEF0A3EFF090009B20
:101CFF00E0FCA3E0FDA3E0FEA3E0FF12026B900067
:101D0F00A2E025E024E2F582E43400F583EEF0A3AF
:101D1F00EFF09000A2E004F0A3E4F0A3F09000979E
:101D2F001208320000000090009B120832000000E1
:101D3F00009000A4E004F070069000A3E004F0D03F
:101D4F0091D007D006D005D004D003D002D001D057
:0C1D5F0000D0D0D082D083D0F0D0E03291
:0B28FC00900250EBF0A3EAF0A3E9F01B
:10290700E4900255F0A3F09000DFEDF0900254E060
:10291700FF9000DFE0FED39F5035900250E0FBA30D
:10292700E0FAA3E0F975F002EEA4F58285F08312D0
:102937000691FFAEF0C3900256E09F900255E09ECD
:102947005005EEF0A3EFF09000DFE004F080BD90BB
:072957000255E0FEA3E0FFC2
:01295E002256
:0B289600900250EBF0A3EAF0A3E9F081
:1028A100900255741FF0A374FFF09000DFEDF090DB
:1028B1000254E0FF9000DFE0FED39F5035900250BC
:1028C100E0FBA3E0FAA3E0F975F002EEA4F582853E
:1028D100F083120691FFAEF0D3900256E09F900272
:1028E10055E09E4005EEF0A3EFF09000DFE004F02C
:0A28F10080BD900255E0FEA3E0FF59
:0128FB0022BA
:101419009000A2E0FFD3942750030214C0E4900087
:10142900DDF0A3F09000BDF0A3F09000DBF0A3F095
:101439009000B7F0A3F07B017A007933EF24FE9096
:101449000254F0E4FD1228FC9000DDEEF0A3EFF069
:101459007B017A0079E29000A2E024FE900254F028
:101469001228FC9000BDEEF0A3EFF07B017A007921
:10147900339000A2E024FE900254F01228969000C6
:10148900DBEEF0A3EFF0E49000A2F0C39000DEE001
:101499009FFF9000DDE09EFE9000B0E02FF09000ED
:1014A900AFE03EF09000BDE0FFA3E090009FCFF0D9
:1014B900A3EFF0A3E004F09000A1E0F9C394205059
:1014C900030216269000AFE0FEA3E0FFE9FD7C00D1
:1014D9001206109000AFEEF0A3EFF0E49000A1F037
:1014E900AD07AC06120232E4FBFA793478431201F3
:1014F900179000B912082690009FE0FCA3E0FDE4D4
:101509001202327B347A337953783A12000E900002
:10151900B11208267F337E337D7B7C419000B9E090
:10152900F8A3E0F9A3E0FAA3E0FB1201B4600C40D0
:101539000A9000D5E004F0D206800D9000D5E0C3F2
:10154900648094835002C2067F8F7EC27D257C40D1
:101559009000B1E0F8A3E0F9A3E0FAA3E0FB1201DF
:10156900B4602240209000B5E475F00112067BFEBC
:10157900C3E5F09405EE94004036E49000B5F0A37D
:10158900F0D207802B30071F7F9A7E997D197C4006
:101599009000B1E0F8A3E0F9A3E0FAA3E0FB12019F
:1015A900B45004C2078009E49000B5F0A3F0C20763
:1015B9007F337E337DB37C3F9000B1E0F8A3E0F93F
:1015C900A3E0FAA3E0FB1201B4501F9000A6E47552
:1015D900F00112067BFEC3E5F09405EE9400403D50
:1015E900E49000A6F0A3F0D205229000A6E07004D2
:1015F900A3E06401701EFFFE7DC07C3F9000B1E056
:10160900F8A3E0F9A3E0FAA3E0FB1201B4600540F6
:0E16190003C20522E49000A6F0A3F0C2052251
:0B2AF100900250EBF0A3EAF0A3E9F024
:102AFC00E4FFFE900253E0FBA3E0FAA3E0F98F821F
:102B0C008E831205AFFD900250E0FBA3E0FAA3E028
:102B1C00F98F828E83ED1205EE0FBF00010EEF646C
:042B2C00054E70CF13
:012B30002282
:100FD100A2AF9218C2AF75C7AA75C755E4F591A221
:100FE1001892AF53B1EF43B210A2AF9218C2AF75CE
:100FF100C7AA75C755F591A21892AF53B3FB43B475
:1010010004A2AF9218C2AF75C7AA75C755F591A2D0
:101011001892AF53B3F743B408A2AF9218C2AF7599
:10102100C7AA75C755F591A21892AF53B3EF43B450
:1010310010C2847F06121B64A2AF9218C2AF75C79B
:10104100AA75C755E4F591A21892AF53B1BF53B237
:10105100BF53890F438E0890025404F0A312083243
:101061000001C2007F007E367D6E7C01121A53D2D0
:10107100A9D2AFD28C121D6BC292C293C294D292EA
:10108100C293C2947FB87E0B122C22122B313001F5
:1010910005C2011214197B017A0079CE7F2612272D
:1010A100C19000A5EFF07B017A0079CE1221B890B2
:1010B10000A5EFF060030211A3C294C293C2927F14
:1010C100C8FE122C22D2927FC87E00122C22C2921C
:1010D1007FC87E00122C22D2929000BFE0FF9000C8
:1010E100CEE0FEB507249000C0E0FF9000CFE0B550
:1010F10007189000C1E0FF9000D0E0B5070C900008
:10110100C2E0FF9000D1E06F602C9000C4E06E60FF
:1011110003021198A3E0FF9000CFE06F7079900077
:10112100C6E0FF9000D0E06F706D9000C7E0FF90C7
:1011310000D1E06F70612003179002537401F0A396
:101141007400F0A374CEF07B017A0079A8122AF121
:101151009000A8E0FF9000CEE06F70359000A9E00C
:10116100FF9000CFE06F70299000AAE0FF9000D0BF
:10117100E0B5071D9000ABE0FF9000D1E0B507118D
:10118100E49000D5F0200302D202300302C202B281
:10119100037FD07E0780127BFF7A2D792C120941C3
:1011A100800A122B317F197E00122C2230020F206F
:1011B100060C200709200506D284D2008004C284CF
:1011C100C200300009D293C294C29202108F30043F
:1011D10009C293D294C29202108F200606200703FF
:1011E10030051BC293C292C2937FF47E01122C225E
:1011F100D2947FF47E01122C22C29402108FC293EA
:07120100C294D29202108F8B
:102C2200E4FDFCE4FBFAC3EB9FEE6480F8EA648007
:102C32009850070BBB00010A80EC0DBD00010CBCD3
:052C420005E1BD10DEFC
:012C4700226A
:062C48001205AFFD7F093B
:102C4E00900269EDF0C295EF25E0547EFF122D7AC9
:0B2C5E00900269E0FF122D7AD295224F
:102C8A00C295EF25E0547E4480FF122D7A900269A6
:0C2C9A00E0FF122D61900269EFF0D2956E
:012CA600220B
:0A2CDF00900268EDF0900267EFF03C
:102CE900122C8AAE07900267E0FFA3E04EFD022C8A
:012CF9004E8C
:0A2CA700900268EDF0900267EFF074
:102CB100122C8AAE07900267E0FFA3E0F45EFD02EA
:022CC1002C4E97
:102D41007F14122C8A7D037F14122CDF7F37022C13
:012D51008AF7
:072D97007D037F14022CA74D
:072D9E007D0F7F01022C4EA6
:102B3100C295D297122D9E7D8D7F2A122C4E7D3EFD
:102B41007F2B122C4E7D1E7F2D122C4EE4FD7F2CEF
:102B5100122C4E7D407F15122C4E7D3D7F11122C83
:092B61004E7F37122C8A022D412F
:1012080090025AF0A37401F0A37402F0A3749CF046
:10121800A37401F0A37402F0A3749AF07A02799C83
:041228007B017F0CBB
:10122C00900257EBF0A3EAF0A3E9F0900256EFF02E
:10123C009002617402F0E4A3F0A3F0EF24F46010C8
:10124C0024FE70169002627412F0A37410F0800ADF
:10125C009002627477F0A37430F0900262E04480E4
:10126C00FD7F02122C4E7D807F04122CA77D807F87
:10127C000A122CDFE4FD7F01122C4EE4900265F083
:10128C00A3F090025AE0FF900265E0FCA3E0FDC3DE
:10129C009FEC94005022900257E0FBA3E0FAA3E0ED
:1012AC00F98D828C83122C48900266E004F070D287
:1012BC00900265E004F080CA900256E0FD7F0112B6
:1012CC002C4E900256E0B40C077D807F0D122CDF63
:1012DC009002657407F0A374D0F07F04122C8A90EE
:1012EC000264EFF0900266E024FFF0900265E034B7
:1012FC00FFF0E07002A3E06011900264E0FF20E0D8
:10130C0009900263E0FEEF5E60D07D807F0D122CB1
:10131C00A7900265E07002A3E070030214137F062D
:10132C00122C8AEF541B600302140D900261F0A37F
:10133C00E0FF900264E05F30E0069002617401F01F
:10134C00900256E0640C60030214137F0A122C8A7C
:10135C00900264EFF07F0C122C8AEF5407FD602989
:10136C00900264E024FFFFE434FFFEEF7803C33304
:10137C00CE33CED8F97C002DFFEC3EF990025EE026
:10138C00FBA3E0FAA3E0C98016900264E075F008B4
:10139C00A4FF90025EE0FBA3E0FAA3E0F9E5F08F76
:1013AC00F01206C9900264E0700204F0900264E04E
:1013BC00D3941040037410F0E4900265F0A3F09005
:1013CC000264E0FFC3900266E09F900265E0940027
:1013DC0050357F09122C8A90025BE0FBA3E0FAA344
:1013EC00E0F9900265E0FCA3E0F5828C83EF120536
:1013FC00EE900266E004F070C6900265E004F080A6
:0C140C00BE9002617402F0900261E0FFEB
:0114180022B1
:0E27C100900250EFF0A3EBF0A3EAF0A3E9F0D2
:1027CF007D077F0D122C4E900250E0FFA3E0FBA37C
:1027DF00E0FAA3E0F9EF1205DC90025A7401F090D1
:1027EF000251E0F9A3E0FAA3E090025BC9F0A3EA7B
:1027FF00F0A3E9F0A37401F0A37402F0A37454F0F2
:10280F00900251E0FBA3A3E0F97F0C12122CEF70A2
:0F281F000C900254E07004A3E0641060027F028A
:01282E002287
:0B21B800900250EBF0A3EAF0A3E9F066
:1021C300E4A3F0FD7F0D122C4E900250E0FBA3E040
:1021D300FAA3E0F974931205DC900250E0FBA3E04C
:1021E300FAA3E0F990000174201205EEC002C001C9
:1021F30090025A7402F0900250E0F9A3E0FAA3E0CF
:1022030090025BC9F0A3EAF0A3E9F0A37401F0A381
:102213007402F0A37454F0D001D0027F0C12122C7C
:10222300AC07EC7044FD900253E0FF900250E0FBDA
:10223300A3E0FAA3E0F98D827583001205AFFEEFE8
:102243006E900253F00DEDB404DC900250E0FBA35A
:10225300E0FAA3E0F9AF058F827583001205AFFFA3
:0B226300900253E06F60027C02AF04A9
:01226E00224D
:062459007B017A02799C70
:0E245F009002F1EBF0A3EAF0A3E9F0A3EDF098
:10246D007D047F05122CA77D807F0A122CDFE4905E
:10247D0002F8F09002F4E0FF9002F8E0FEC39F50E6
:10248D001B9002F1E0FBA3E0FAA3E0F98E827583C5
:10249D0000122C489002F8E004F080D77D037F01F4
:1024AD00122C4E9002F874FFF07F05122C8A9002C8
:1024BD00F8E014F0E06004EF30E2EE7F22122C8A97
:1024CD009002F5E0FBA3E0FAA3E0F9EF1205DC7F43
:1024DD0021122C8A9002F5E0FBA3E0FAA3E0F9901B
:0624ED000001EF0205EE04
:0B24F3009002AEEBF0A3EAF0A3E9F0CA
:1024FE009002B47493F0A37470F0E4FF9002AEE017
:10250E00FBA3E0FAA3E0F98F827583001205AFFEFC
:10251E0074B62FF582E43402F583EEF00FEFB405B6
:10252E00DB9002F57401F0A37402F0A374BBF07B90
:10253E00017A0279B47D0712245F90025A7409F071
:10254E00A37401F0A37402F0A374B4F0A37401F0A9
:10255E00A37402F0A374B2F07A0279B4121228EFC7
:10256E0070129002B2E07004A3E06418700690023C
:0E257E00B4E08001E49002B1F09002B1E0FF01
:01258C00222C
:0B226F00900282EBF0A3EAF0A3E9F07C
:10227A0090028BEFF0A3EDF0E4FF900282E0FBA363
:10228A00E0FAA3E0F98F827583001205AFFE748D20
:10229A002FF582E43402F583EEF00FEFB406DBE4A7
:1022AA00FF900285E0FBA3E0FAA3E0F98F82758331
:1022BA00001205AFFE74932FF582E43402F583EE23
:1022CA00F00FEFB404DB90025A740CF0A37401F01F
:1022DA00A37402F0A3748BF0A37401F0A37402F048
:1022EA00A37489F07B017A02798B7F0E12122C90EB
:1022FA000288EFF070097F08122C8AEF20E306901B
:0A230A0002887402F0900288E0FFE0
:0123140022A6
:0B23B90090030DEBF0A3EAF0A3E9F0A5
:1023C40090030DE0FBA3E0FAA3E0F974301205DCFE
:1023D40090030DE0FBA3E0FAA3E0F9900001EF12F3
:1023E40005EEC003C002C00190030DE0FBA3E0FAB8
:1023F400A3E02402F9E43AFA9002F5EBF0A3EAF040
:10240400A3E9F0D001D002D0037D0212245F900230
:102414005A7404F090030DE0F9A3E0FAA3E09002EB
:102424005BC9F0A3EAF0A3E9F0A37401F0A3740379
:10243400F0A37410F090030DE0FBA3A3E0F97F0C6C
:1024440012122CEF700C900310E07004A3E064905F
:0424540060027F02A1
:012458002261
:0B231500900297EBF0A3EAF0A3E9F0C0
:1023200090029C74A0F0A3EFF09002F57401F0A36A
:102330007402F0A3749EF07D0212245974041212E8
:1023400008EF701690029AE07004A3E06404700A2B
:1023500090029CE0540F640A60027F02EF7059FE05
:10236000900297E0FBA3E0FAA3E0F98E8275830068
:102370001205AFFD749C2EF582E43402F583EDF076
:102380000EEEB410DB9002F57401F0A37402F0A31A
:1023900074ACF07D101224597412121208EF7016EA
:1023A00090029AE07004A3E06404700A90029CE03A
:0823B000540F640A60027F0271
:0123B8002202
:102A1D009003037450F0E4A3F07B019002F504F0F1
:102A2D00A37403F0A37405F07A0379037D021224D5
:102A3D005F90025A7404F0A37401F0A37403F0A321
:102A4D007403F0A37401F0A37403F0A37401F07B7D
:0A2A5D00017A0379037F0C02122CAA
:101D6B00A2AF9218C2AF75C7AA75C755E4F591A279
:101D7B001892AF53B3DF53B4DFA2AF9218C2AF7553
:101D8B00C7AA75C755F591A21892AF53B3FE53B4BA
:101D9B00FEA2AF9218C2AF75C7AA75C755F591A22F
:101DAB001892AF53B1FE53B2FEA2AF9218C2AF75E9
:101DBB00C7AA75C755F591A21892AF53B1FD53B28F
:101DCB00FD43F408A2AF9218C2AF75C7AA75C755E9
:101DDB00F591A21892AF53F37FA2AF9218C2AF75D1
:101DEB00C7AA75C755F591A21892AF53F3DFA2AFEF
:101DFB009218C2AF75C7AA75C755F591A21892AFC5
:101E0B0053F3F7A2AF9218C2AF75C7AA75C755F5B2
:101E1B0091A21892AF53F3FBA2AF9218C2AF75C742
:101E2B00AA75C755F591A21892AF43F310A2AF92C2
:101E3B0018C2AF75C7AA75C755F591A21892AF53C3
:101E4B00F3FCA2AF9218C2AF75C7AA75C755F5912F
:0B1E5B00A21892AF43F34053F47F2223
:0B2D7A008FF5E5F430E7FB53F47F22F7
:0C2D61008FF5E5F430E7FBAFF553F47F8D
:012D6D002243
:040003008F828E83D7
:03000700E493FF80
:01000A0022D3
:0B2D6E00EF448075C7AA75C755F59F9C
:012D79002237
:092D85003016054387020000220C
:092D8E0030170543870100002203
:061F5A009002D6120826D9
:101F6000538EF75389F04389017B407A42790F7889
:101F7000009002D6E0FCA3E0FDA3E0FEA3E0FF1288
:101F80000773A804A905AA06AB079002DCE0FEA32C
:101F9000E0FFE4FCFD1206E8E47B0CFAF9F8120716
:101FA00073C374FF9FFF74FF9EE49DE49C9002DE68
:101FB000EFF07B407A42790F78009002D6E0FCA3E4
:101FC000E0FDA3E0FEA3E0FF120773A804A905AAA1
:101FD00006AB079002DCE0FEA3E0FFE4FCFD120686
:101FE000E8E47B0CFAF9F8120773C374FF9FFF74DF
:101FF000FF9EFEE49DFDE49CFC780812081390020D
:10200000DAE07002A3E060219002DEE0F58A8F8CB6
:10201000D28C308DFDC28DC28C9002DBE024FFF0AB
:092020009002DAE034FFF080D5F3
:012029002294
:06202A009002DF120826FF
:10203000538EEF53890F4389107B407A42790F7892
:10204000009002DFE0FCA3E0FDA3E0FEA3E0FF12AE
:102050000773A804A905AA06AB079002E5E0FEA352
:10206000E0FFE4FCFD1206E8E47B0CFAF9F8120745
:1020700073C374FF9FFF74FF9EE49DE49C9002E78E
:10208000EFF07B407A42790F78009002DFE0FCA30A
:10209000E0FDA3E0FEA3E0FF120773A804A905AAD0
:1020A00006AB079002E5E0FEA3E0FFE4FCFD1206AC
:1020B000E8E47B0CFAF9F8120773C374FF9FFF740E
:1020C000FF9EFEE49DFDE49CFC780812081390023C
:1020D000E3E07002A3E060219002E7E0F58B8F8DD2
:1020E000D28E308FFDC28FC28E9002E4E024FFF0CA
:0920F0009002E3E034FFF080D51A
:0120F90022C4
:061904009002BD1208264E
:10190A00E4F5919002C1E0FEA3E08EF01208A91955
:10191A003D000119420004194A0010195200201909
:10192A005A004019620080196A0100197202000007
:10193A0000197853C98F803653C98F43C910802E36
:10194A0053C98F43C920802653C98F43C930801E8B
:10195A0053C98F43C940801653C98F43C950800E5B
:10196A0053C98F43C960800653C98F43C970C2C81F
:10197A0043C98043C9047B407A42790F78009002B8
:10198A00BDE0FCA3E0FDA3E0FEA3E0FF1207739015
:10199A0002C5E0F8A3E0F9A3E0FAA3E0FB1206E827
:1019AA00C006C0079002C1E0FEA3E0FBAA06E4F964
:1019BA00F8D007D006120773C3E49FFFE49E7401B0
:1019CA009DE49C9002C9EFF07B407A42790F78003F
:1019DA009002BDE0FCA3E0FDA3E0FEA3E0FF120736
:1019EA00739002C5E0F8A3E0F9A3E0FAA3E0FB12C2
:1019FA0006E8C006C0079002C1E0FEA3E0FBAA0603
:101A0A00E4F9F8D007D006120773C3E49FFFE49EF7
:101A1A00FE74019DFDE49CFC78081208139002C331
:101A2A00E07002A3E060219002C9E0F5CC8FCDD22C
:101A3A00CA30CFFDC2CFC2CA9002C4E024FFF090E0
:081A4A0002C3E034FFF080D577
:011A52002271
:061627009002CA12082621
:10162D00E4F5919002CEE024FE602124FE60252495
:10163D00FC602924F8602D24F0603124E06035240D
:10164D00C06039247F703B53C4F8803653C4F843CF
:10165D00C401802E53C4F843C402802653C4F843FA
:10166D00C403801E53C4F843C404801653C4F84306
:10167D00C405800E53C4F843C406800653C4F84312
:10168D00C4077B407A42790F78009002CAE0FCA330
:10169D00E0FDA3E0FEA3E0FF1207739002D1E0F896
:1016AD00A3E0F9A3E0FAA3E0FB1206E8C00790025D
:1016BD00CEE0FBE4FAF9F8D007120773C3E49FFFFD
:1016CD00E49E74019DE49C9002D5EFF07B407A423C
:1016DD00790F78009002CAE0FCA3E0FDA3E0FEA321
:1016ED00E0FF1207739002D1E0F8A3E0F9A3E0FA4E
:1016FD00A3E0FB1206E8C0079002CEE0FBE4FAF986
:10170D00F8D007120773C3E49FFFE49EFE74019D9A
:10171D00FDE49CFC78081208139002CFE07002A340
:10172D00E06074A2AF9218C2AF75C7AA75C755E431
:10173D00F591A21892AF53C4EF9002D5E0F5C58F85
:10174D00C6A2AF9218C2AF75C7AA75C755E4F59179
:10175D00A21892AF43C408E5C430E4FBA2AF9218BF
:10176D00C2AF75C7AA75C755E4F591A21892AF53CC
:10177D00C4EFA2AF9218C2AF75C7AA75C755F59140
:10178D00A21892AF53C4F79002D0E024FFF090025C
:07179D00CFE034FFF0808271
:0117A4002222
:102CC300EF14600D14600D14600E2403700DD2A96F
:0C2CD30022D2AB22439B8022439C0222B1
:101B6400A2AF9218C2AF75C7AA75C755439F01A209
:101B74001892AFE4F591EF24F9600C146009240283
:101B8400700875A638800375A630E4F5A775AF0410
:101B9400A2AF9218C2AF75C7AA75C75543A401A2D4
:101BA4001892AF85AE0805A6A2AF9218C2AF75C74A
:101BB400AA75C75543A401A21892AF85AE09EF24B4
:101BC400F86003021C49E50825E0FFE50954012FEC
:101BD400FF54C0F50BEF543FF50A74F22FFF75AFB5
:101BE4000C75A601E4F5A7A2AF9218C2AFA2AF92FA
:101BF40018C2AF75C7AA75C75543AA40A21892AFB9
:101C040075C7AA75C75543A401A21892AFE5AE647F
:101C14004B600BE5AE64526005E5AEB45322E50AB1
:101C2400C3940F5017E50B6440600BE50B648060B0
:101C340005E50BB4C00A74F22FFF800474FC2FFF77
:101C4400EFC313F50875C7AA75C75585088475C70A
:101C5400AA75C755850985A2AF9218C2AF75C7AAE0
:0A1C640075C755539FFEA21892AFFA
:011C6E002253
:102AAF00EF24FD6011146012240270357F02122B87
:102ABF009F7F0202295F7F0380117F02122B9F7F6E
:102ACF000212295F7F04122B9F7F0412295FA2AF8E
:102ADF009218C2AF75C7AA75C7555397DFA2189240
:022AEF00AF2214
:102B9F00EF24FC601E24027028A2AF9218C2AF75FA
:102BAF00C7AA75C755439720A21892AFE59620E59F
:102BBF001080F975C7AA75C7554397C0E59630E3DE
:022BCF00FB22E7
:102BD100E4F591EF24FC60182402701DA2AF921855
:102BE100C2AF75C7AA75C7555397DFA21892AF2216
:0A2BF10075C7AA75C75553973F2218
:10295F00E4F591A2AF9218C2AFEF24FD6018146096
:10296F003924027048A2AF9218C2AF75C7AA75C7B3
:10297F00555396FB800FA2AF9218C2AF75C7AA75B9
:10298F00C755439604A21892AFA2AF9218C2AF7563
:10299F00C7AA75C7555396FD800FA2AF9218C2AF45
:1029AF0075C7AA75C755439608A21892AFA2189279
:0229BF00AF2245
:042A1800C113C11411
:101A5300900250120826900254E014605B146079DF
:101A630024026003021B63759850438920438780D7
:101A7300438E10A2AF9218C2AF75C7AA75C755E4BB
:101A8300F591A21892AF53C4DF7B10FAF9F89002D4
:101A930050E0FCA3E0FDA3E0FEA3E0FF1207739078
:101AA3000255E0F8A3E0F9A3E0FAA3E0FB12077301
:101AB300EFF404F58DD28E2275985043878053C47A
:101AC300F8A2AF9218C2AF75C7AA75C755E4F591CE
:101AD300A21892AF43C420800775F85075C480E400
:101AE3007B10FAF9F8900250E0FCA3E0FDA3E0FEBE
:101AF300A3E0FF120773900255E0F8A3E0F9A3E017
:101B0300FAA3E0FB120773C3E49FFFE49EFE740194
:101B13009DFDE49CFC78081208138FC6E47B10FA41
:101B2300F9F8900250E0FCA3E0FDA3E0FEA3E0FF80
:101B3300120773900255E0F8A3E0F9A3E0FAA3E0DB
:101B4300FB120773C3E49FFFE48FC5A2AF9218C2D1
:101B5300AF75C7AA75C755F591A21892AF43C408CC
:011B6300225F
:102C6900C091E4F591EF14600C047012C2998D992A
:102C790020990B80FBC2F9AF058F9A20F9FDD091FD
:012C89002228
:102B6A00A2AF9218C2AF75C7AA75C755E4F591A26C
:102B7A001892AF53B1BF53B2BF900254F0A31208D8
:102B8A00320001C2007F007E367D6E7C01121A532C
:052B9A00D299D21322C4
:102A6700AB07E4F591ED540FF5CEECC4F854F0C87C
:102A7700EDC4540F48F5CFEB6017A2AF9218C2AF61
:102A870075C7AA75C755E4F591A21892AF43E2201E
:102A970022A2AF9218C2AF75C7AA75C755E4F591C0
:082AA700A21892AF53E2DF22F6
:102CFA00E4F59153E18FEF5407C454F042E153E2F3
:092D0A00F1ED540725E042E2223C
:10275100A2AF9218C2AF75C7AA75C755439F01A210
:102761001892AF75AF0475A60DE4F5A7A2AF921844
:10277100C2AF75C7AA75C75543A401A21892AFE5A8
:10278100AE540FFD75A60CE4F5A7A2AF9218C2AF27
:1027910075C7AA75C75543A401A21892AFAFAEEF92
:1027A10075F010A47C002DFFEC35F0FEA2AF92185D
:0F27B100C2AF75C7AA75C755539FFEA21892AF46
:0127C00022F6
:10262700A2AF9218C2AF75C7AA75C755E4F591A2B4
:102637001892AF53E8F043E806A2AF9218C2AF75FD
:10264700C7AA75C755F591A21892AF43B10853B2FF
:10265700F7F5F643F64043E101A2AF9218C2AF7512
:10266700C7AA75C755F591A21892AFC2EFA2AF924C
:1026770018C2AF75C7AA75C755F591A21892AFD200
:10268700EE30EFFDAFC37E00EFC4F8540FC868FF0C
:10269700EEC454F048FEE5C2540FFDEF4DFFA2AF64
:1026A7009218C2AF75C7AA75C755E4F591A21892DB
:0426B700AF53E1FE3E
:0126BB0022FC
:1026BC00A2AF9218C2AF75C7AA75C755E4F591A21F
:1026CC001892AF53E8F043E807A2AF9218C2AF7567
:1026DC00C7AA75C755F591A21892AF43B30253B46C
:1026EC00FDF5F643F68043E101A2AF9218C2AF7537
:1026FC00C7AA75C755F591A21892AFC2EFA2AF92B7
:10270C0018C2AF75C7AA75C755F591A21892AFD26A
:10271C00EE30EFFDAFC37E00EFC4F8540FC868FF76
:10272C00EEC454F048FEE5C2540FFDEF4DFFA2AFCE
:10273C009218C2AF75C7AA75C755E4F591A2189245
:04274C00AF53E1FEA8
:012750002266
:0B17A500900307EEF0A3EFF0A3EDF0BF
:1017B000E4A3F0900307E0FEA3E07807CEC313CEC6
:1017C00013D8F97807C333CE33CED8F9FF90030B83
:1017D000EEF0A3EFF0E490030AF090030AE0FFC3F9
:1017E0009480502990030CE02FFF90030BE034000D
:1017F000FE1200037E0090030AE024D0F582E43458
:1018000001F583EFF090030AE004F080CD90030926
:10181000E0FF7C00900308E0547F24D0F582EC3494
:1018200001F583EFF090030BE0FEA3E0F5A6EEF5E3
:10183000A775AEFFA2AF9218C2AF75C7AA75C755FC
:10184000439F01A21892AFA2AF9218C2AF75C7AA68
:1018500075C75543A501A21892AF75AF22A2AF92EA
:1018600018C2AF75C7AA75C75543A401A21892AF95
:10187000A2AF9218C2AF75C7AA75C755439F01A200
:101880001892AFA2AF9218C2AF75C7AA75C75543D9
:10189000A501A21892AF75AF21E490030AF090035E
:1018A0000AE0FDC394805035A3E0FEA3E0FCED2CDC
:1018B000F5A6EEF5A774D02DF582E43401F583E0AA
:1018C000F5AEA2AF9218C2AF75C7AA75C75543A4AB
:1018D00001A21892AF90030AE004F080C1A2AF9277
:1018E00018C2AF75C7AA75C75553A5FEA21892AF07
:1018F000A2AF9218C2AF75C7AA75C755539FFEA273
:031900001892AF8B
:0119030022C1
:1020FA009002F9EEF0A3EFF0A3EBF0A3EAF0A3E964
:01210A00F0E4
:10210B009002F9E0FCA3E0FDAE047807CEC313CE3A
:10211B0013D8F9FB9002FEE0FEA3E02DFFEC3EFE90
:10212B00EF7807CEC313CE13D8F9900300F09003CA
:10213B0000E06B60539002F9E0FEA3E0FFA3E0FB2D
:10214B00A3E0FAA3E0F990014B7480F0120D59ADA6
:10215B00079002FAE02FF09002F9E03400F09002C1
:10216B00FCE48FF0120665C39002FFE09FF0900233
:10217B00FEE09400F09002F9E0FEA3E07807CEC3F6
:10218B0013CE13D8F9FB80A69002FEE0FCA3E0FD72
:10219B004C60199002F9E0FEA3E0FFA3E0FBA3E083
:0C21AB00FAA3E0F990014BEDF0120D5981
:0121B7002205
:10282F009002E8EEF0A3EFF0A3EBF0A3EAF0A3E938
:01283F00F0A8
:10284000E49002EFF0A3F09002EDE0FEA3E0FFA31E
:10285000E0FCA3E0FDC39FEC9E503A9002E9E02D1E
:10286000FF9002E8E03C8F82F583E493FF9002EA58
:10287000E0FBA3E0FAA3E0F99002EFA3E0F5828C7D
:1028800083EF1205EE9002F0E004F070BA9002EFD0
:05289000E004F080B23D
:012895002220
:100D5900900146EEF0A3EFF0A3EBF0A3EAF0A3E9CC
:010D6900F099
:100D6A00A2AF9218C2AF75C7AA75C755439F01A211
:100D7A001892AFA2AF9218C2AF75C7AA75C75543EA
:100D8A00A501A21892AF900146E0FEA3E0FF547FAE
:100D9A00FD90014DF0C374809DFD90014CF09001CF
:100DAA004BE0D39D4006A3E090014BF090014EEE3C
:100DBA00F0A3EFF0E490014CF090014BE0FFA3E0C8
:100DCA00FEC39F501B90014EE0FCA3E02EF582E487
:100DDA003CF583E493B4FF0890014CE004F080D919
:100DEA00EE6F6003020E9075AF21900146E0FEA3FC
:100DFA00E0F5A6EEF5A7E490014CF090014BE0FF78
:100E0A00A3E0FEC39F5032900148E0FBA3E0FAA39F
:100E1A00E0F98E827583001205AFF5AEA2AF921883
:100E2A00C2AF75C7AA75C75543A401A21892AF05E8
:100E3A00A690014CE004F080C2E490014CF09001CD
:100E4A004BE0FFA3E0FEC39F502F900148E0FBA3B5
:100E5A00E0FAA3E0F98E827583001205AFFF9001D4
:100E6A004EE0FCA3E02EF582E43CF583E493B5075B
:100E7A000890014CE004F080C590014BE0FFA3E02C
:100E8A006F7003020FB8900146E0FFA3E054809010
:100E9A00014ECFF0A3EFF0E490014CF090014CE04A
:100EAA00FF90014EE0FCA3E02FF582E43CF583E4D9
:100EBA0093FE74502FF582E43401F583EEF090012D
:100ECA004CE004F0E0B480D4E490014CF090014B83
:100EDA00E0FFA3E0C39F5031900148E0FBA3E0FA92
:100EEA00A3E0F990014CE0FFF5827583001205AF8B
:100EFA00FE90014DE02F2450F582E43401F583EE93
:100F0A00F090014CE004F080C4900146E0FEA3E0BA
:100F1A005480F5A6EEF5A775AF2275AEFFA2AF9283
:100F2A0018C2AF75C7AA75C75543A401A21892AFD4
:100F3A0075AF21E490014CF090014CE0FFC394801E
:100F4A00502A74502FF582E43401F583E0F5AEA2FD
:100F5A00AF9218C2AF75C7AA75C75543A401A218A4
:100F6A0092AF05A690014CE004F080CCE490014CCD
:100F7A00F090014CE0FFC39480502BE0FE90014EAC
:100F8A00E0FCA3E02EF582E43CF583E493FD745083
:100F9A002EF582E43401F583E0FEEDB506089001F2
:100FAA004CE004F080CBEF64806003020F13A2AF21
:100FBA009218C2AF75C7AA75C755539FFEA2189259
:060FCA00AF90014BE0FFB7
:010FD00022FE
:101E6600E4F591A2AF9218C2AFEF8EF01208A91E48
:101E76009900011EA500041EB900081ECD00101E03
:101E8600E100201EF500401F0900801F1D01000013
:101E9600001F2F75C7AA75C75553AAF8021F2F75BD
:101EA600C7AA75C75553AAF875C7AA75C75543AAD1
:101EB60001807675C7AA75C75553AAF875C7AA755E
:101EC600C75543AA02806275C7AA75C75553AAF8B3
:101ED60075C7AA75C75543AA03804E75C7AA75C7A5
:101EE6005553AAF875C7AA75C75543AA04803A750B
:101EF600C7AA75C75553AAF875C7AA75C75543AA81
:101F060005802675C7AA75C75553AAF875C7AA7559
:101F1600C75543AA06801275C7AA75C75553AAF8AE
:101F260075C7AA75C75543AA07A21892AFA2AF9262
:101F360018C2AF75C7AA75C75543AA10A21892AFA3
:101F4600A2AF9218C2AF75C7AA75C75543AA80A299
:041F56001892AF220C
:0F2D5200EF146007047007539BEF22439B10227E
:102D1300A2AF9218C2AF75C7AA75C75543AA40A2FE
:092D23001892AFE5AA20E6FB229C
:0300000002258D49
:10258D00787FE4F6D8FD9000007FFF7E08E4F0A38D
:0A259D00DFFCDEFA7581230225E25F
:10000E00EC4D6011E8497017ED33EC3304600DE4EC
:10001E00FCFFFEFD22E933E8330470F80202D7122A
:10002E0002A258046009E4CC24815006285009022B
:10003E0002E12840030202DEC0E0EB4A7044B980C0
:10004E0006D0E0FB0202CDEF4E701CBD8008EBFF28
:10005E00EAFEE9FD80EBE98DF0A4FEE5F00200F783
:10006E00E9CDF9EAFEEBFFEF89F0A4FCE5F0CE89CD
:10007E00F0A42EFFE435F0CD89F0A42DFEE435F08A
:10008E008067EF4E7005BD80D780C3EF8BF0A4ACB8
:10009E00F0EE8BF0A42CFCE435F0F8EF8AF0A42CF3
:1000AE00E5F038FCE433CB8DF0A42CFCE5F03BF806
:1000BE00EE8AF0A42CFCE5F038F8E433CF89F0A4F6
:1000CE002CFCE5F038CF3400CE89F0A42FFFE5F0FC
:1000DE003EFEE433C98DF0A42EFEE5F039CD8AF054
:1000EE00A42FFFE5F03EFEE43DFD33D0E0FB5007CC
:1000FE000BBB000F0202E1EC2CFCEF33FFEE33FEE4
:06010E00ED33FD0202B911
:100114000202E1EC5D046005E8590470030202D7B1
:100124001202A2580460F6EC4860F2EC7004FDFE82
:10013400FF22C860DB2481C85009C39860025006BE
:100144000202DE9850CAF582E9294B4A7005AB8257
:100154000202CD75F0007C1A7880C3EF9BEE9AED15
:1001640099400DC3EF9BFFEE9AFEED99FDE842F036
:10017400DC23ACF0D0E0FFD0E0FED0E0FDAB822089
:10018400E7101BEB60BAEC2CFCEF33FFEE33FEED13
:1001940033FD0202B9E803F830E705C0F075F0005A
:1001A400EF2FFFEE33FEED33FD40B830E7C280AAF7
:1001B40074F8CC6480CCC86480C8F58204604FC3F2
:1001C400EB9FF5F0EA9E42F0E99D42F0E89C45F091
:1001D400603C501DE5825FFFE582D313CB5BCBF41B
:1001E4002B5582FB50280ABA002409B90020088044
:1001F4001DE5825BFBE582D313CF5FCFF4C3132FDE
:100204005582FF50090EBE00050DBD00010CC3EB65
:100214009FF5F0EA9E42F0E99D42F0E89C45F060CB
:0902240007CC4820E701B3EC22ED
:10022D0075F020800E75F010800575F0087D007E4C
:10023D00007F003392D530D503120805EC33401002
:10024D00EF33FFEE33FEED33FDEC33FCD5F0ED2255
:0E025D00E5F0247EA2D513CC92E7CDCEFF2291
:10026B00EDD2E7CD33EC3392D524814006E4FFFE8B
:10027B00FDFC22FCE4CFCECDCC24E0501174FF80EA
:10028B00EDC3CC13CCCD13CDCE13CECF13CF047087
:07029B00F030D5DE0208057A
:1008D600E5082453F582E43402F583E00508229006
:1008E6000250301103900253E475F00112086302BE
:1008F6000596200AE97F2ED20A8018EF540F24901D
:10090600D43440D4FF300E0BEF24BFB41A0050038A
:100916002461FFE50960021509050CE50C70020566
:100926000B30110E900250E475F001120863EF02CD
:1009360005DC022BFB7403D2118003E4C211F50817
:1009460090025012087AE4F509F50BF50CE50960FA
:10095600077F2012091980F5750AFFC20BC20AC269
:100966000CC20DC20FC210C2121208E5FF700D3084
:1009760011057F0012092AAF0CAE0B22B4255FC207
:10098600D5C20E1208E5FF24D0B40A00501A75F03D
:100996000A780930D50508B6FF0106C6A426F62052
:1009A600D5047002D20D80D924CFB41A00EF5004BA
:1009B600C2E5D20E020C1CD20B80C6D20A80C0D26F
:1009C6000C80BCD2D580BAD20F80B47F2012091910
:1009D600200C077401B5090040F11208D6FF120970
:1009E60019020953D212D21080951208D6FB1208AA
:1009F600D6FA1208D6F94A4B7006791A7A0D7BFF99
:100A0600200C2EE509602A7E008E82758300120571
:100A1600AF60060EEE650A70F0C2D5EBC0E0EAC024
:100A2600E0E9C0E0EE120C7DD0E0F9D0E0FAD0E0CB
:100A3600FB120596FF60AAEBC0E0EAC0E0E9C0E061
:100A4600120919D0E02401F9D0E03400FAD0E0FB15
:100A5600E50A0460DCD50AD98087D20C80A2120C84
:100A66005F60F7E50A7001041202ECA90A600DE561
:100A76000A600914F50A120D07EF60F3EA30E7027F
:100A8600F404C3995079EAF4250A0430E701E40432
:100A9600F50A800D120C5F60C1EA050A250A1202EA
:100AA600ECEA90027FF030E701E4250A04D50A0457
:100AB600200F0114120C7DE4C0E0120D0790027F96
:100AC600E0601320E70714F0120901802204F0D039
:100AD600E014C0E07F00120901E50A60071208F879
:100AE600150A800B300F031208F8D0E0020953D024
:100AF600E00480C4120C5F609EE50A041202EC90CA
:100B0600027FEAF0E50A200F026001042404120CB9
:010B16007D61
:100B170074FF04C0E0120D07120901E50A200F0255
:100B270060031208F8D0E0B50AE87F4512090B9078
:100B3700027FE07F2B30E7047F2DF404C0E0120929
:100B470019D0E075F00A84C0F0120902D0E012094A
:100B570002020953791080027908C210C212800874
:100B6700D2D5790A8004790AC2D5E50A047002F55C
:100B77000AE4FAFDFEFF1208D6FC7B08200B1312CD
:100B870008D6FD7B10300A0A1208D6FE1208D6FFD7
:100B97007B20EC3382D592D55013C3E4300A069FED
:100BA700FFE49EFEE4200B039DFDE49CFCE4CBF8F0
:100BB700C20BEC700CCFCECDCCE824F8F870F380E4
:100BC70017C3EF33FFEE33FEED33FDEC33FCEB33AE
:100BD700FB994002FB0FD8E9EB300B05F8D0E0C4D6
:100BE70048B20BC0E00AEC4D4E4F78207B0070C234
:100BF700EAB50A0040BCC0E0120C7FD0F0D0E0207C
:100C07000B04C4C0E0C4B20BC0F0120902D0F0D587
:100C1700F0EB02095312088309F0530B5B5809C123
:100C27004C09BD420B5F4F0B67440B674909D6431D
:100C37000B6D550A9A460AFA450A64470D3A500958
:100C4700C52D09C92E09EC2B09CD2309EA200D234F
:100C57002A098548000009E4E50AB4FF03750A0676
:100C67001208D6FC1208D6FD1208D6FE1208D6FFC7
:100C7700900278020329790AA2D5200D14300F09B2
:100C8700B910020404B9080104A2D52010025001CA
:100C970004200C68920CB509005034C0E07F203066
:100CA7000D197F30A20C7210720F500F120CD6C2A2
:100CB7000CC210C20FC2127F30800F300F03E9C081
:100CC700E0120919300F03D0E0F9D0E0B509CC30B4
:100CD7000F177F30B9100C1209197F58300E077F94
:100CE700788003B90803120919300C057F2D020912
:100CF700197F202012F87F2B2010F322920C80CF2F
:100D07007F00B40700500B2478F582E43402F583A2
:100D1700E0FF22286E756C6C2900D20B1208D630C2
:100D27000BF8C20B780930D50108F60209852D505A
:100D37004349581208D62403B405004001E4900D36
:100D4700359312090A743A12090AD20D7509040279
:020D57000B5B34
:1002A200E9D2E7C933E833F892D5EDD2E7CD33ECA2
:0702B20033FC5002B2D5221B
:1002B900EC30E7100FBF000C0EBE00080DBD0004A6
:1002C9000BEB6014A2D5EB13FCED92E7FD2274FF52
:1002D900FCFDFEFF22E480F8A2D574FF13FC7D80AB
:0302E900E480EFBF
:1002EC00F920E73624F950037907E4F42402FBE5FE
:1002FC0082158270021583DBF6E024FB501BE9604B
:10030C0014E4F0E582158270021583E004F0B40A5F
:0D031C0008E4F0D9EE7401F00A22C2D522E7
:10032900ED33EC3392D5FA602AB4FF33EDC2E77BA3
:10033900FF60067A03794EE4227A03795720D504BF
:100349007A037952224E614E002B494E46002D49BF
:100359004E4600E47A08F0A3DAFC7B00740722C059
:1003690083C082ECC0E0EDC0E0EEC0E0EFC0E0EA9F
:1003790075F010A4CAABF075F04DA42BFBE435F071
:10038900FCEA2410FAEB34C5FBEC34D9FCEDC2E7E6
:10039900FF75F056A4F42411C5F0F434C58FF0A408
:1003A9002AE5F03BE43CF020E714120556D0E0FFC3
:1003B900D0E0FED0E0FDD0E0FC1201178014F40477
:1003C900120556D0E0FFD0E0FED0E0FDD0E0FC12EF
:1003D900000ED082D083E0FAEDD2E7CD33EC33249E
:1003E90082FBE4C3CF33CFCE33CECD33CD33DBF372
:1003F9007B0775F00A846004F0A31B0AE5F0F0A3FB
:100409008FF0740AA4FFACF08EF0740AA42CFEAC31
:10041900F050010C8DF0740AA42CFDE435F0F0A322
:05042900DBDE74072278
:10042E000202D7E86480F8E933E83360110460F023
:10043E00ED33EC337009E8FCE9FDEAFEEBFF220434
:10044E0060DED3EB9FEA9EE99DE8C2E78CF0C2F72F
:10045E0095F0400CE8CCF8E9CDF9EACEFAEBCFFBFB
:10046E001202A285D0F05804700320D5B3E80470B0
:10047E00075002B2D50202E192D5EC0460F7E4CC4B
:10048E00C0E0C398F8603B94186008400DD0E0FBC4
:10049E000202B9E4FBFAC9FC8028E830E406E4C99C
:1004AE00FBE4CAFCE830E305E4C9CACBFCE8540718
:1004BE006010F8C3E913F9EA13FAEB13FBEC13FC23
:1004CE00D8F130F52FC3E49CFCEF9BFFEE9AFEEDC6
:1004DE0099FDD0E0FBEF4E4D4C701222DB03020271
:1004EE00DEEC2CFCEF33FFEE33FEED33FDED30E7AB
:1004FE00EB0202B9EF2BFFEE3AFEED39FDD0E0FB39
:10050E0050130BBB00030202E1ED13FDEE13FEEFE1
:08051E0013FFEC13FC0202B90B
:100526003F8000004120000042C80000447A0000DD
:10053600461C400047C35000497424004B1896805F
:100546004CBEBC205A0E1BCA6753C21C749DC5AE56
:10055600FB60065407601C2323120584EB543860A5
:100566000912057012057F12000EECF8EDF9EEFA8D
:10057600EFCB22EB12057F80F1543803241C900543
:1005860026FE93FC0EEE93FD0EEE930ECE93FF2207
:1025A700020FD1E493A3F8E493A34003F68001F26A
:1025B70008DFF48029E493A3F85407240CC8C33335
:1025C700C4540F4420C8834004F456800146F6DF04
:1025D700E4800B01020408102040809029C1E47EAA
:1025E700019360BCA3FF543F30E509541FFEE493F9
:1025F700A360010ECF54C025E060A840B8E493A3C0
:10260700FAE493A3F8E493A3C8C582C8CAC583CAEA
:10261700F0A3C8C582C8CAC583CADFE9DEE780BEA2
:012A1C0000B9
:10059600BB010689828A83E0225002E722BBFE0263
:0905A600E32289828A83E4932296
:1005AF00BB010CE58229F582E5833AF583E0225001
:1005BF0006E92582F8E622BBFE06E92582F8E2224B
:0D05CF00E58229F582E5833AF583E4932265
:1005DC00BB010689828A83F0225002F722BBFE01FE
:0205EC00F322F8
:1005EE00F8BB010DE58229F582E5833AF583E8F043
:1005FE00225006E92582C8F622BBFE05E92582C8EF
:02060E00F222D6
:10061000BC000BBE0029EF8DF084FFADF022E4CCCE
:10062000F875F008EF2FFFEE33FEEC33FCEE9DEC97
:10063000984005FCEE9DFE0FD5F0E9E4CEFD22EDDD
:10064000F8F5F0EE8420D21CFEADF075F008EF2F27
:10065000FFED33FD4007985006D5F0F222C398FD18
:050660000FD5F0EA22B5
:10066500C5F0F8A3E028F0C5F0F8E5821582700220
:060675001583E038F022BD
:10067B00A3F8E0C5F025F0F0E58215827002158332
:06068B00E0C838F0E8228F
:10069100BB0110E58229F582E5833AF583E0F5F0A7
:1006A100A3E0225009E92582F886F008E622BBFE84
:1006B1000AE92582F8E2F5F008E222E5832AF583CA
:0806C100E993F5F0A3E993228F
:1006C900BB010A89828A83F0E5F0A3F0225006F77C
:0F06D90009A7F01922BBFE06F3E5F009F3192279
:1006E800E88FF0A4CC8BF0A42CFCE98EF0A42CFCB1
:1006F8008AF0EDA42CFCEA8EF0A4CDA8F08BF0A42F
:100708002DCC3825F0FDE98FF0A42CCD35F0FCEB8D
:100718008EF0A4FEA9F0EB8FF0A4CFC5F02ECD3952
:0F072800FEE43CFCEAA42DCE35F0FDE43CFC22BF
:1007370075F008758200EF2FFFEE33FECD33CDCC79
:1007470033CCC58233C5829BED9AEC99E5829840FC
:100757000CF582EE9BFEED9AFDEC99FC0FD5F0D6D9
:10076700E4CEFBE4CDFAE4CCF9A88222B800C1B903
:100777000059BA002DEC8BF084CFCECDFCE5F0CB41
:10078700F97818EF2FFFEE33FEED33FDEC33FCEB7A
:1007970033FB10D703994004EB99FB0FD8E5E4F935
:1007A700FA227818EF2FFFEE33FEED33FDEC33FC22
:1007B700C933C910D7059BE99A4007EC9BFCE99A16
:1007C700F90FD8E0E4C9FAE4CCFB2275F010EF2F5B
:1007D700FFEE33FEED33FDCC33CCC833C810D7075B
:1007E7009BEC9AE899400AED9BFDEC9AFCE899F896
:0E07F7000FD5F0DAE4CDFBE4CCFAE4C8F92229
:0E080500C3E49FFFE49EFEE49DFDE49CFC2204
:10081300E8600FECC313FCED13FDEE13FEEF13FFC3
:03082300D8F122E7
:0C082600ECF0A3EDF0A3EEF0A3EFF02245
:10083200A8828583F0D083D0821208491208491217
:100842000849120849E473E493A3C583C5F0C5833C
:10085200C8C582C8F0A3C583C5F0C583C8C582C810
:010862002273
:10086300F8E0FBA3A3E0F925F0F0E582158270021E
:070873001583E0FA38F022C2
:09087A00EBF0A3EAF0A3E9F0227F
:10088300D083D082F8E4937012740193700DA3A304
:1008930093F8740193F5828883E473740293686018
:0608A300EFA3A3A380DF18
:1008A900D083D082F8E4937012740193700DA3A3DE
:1008B90093F8740193F5828883E473740293B5F015
:0D08C900067403936860E9A3A3A3A380D87D
:102BFB00EFB40A07740D122C06740A309811A899B9
:102C0B00B8130CC2983098FDA899C298B811F63039
:072C1B0099FDC299F5992211
:00000001FF
