:10276700554E415554484F52495A454420434152CA
:0527770044200D0A00E2
:102718004101450045014DD30203AD004501526317
:062728006F66AC00C10960
:0B25220090016BEBF0A3EAF0A3E9F0DE
:10252D00E4FFFE90016EE0FBA3E0FAA3E0F98F82D9
:10253D008E8312056DFD90016BE0FBA3E0FAA3E025
:10254D00F98F828E83ED1205AC0FBF00010EEF6483
:04255D00054E70CFE8
:012561002257
:100EEC00A2AF9211C2AF75C7AA75C755E4F591A20E
:100EFC001192AFF5B1F5B2F5B3F5B4F5ACF5ADC2F1
:100F0C0084C2857F061218AAA2AF9211C2AF75C710
:100F1C00AA75C755E4F591A21192AF53B1BF53B264
:100F2C00BF90016F04F0A312074D0001C2007F00B7
:100F3C007E367D6E7C011217991219B5D292C2942D
:100F4C00C2937FB87E0B12260A1225627B017A01AE
:100F5C00795C7F26122317900145EFF07B017A0113
:100F6C00795C121D0E900145EFF012217DAC06AD9F
:100F7C0007E412018790013D120741122212AC06C0
:100F8C00AD07E412018790014112074190013DE049
:100F9C00FCA3E0FDA3E0FEA3E0FF7B997A9979190D
:100FAC00783812000390013D120741900141E0FC9A
:100FBC00A3E0FDA3E0FEA3E0FF7BCD7ACC794C78D7
:100FCC003A120003900141120741900145E0600381
:100FDC00020F5890014DE0FF90015CE0FEB5072434
:100FEC0090014EE0FF90015DE0B5071890014FE0D5
:100FFC00FF90015EE0B5070C900150E0FF90015F9F
:10100C00E06F6035900152E06E6003020F58A3E070
:10101C00FF90015DE06F6003020F58900154E0FFF8
:10102C0090015EE06F6003020F58900155E0FF9055
:10103C00015FE06F6003020F5820091790016E7476
:10104C0001F0A37401F0A3745CF07B017A01794682
:10105C00122522900146E0FF90015CE06F600302D4
:10106C001150900147E0FF90015DE06F60030211A9
:10107C0050900148E0FF90015EE06F600302115058
:10108C00900149E0FF90015FE06F60030211507F17
:10109C00E87E0312260A7FB87E1E7D857C3D90017A
:1010AC003DE0F8A3E0F9A3E0FAA3E0FB120109503C
:1010BC001D7F7B7E147DAE7C3D90013DE0F8A3E06E
:1010CC00F9A3E0FAA3E0FB120109600250697F5218
:1010DC007EB87DBE7C3F900141E0F8A3E0F9A3E02F
:1010EC00FAA3E0FB120109501F7433FFFEFD7C4094
:1010FC00900141E0F8A3E0F9A3E0FAA3E0FB1201B0
:10110C000960054003020F5820090D122606D293E0
:10111C00C294C292D284D285300917C293D2921251
:10112C002606122602122602C294C293D292C284BE
:10113C00C285B209020F58D294C292C293C284C221
:10114C0085020F587BFF7A27796712085C020F58CB
:08260200D293C2927FF47E0125
:10260A00E4FDFCE4FBFAC3EB9FEE6480F8EA648025
:10261A009850070BBB00010A80EC0DBD00010CBCF1
:05262A0005E1BD10DE1A
:01262F002288
:0626810012056DFD7F094A
:10268700900184EDF0C295EF25E0547EFF1227A656
:0B269700900184E0FF1227A6D29522DC
:1026C300C295EF25E0547E4480FF1227A690018433
:0C26D300E0FF12278D900184EFF0D295FB
:0126DF0022D8
:0A273300900183EDF0900182EFF0B9
:10273D001226C3AE07900182E0FFA3E04EFD0226F4
:01274D008704
:0A26E000900183EDF0900182EFF00D
:1026EA001226C3AE07900182E0FFA3E0F45EFD026A
:0226FA00268731
:10277C007F141226C37D037F141227337F37022662
:01278C00C389
:0727CB007D037F140226E0EC
:0727D2007D0F7F0102268745
:10256200C295D2971227D27D8D7F2A1226877D3E71
:102572007F2B1226877D1E7F2D122687E4FD7F2C5E
:102582001226877D407F151226877D3D7F111226F8
:09259200877F371226C302277C63
:10115C00900175F0A37401F0A37401F0A374B7F0BF
:10116C00A37401F0A37401F0A374B5F07A0179B7FC
:04117C007B017F0C68
:10118000900172EBF0A3EAF0A3E9F0900171EFF0A7
:1011900090017C7402F0E4A3F0A3F0EF24F460105B
:1011A00024FE701690017D7412F0A37410F0800A72
:1011B00090017D7477F0A37430F090017DE044805D
:1011C000FD7F021226877D807F041226E07D807FCE
:1011D0000A122733E4FD7F01122687E4900180F094
:1011E000A3F0900175E0FF900180E0FCA3E0FDC357
:1011F0009FEC94005022900172E0FBA3E0FAA3E080
:10120000F98D828C83122681900181E004F070D2E6
:10121000900180E004F080CA900171E0FD7F01122E
:101220002687900171E0B40C077D807F0D12273373
:101230009001807407F0A374D0F07F041226C3904D
:10124000017FEFF0900181E024FFF0900180E03415
:10125000FFF0E07002A3E0601190017FE0FF20E06A
:101260000990017EE0FEEF5E60D07D807F0D12264A
:10127000E0900180E07002A3E070030213677F0634
:101280001226C3EF541B600302136190017CF0A38C
:10129000E0FF90017FE05F30E00690017C7401F098
:1012A000900171E0640C60030213677F0A1226C389
:1012B00090017FEFF07F0C1226C3EF5407FD6029E9
:1012C00090017FE024FFFFE434FFFEEF7803C33397
:1012D000CE33CED8F97C002DFFEC3EF9900179E0B9
:1012E000FBA3E0FAA3E0C9801690017FE075F00847
:1012F000A4FF900179E0FBA3E0FAA3E0F9E5F08F09
:10130000F01205E490017FE0700204F090017FE0AC
:10131000D3941040037410F0E4900180F0A3F09097
:10132000017FE0FFC3900181E09F900180E0940085
:1013300050357F091226C3900176E0FBA3E0FAA3A3
:10134000E0F9900180E0FCA3E0F5828C83EF1205C8
:10135000AC900181E004F070C6900180E004F08060
:0C136000BE90017C7402F090017CE0FF64
:01136C00225E
:0E23170090016BEFF0A3EBF0A3EAF0A3E9F066
:102325007D077F0D12268790016BE0FFA3E0FBA3DD
:10233500E0FAA3E0F9EF12059A9001757401F090A7
:10234500016CE0F9A3E0FAA3E0900176C9F0A3EAF5
:10235500F0A3E9F0A37401F0A37401F0A3746FF086
:1023650090016CE0FBA3A3E0F97F0C121180EF70E4
:0F2375000C90016FE07004A3E0641060027F021F
:012384002236
:0B1D0E0090016BEBF0A3EAF0A3E9F0FA
:101D1900E4A3F0FD7F0D12268790016BE0FBA3E0A1
:101D2900FAA3E0F9749312059A90016BE0FBA3E022
:101D3900FAA3E0F990000174201205ACC002C001B9
:101D49009001757402F090016BE0F9A3E0FAA3E049
:101D5900900176C9F0A3EAF0A3E9F0A37401F0A316
:101D69007401F0A3746FF0D001D0027F0C121180BE
:101D7900AC07EC7044FD90016EE0FF90016BE0FB55
:101D8900A3E0FAA3E0F98D8275830012056DFEEFD9
:101D99006E90016EF00DEDB404DC90016BE0FBA3D5
:101DA900E0FAA3E0F9AF058F8275830012056DFF94
:0B1DB90090016EE06F60027C02AF043E
:011DC40022FC
:061FAF007B017A0179B705
:0E1FB50090020CEBF0A3EAF0A3E9F0A3EDF02C
:101FC3007D047F051226E07D807F0A122733E4908B
:101FD3000213F090020FE0FF900213E0FEC39F5044
:101FE3001B90020CE0FBA3E0FAA3E0F98E82758359
:101FF30000122681900213E004F080D77D037F0155
:1020030012268790021374FFF07F051226C39002F5
:1020130013E014F0E06004EF30E2EE7F221226C3F7
:10202300900210E0FBA3E0FAA3E0F9EF12059A7F18
:10203300211226C3900210E0FBA3E0FAA3E0F9907B
:062043000001EF0205ACF4
:0B2049009001C9EBF0A3EAF0A3E9F05E
:102054009001CF7493F0A37470F0E4FF9001C9E091
:10206400FBA3E0FAA3E0F98F8275830012056DFEED
:1020740074D12FF582E43401F583EEF00FEFB4054B
:10208400DB9002107401F0A37401F0A374D6F07B0A
:10209400017A0179CF7D07121FB59001757409F09B
:1020A400A37401F0A37401F0A374CFF0A37401F03E
:1020B400A37401F0A374CDF07A0179CF12117CEFEF
:1020C40070129001CDE07004A3E0641870069001D2
:0E20D400CFE08001E49001CCF09001CCE0FF61
:0120E20022DB
:0B1DC50090019DEBF0A3EAF0A3E9F011
:101DD0009001A6EFF0A3EDF0E4FF90019DE0FBA3DE
:101DE000E0FAA3E0F98F8275830012056DFE74A8F6
:101DF0002FF582E43401F583EEF00FEFB406DBE457
:101E0000FF9001A0E0FBA3E0FAA3E0F98F827583C5
:101E10000012056DFE74AE2FF582E43401F583EEF9
:101E2000F00FEFB404DB900175740CF0A37401F0B3
:101E3000A37401F0A374A6F0A37401F0A37401F0DD
:101E4000A374A4F07B017A0179A67F0E1211809011
:101E500001A3EFF070097F081226C3EF20E306907C
:0A1E600001A37402F09001A3E0FF5B
:011E6A002255
:0B1F0F00900228EBF0A3EAF0A3E9F039
:101F1A00900228E0FBA3E0FAA3E0F9743012059AD4
:101F2A00900228E0FBA3E0FAA3E0F9900001EF1287
:101F3A0005ACC003C002C001900228E0FBA3E0FA8E
:101F4A00A3E02402F9E43AFA900210EBF0A3EAF0D3
:101F5A00A3E9F0D001D002D0037D02121FB590018F
:101F6A00757404F0900228E0F9A3E0FAA3E0900166
:101F7A0076C9F0A3EAF0A3E9F0A37401F0A374020E
:101F8A00F0A3742BF0900228E0FBA3A3E0F97F0CE6
:101F9A00121180EF700C90022BE07004A3E06490A1
:041FAA0060027F0250
:011FAE002210
:0B1E6B009001B2EBF0A3EAF0A3E9F055
:101E76009001B774A0F0A3EFF09002107401F0A3E4
:101E86007401F0A374B9F07D02121FAF740412112D
:101E96005CEF70169001B5E07004A3E06404700A6C
:101EA6009001B7E0540F640A60027F02EF7059FE9A
:101EB6009001B2E0FBA3E0FAA3E0F98E82758300FD
:101EC60012056DFD74B72EF582E43401F583EDF04D
:101ED6000EEEB410DB9002107401F0A37401F0A3AF
:101EE60074C7F07D10121FAF741212115CEF7016DA
:101EF6009001B5E07004A3E06404700A9001B7E0B5
:081F0600540F640A60027F021F
:011F0E0022B0
:10244E0090021E7450F0E4A3F07B0190021004F091
:10245E00A37402F0A37420F07A02791E7D02121F7B
:10246E00B59001757404F0A37401F0A37402F0A387
:10247E00741EF0A37401F0A37402F0A3741CF07B1D
:0A248E00017A02791E7F0C02118012
:1019B500A2AF9211C2AF75C7AA75C755E4F591A23A
:1019C5001192AF53B3DF53B4DFA2AF9211C2AF751B
:1019D500C7AA75C755F591A21192AF53B3FE53B47B
:1019E500FEA2AF9211C2AF75C7AA75C755F591A2F0
:1019F5001192AF53B1FE53B2FEA2AF9211C2AF75B1
:101A0500C7AA75C755F591A21192AF53B1FD53B24F
:101A1500FD43F408A2AF9211C2AF75C7AA75C755A9
:101A2500F591A21192AF53F37FA2AF9211C2AF7598
:101A3500C7AA75C755F591A21192AF53F3DFA2AFAF
:101A45009211C2AF75C7AA75C755F591A21192AF8C
:101A550053F3F7A2AF9211C2AF75C7AA75C755F573
:101A650091A21192AF53F3FBA2AF9211C2AF75C70A
:101A7500AA75C755F591A21192AF43F310A2AF9283
:101A850011C2AF75C7AA75C755F591A21192AF538B
:101A9500F3FCA2AF9211C2AF75C7AA75C755F591F0
:0B1AA500A21192AF43F34053F47F22E4
:0B27A6008FF5E5F430E7FB53F47F22D1
:0C278D008FF5E5F430E7FBAFF553F47F67
:01279900221D
:0427C3008F828E83F0
:0327C700E493FF99
:0127CA0022EC
:0B279A00EF448075C7AA75C755F59F76
:0127A5002211
:0927B100300F05438702000022ED
:0927BA00301005438701000022E4
:061AB0009001F112074154
:101AB600538EF75389F04389017B407A42790F7838
:101AC600009001F1E0FCA3E0FDA3E0FEA3E0FF121D
:101AD600068EA804A905AA06AB079001F7E0FEA3A7
:101AE600E0FFE4FCFD120603E47B0CFAF9F81206AB
:101AF6008EC374FF9FFF74FF9EE49DE49C9001F9E2
:101B0600EFF07B407A42790F78009001F1E0FCA378
:101B1600E0FDA3E0FEA3E0FF12068EA804A905AA35
:101B260006AB079001F7E0FEA3E0FFE4FCFD12061A
:101B360003E47B0CFAF9F812068EC374FF9FFF7458
:101B4600FF9EFEE49DFDE49CFC780812072E9001A2
:101B5600F5E07002A3E060219001F9E0F58A8F8C30
:101B6600D28C308DFDC28DC28C9001F6E024FFF040
:091B76009001F5E034FFF080D588
:011B7F002243
:061B80009001FA1207417A
:101B8600538EEF53890F4389107B407A42790F7841
:101B9600009001FAE0FCA3E0FDA3E0FEA3E0FF1243
:101BA600068EA804A905AA06AB07900200E0FEA3CC
:101BB600E0FFE4FCFD120603E47B0CFAF9F81206DA
:101BC6008EC374FF9FFF74FF9EE49DE49C90020207
:101BD600EFF07B407A42790F78009001FAE0FCA39F
:101BE600E0FDA3E0FEA3E0FF12068EA804A905AA65
:101BF60006AB07900200E0FEA3E0FFE4FCFD120640
:101C060003E47B0CFAF9F812068EC374FF9FFF7487
:101C1600FF9EFEE49DFDE49CFC780812072E9001D1
:101C2600FEE07002A3E06021900202E0F58B8F8D4A
:101C3600D28E308FFDC28FC28E9001FFE024FFF05E
:091C46009001FEE034FFF080D5AE
:011C4F002272
:06164A009001D8120741D7
:10165000E4F5919001DCE0FEA3E08EF01207C416E1
:1016600083000116880004169000101698002016BA
:10167000A0004016A8008016B0010016B8020000B5
:101680000016BE53C98F803653C98F43C910802EB0
:1016900053C98F43C920802653C98F43C930801E48
:1016A00053C98F43C940801653C98F43C950800E18
:1016B00053C98F43C960800653C98F43C970C2C8DC
:1016C00043C98043C9047B407A42790F7800900176
:1016D000D8E0FCA3E0FDA3E0FEA3E0FF12068E909D
:1016E00001E0E0F8A3E0F9A3E0FAA3E0FB120603AF
:1016F000C006C0079001DCE0FEA3E0FBAA06E4F907
:10170000F8D007D00612068EC3E49FFFE49E740152
:101710009DE49C9001E4EFF07B407A42790F7800E1
:101720009001D8E0FCA3E0FDA3E0FEA3E0FF1206D9
:101730008E9001E0E0F8A3E0F9A3E0FAA3E0FB1249
:101740000603C006C0079001DCE0FEA3E0FBAA068A
:10175000E4F9F8D007D00612068EC3E49FFFE49E9A
:10176000FE74019DFDE49CFC780812072E9001DEBA
:10177000E07002A3E060219001E4E0F5CC8FCDD2CF
:10178000CA30CFFDC2CFC2CA9001DFE024FFF09083
:0817900001DEE034FFF080D51A
:01179800222E
:06136D009001E5120741AA
:10137300E4F5919001E9E024FE602124FE60252438
:10138300FC602924F8602D24F0603124E0603524CA
:10139300C06039247F703B53C4F8803653C4F8438C
:1013A300C401802E53C4F843C402802653C4F843B7
:1013B300C403801E53C4F843C404801653C4F843C3
:1013C300C405800E53C4F843C406800653C4F843CF
:1013D300C4077B407A42790F78009001E5E0FCA3D3
:1013E300E0FDA3E0FEA3E0FF12068E9001ECE0F81F
:1013F300A3E0F9A3E0FAA3E0FB120603C007900100
:10140300E9E0FBE4FAF9F8D00712068EC3E49FFF84
:10141300E49E74019DE49C9001F0EFF07B407A42DE
:10142300790F78009001E5E0FCA3E0FDA3E0FEA3C3
:10143300E0FF12068E9001ECE0F8A3E0F9A3E0FAD6
:10144300A3E0FB120603C0079001E9E0FBE4FAF90D
:10145300F8D00712068EC3E49FFFE49EFE74019D3D
:10146300FDE49CFC780812072E9001EAE07002A3C9
:10147300E06074A2AF9211C2AF75C7AA75C755E4F5
:10148300F591A21192AF53C4EF9001F0E0F5C58F2F
:10149300C6A2AF9211C2AF75C7AA75C755E4F5913D
:1014A300A21192AF43C408E5C430E4FBA2AF92118A
:1014B300C2AF75C7AA75C755E4F591A21192AF5390
:1014C300C4EFA2AF9211C2AF75C7AA75C755F59104
:1014D300A21192AF53C4F79001EBE024FFF0900107
:0714E300EAE034FFF0808213
:0114EA0022DF
:1026FC00EF14600D14600D14600E2403700DD2A93C
:0C270C0022D2AB22439B8022439C02227D
:1018AA00A2AF9211C2AF75C7AA75C755439F01A2CD
:1018BA001192AFE4F591EF24F9600C146009240247
:1018CA00700875A638800375A630E4F5A775AF04CD
:1018DA00A2AF9211C2AF75C7AA75C75543A401A298
:1018EA001192AF85AE0805A6A2AF9211C2AF75C715
:1018FA00AA75C75543A401A21192AF85AE09EF2478
:10190A00F8600302198FE50825E0FFE50954012F65
:10191A00FF54C0F50BEF543FF50A74F22FFF75AF71
:10192A000C75A601E4F5A7A2AF9211C2AFA2AF92BD
:10193A0011C2AF75C7AA75C75543AA40A21192AF83
:10194A0075C7AA75C75543A401A21192AFE5AE6443
:10195A004B600BE5AE64526005E5AEB45322E50A6E
:10196A00C3940F5017E50B6440600BE50B6480606D
:10197A0005E50BB4C00A74F22FFF800474FC2FFF34
:10198A00EFC313F50875C7AA75C75585088475C7C7
:10199A00AA75C755850985A2AF9211C2AF75C7AAA4
:0A19AA0075C755539FFEA21192AFBE
:0119B4002210
:1024E000EF24FD6011146012240270357F02122562
:1024F000D07F020223EC7F0380117F021225D07F60
:10250000021223EC7F041225D07F041223ECA2AF29
:102510009211C2AF75C7AA75C7555397DFA2119222
:02252000AF22E8
:1025D000EF24FC601E24027028A2AF9211C2AF75D6
:1025E000C7AA75C755439720A21192AFE59620E57B
:1025F0001080F975C7AA75C7554397C0E59630E3B3
:02260000FB22BB
:10263000E4F591EF24FC60182402701DA2AF921102
:10264000C2AF75C7AA75C7555397DFA21192AF22C3
:0A26500075C7AA75C75553973F22BE
:1023EC00E4F591A2AF9211C2AFEF24FD6018146016
:1023FC003924027048A2AF9211C2AF75C7AA75C733
:10240C00555396FB800FA2AF9211C2AF75C7AA7538
:10241C00C755439604A21192AFA2AF9211C2AF75E9
:10242C00C7AA75C7555396FD800FA2AF9211C2AFC4
:10243C0075C7AA75C755439608A21192AFA21192FF
:02244C00AF22BD
:04272E00C10CC10D0C
:1017990090016B12074190016FE014605B1460794E
:1017A900240260030218A975985043892043878051
:1017B900438E10A2AF9211C2AF75C7AA75C755E47F
:1017C900F591A21192AF53C4DF7B10FAF9F8900199
:1017D9006BE0FCA3E0FDA3E0FEA3E0FF12068E9000
:1017E9000170E0F8A3E0F9A3E0FAA3E0FB12068E8A
:1017F900EFF404F58DD28E2275985043878053C437
:10180900F8A2AF9211C2AF75C7AA75C755E4F59191
:10181900A21192AF43C420800775F85075C480E4C3
:101829007B10FAF9F890016BE0FCA3E0FDA3E0FE60
:10183900A3E0FF12068E900170E0F8A3E0F9A3E09F
:10184900FAA3E0FB12068EC3E49FFFE49EFE740137
:101859009DFDE49CFC780812072E8FC6E47B10FAE4
:10186900F9F890016BE0FCA3E0FDA3E0FEA3E0FF23
:1018790012068E900170E0F8A3E0F9A3E0FAA3E064
:10188900FB12068EC3E49FFFE48FC5A2AF9211C27B
:10189900AF75C7AA75C755F591A21192AF43C40890
:0118A900221C
:1026A200C091E4F591EF14600C047012C2998D99F7
:1026B20020990B80FBC2F9AF058F9A20F9FDD091CA
:0126C20022F5
:10259B00A2AF9211C2AF75C7AA75C755E4F591A248
:1025AB001192AF53B1BF53B2BF90016FF0A312079B
:1025BB004D0001C2007F007E367D6E7C01121799A3
:0525CB00D299D20C22A0
:10249800AB07E4F591ED540FF5CEECC4F854F0C851
:1024A800EDC4540F48F5CFEB6017A2AF9211C2AF3D
:1024B80075C7AA75C755E4F591A21192AF43E220FA
:1024C80022A2AF9211C2AF75C7AA75C755E4F5919C
:0824D800A21192AF53E2DF22D2
:10274E00E4F59153E18FEF5407C454F042E153E2A4
:09275E00F1ED540725E042E222EE
:1022A700A2AF9211C2AF75C7AA75C755439F01A2C6
:1022B7001192AF75AF0475A60DE4F5A7A2AF921101
:1022C700C2AF75C7AA75C75543A401A21192AFE55E
:1022D700AE540FFD75A60CE4F5A7A2AF9211C2AFDD
:1022E70075C7AA75C75543A401A21192AFAFAEEF48
:1022F70075F010A47C002DFFEC35F0FEA2AF921113
:0F230700C2AF75C7AA75C755539FFEA21192AFFB
:0123160022A4
:10217D00A2AF9211C2AF75C7AA75C755E4F591A26A
:10218D001192AF53E8F043E806A2AF9211C2AF75BA
:10219D00C7AA75C755F591A21192AF43B10853B2B5
:1021AD00F7F5F643F64043E101A2AF9211C2AF75C8
:1021BD00C7AA75C755F591A21192AFC2EFA2AF9202
:1021CD0011C2AF75C7AA75C755F591A21192AFD2BD
:1021DD00EE30EFFDAFC37E00EFC4F8540FC868FFBB
:1021ED00EEC454F048FEE5C2540FFDEF4DFFA2AF13
:1021FD009211C2AF75C7AA75C755E4F591A2119298
:04220D00AF53E1FEEC
:0122110022AA
:10221200A2AF9211C2AF75C7AA75C755E4F591A2D4
:102222001192AF53E8F043E807A2AF9211C2AF7523
:10223200C7AA75C755F591A21192AF43B30253B421
:10224200FDF5F643F68043E101A2AF9211C2AF75EC
:10225200C7AA75C755F591A21192AFC2EFA2AF926C
:1022620011C2AF75C7AA75C755F591A21192AFD227
:10227200EE30EFFDAFC37E00EFC4F8540FC868FF25
:10228200EEC454F048FEE5C2540FFDEF4DFFA2AF7D
:102292009211C2AF75C7AA75C755E4F591A2119202
:0422A200AF53E1FE57
:0122A6002215
:0B14EB00900222EEF0A3EFF0A3EDF062
:1014F600E4A3F0900222E0FEA3E07807CEC313CE69
:1015060013D8F97807C333CE33CED8F9FF90022625
:10151600EEF0A3EFF0E4900225F0900225E0FFC381
:1015260094805029900227E02FFF900226E0340095
:10153600FE1227C37E00900225E0248AF582E43459
:1015460000F583EFF0900225E004F080CD900224B0
:10155600E0FF7C00900223E0547F248AF582EC347D
:1015660000F583EFF0900226E0FEA3E0F5A6EEF587
:10157600A775AEFFA2AF9211C2AF75C7AA75C755C0
:10158600439F01A21192AFA2AF9211C2AF75C7AA33
:1015960075C75543A501A21192AF75AF22A2AF92AE
:1015A60011C2AF75C7AA75C75543A401A21192AF60
:1015B600A2AF9211C2AF75C7AA75C755439F01A2C4
:1015C6001192AFA2AF9211C2AF75C7AA75C75543A4
:1015D600A501A21192AF75AF21E4900225F0900209
:1015E60025E0FDC394805035A3E0FEA3E0FCED2C7E
:1015F600F5A6EEF5A7748A2DF582E43400F583E0AE
:10160600F5AEA2AF9211C2AF75C7AA75C75543A46E
:1016160001A21192AF900225E004F080C1A2AF9220
:1016260011C2AF75C7AA75C75553A5FEA21192AFD1
:10163600A2AF9211C2AF75C7AA75C755539FFEA236
:031646001192AF4F
:01164900227E
:101C5000900214EEF0A3EFF0A3EBF0A3EAF0A3E9F7
:011C6000F093
:101C6100900214E0FCA3E0FDAE047807CEC313CECE
:101C710013D8F9FB900219E0FEA3E02DFFEC3EFE24
:101C8100EF7807CEC313CE13D8F990021BF0900260
:101C91001BE06B6053900214E0FEA3E0FFA3E0FBA6
:101CA100A3E0FAA3E0F99000057480F0120C74AD82
:101CB10007900215E02FF0900214E03400F090023A
:101CC10017E48FF01205CEC390021AE09FF0900244
:101CD10019E09400F0900214E0FEA3E07807CEC36F
:101CE10013CE13D8F9FB80A6900219E0FCA3E0FD06
:101CF1004C6019900214E0FEA3E0FFA3E0FBA3E017
:0C1D0100FAA3E0F9900005EDF0120C745C
:011D0D0022B3
:10238500900203EEF0A3EFF0A3EBF0A3EAF0A3E9CC
:01239500F057
:10239600E490020AF0A3F0900208E0FEA3E0FFA397
:1023A600E0FCA3E0FDC39FEC9E503A900204E02DB2
:1023B600FF900203E03C8F82F583E493FF900205D1
:1023C600E0FBA3E0FAA3E0F990020AA3E0F5828C11
:1023D60083EF1205AC90020BE004F070BA90020A8B
:0523E600E004F080B2EC
:0123EB0022CF
:100C7400900000EEF0A3EFF0A3EBF0A3EAF0A3E9F9
:010C8400F07F
:100C8500A2AF9211C2AF75C7AA75C755439F01A2FE
:100C95001192AFA2AF9211C2AF75C7AA75C75543DE
:100CA500A501A21192AF900000E0FEA3E0FF547FE2
:100CB500FD900007F0C374809DFD900006F0900044
:100CC50005E0D39D4006A3E0900005F0900008EEF6
:100CD500F0A3EFF0E4900006F0900005E0FFA3E03C
:100CE500FEC39F501B900008E0FCA3E02EF582E4B4
:100CF5003CF583E493B4FF08900006E004F080D946
:100D0500EE6F6003020DAB75AF21900000E0FEA30E
:100D1500E0F5A6EEF5A7E4900006F0900005E0FFEB
:100D2500A3E0FEC39F5032900002E0FBA3E0FAA3CC
:100D3500E0F98E8275830012056DF5AEA2AF9211B2
:100D4500C2AF75C7AA75C75543A401A21192AF05D5
:100D5500A6900006E004F080C2E4900006F0900042
:100D650005E0FFA3E0FEC39F502F900002E0FBA328
:100D7500E0FAA3E0F98E8275830012056DFF9000FD
:100D850008E0FCA3E02EF582E43CF583E493B50787
:100D950008900006E004F080C5900005E0FFA3E0A0
:100DA5006F7003020ED3900000E0FFA3E054809023
:100DB5000008CFF0A3EFF0E4900006F0900006E005
:100DC500FF900008E0FCA3E02FF582E43CF583E406
:100DD50093FE740A2FF582E43400F583EEF090005B
:100DE50006E004F0E0B480D4E4900006F09000053D
:100DF500E0FFA3E0C39F5031900002E0FBA3E0FABF
:100E0500A3E0F9900006E0FFF58275830012056DF9
:100E1500FE900007E02F240AF582E43400F583EE06
:100E2500F0900006E004F080C4900000E0FEA3E02E
:100E35005480F5A6EEF5A775AF2275AEFFA2AF9269
:100E450011C2AF75C7AA75C75543A401A21192AFC8
:100E550075AF21E4900006F0900006E0FFC3948092
:100E6500502A740A2FF582E43400F583E0F5AEA22A
:100E7500AF9211C2AF75C7AA75C75543A401A21198
:100E850092AF05A6900006E004F080CCE490000641
:100E9500F0900006E0FFC39480502BE0FE90000820
:100EA500E0FCA3E02EF582E43CF583E493FD740AAF
:100EB5002EF582E43400F583E0FEEDB506089000DA
:100EC50006E004F080CBEF64806003020E2EA2AF33
:100ED5009211C2AF75C7AA75C755539FFEA211924D
:060EE500AF900005E0FFE4
:010EEB0022E4
:030000000220E3F8
:1020E300787FE4F6D8FD9000007FFF7E08E4F0A33C
:0A20F300DFFCDEFA758122022138BD
:10000300EC4D6011E8497017ED33EC3304600DE4F7
:10001300FCFFFEFD22E933E8330470F80201F51218
:1000230001C058046009E4CC248150062850090219
:1000330001FF2840030201FCC0E0EB4A7044B98091
:1000430006D0E0FB0201EBEF4E701CBD8008EBFF16
:10005300EAFEE9FD80EBE98DF0A4FEE5F00200EC99
:10006300E9CDF9EAFEEBFFEF89F0A4FCE5F0CE89D8
:10007300F0A42EFFE435F0CD89F0A42DFEE435F095
:100083008067EF4E7005BD80D780C3EF8BF0A4ACC3
:10009300F0EE8BF0A42CFCE435F0F8EF8AF0A42CFE
:1000A300E5F038FCE433CB8DF0A42CFCE5F03BF811
:1000B300EE8AF0A42CFCE5F038F8E433CF89F0A401
:1000C3002CFCE5F038CF3400CE89F0A42FFFE5F007
:1000D3003EFEE433C98DF0A42EFEE5F039CD8AF05F
:1000E300A42FFFE5F03EFEE43DFD33D0E0FB5007D7
:1000F3000BBB000F0201FFEC2CFCEF33FFEE33FED2
:06010300ED33FD0201D7FF
:1001090074F8CC6480CCC86480C8F58204604FC39D
:10011900EB9FF5F0EA9E42F0E99D42F0E89C45F03C
:10012900603C501DE5825FFFE582D313CB5BCBF4C6
:100139002B5582FB50280ABA002409B900200880EF
:100149001DE5825BFBE582D313CF5FCFF4C3132F89
:100159005582FF50090EBE00050DBD00010CC3EB11
:100169009FF5F0EA9E42F0E99D42F0E89C45F06077
:0901790007CC4820E701B3EC2299
:1001820075F020800E75F010800575F0087D007EF8
:10019200007F003392D530D503120720EC33401094
:1001A200EF33FFEE33FEED33FDEC33FCD5F0ED2201
:0E01B200E5F0247EA2D513CC92E7CDCEFF223D
:1007F100E508246EF582E43401F583E005082290D2
:10080100016B30070390016EE475F00112077E025F
:1008110005542000E97F2ED2008018EF540F249058
:10082100D43440D4FF30040BEF24BFB41A0050037A
:100831002461FFE50960021509050CE50C7002054C
:100841000B30070E90016BE475F00112077EEF0289
:10085100059A02265A7403D2078003E4C207F508F9
:1008610090016B120795E4F509F50BF50CE50960AC
:10087100077F2012083480F5750AFFC201C200C249
:1008810002C203C205C206C208120800FF700D3081
:1008910007057F00120845AF0CAE0B22B4255FC2DD
:1008A100D5C204120800FF24D0B40A00501A75F012
:1008B1000A780930D50508B6FF0106C6A426F62038
:1008C100D5047002D20380D924CFB41A00EF5004AA
:1008D100C2E5D204020B37D20180C6D20080C0D259
:1008E1000280BCD2D580BAD20580B47F20120834F0
:1008F1002002077401B5090040F11207F1FF120847
:100901003402086ED208D20680951207F1FB120755
:10091100F1FA1207F1F94A4B700679357A0C7BFF2F
:1009210020022EE509602A7E008E82758300120561
:100931006D60060EEE650A70F0C2D5EBC0E0EAC04C
:10094100E0E9C0E0EE120B98D0E0F9D0E0FAD0E097
:10095100FB120554FF60AAEBC0E0EAC0E0E9C0E089
:10096100120834D0E02401F9D0E03400FAD0E0FBE1
:10097100E50A0460DCD50AD98087D20280A2120B75
:100981007A60F7E50A70010412020AA90A600DE50E
:100991000A600914F50A120C22EF60F3EA30E7024B
:1009A100F404C3995079EAF4250A0430E701E40418
:1009B100F50A800D120B7A60C1EA050A250A1202B6
:1009C1000AEA90019AF030E701E4250A04D50A0405
:1009D10020050114120B98E4C0E0120C2290019A38
:1009E100E0601320E70714F012081C802204F0D005
:1009F100E014C0E07F0012081CE50A60071208132A
:100A0100150A800B300503120813D0E002086ED0DE
:100A1100E00480C4120B7A609EE50A0412020A9077
:100A2100019AEAF0E50A2005026001042404120B90
:010A3100982C
:100A320074FF04C0E0120C2212081CE50A20050211
:100A42006003120813D0E0B50AE87F451208269029
:100A5200019AE07F2B30E7047F2DF404C0E01208F6
:100A620034D0E075F00A84C0F012081DD0E01208FC
:100A72001D02086E791080027908C206C208800839
:100A8200D2D5790A8004790AC2D5E50A047002F542
:100A92000AE4FAFDFEFF1207F1FC7B0820011312A3
:100AA20007F1FD7B1030000A1207F1FE1207F1FF79
:100AB2007B20EC3382D592D55013C3E43000069FDD
:100AC200FFE49EFEE42001039DFDE49CFCE4CBF8E0
:100AD200C201EC700CCFCECDCCE824F8F870F380D4
:100AE20017C3EF33FFEE33FEED33FDEC33FCEB3394
:100AF200FB994002FB0FD8E9EB300105F8D0E0C4C6
:100B020048B201C0E00AEC4D4E4F78207B0070C223
:100B1200EAB50A0040BCC0E0120B9AD0F0D0E02047
:100B22000104C4C0E0C4B201C0F012081DD0F0D567
:100B3200F0EB02086E12079E090B530A765808DC86
:100B42004C08D8420A7A4F0A82440A824908F14381
:100B52000A885509B5460A1545097F470C555008BC
:100B6200E02D08E42E09072B08E8230905200C3E96
:100B72002A08A048000008FFE50AB4FF03750A0628
:100B82001207F1FC1207F1FD1207F1FE1207F1FF45
:100B9200900193020247790AA2D520031430050975
:100BA200B910020404B9080104A2D52006025001BA
:100BB200042002689202B509005034C0E07F203060
:100BC20003197F30A20272067205500F120BF1C296
:100BD20002C206C205C2087F30800F300503E9C099
:100BE200E0120834300503D0E0F9D0E0B509CC308A
:100BF20005177F30B9100C1208347F583004077F74
:100C0200788003B908031208343002057F2D0208E8
:100C1200347F202008F87F2B2006F322920280CF17
:100C22007F00B40700500B2493F582E43401F5836E
:100C3200E0FF22286E756C6C2900D2011207F13098
:100C420001F8C201780930D50108F60208A02D503A
:100C52004349581207F12403B405004001E4900C03
:100C62005093120825743A120825D203750904021A
:020C72000A7600
:1001C000E9D2E7C933E833F892D5EDD2E7CD33EC85
:0701D00033FC5002B2D522FE
:1001D700EC30E7100FBF000C0EBE00080DBD000489
:1001E7000BEB6014A2D5EB13FCED92E7FD2274FF35
:1001F700FCFDFEFF22E480F8A2D574FF13FC7D808E
:03020700E480EFA1
:10020A00F920E73624F950037907E4F42402FBE5E0
:10021A0082158270021583DBF6E024FB501BE9602D
:10022A0014E4F0E582158270021583E004F0B40A42
:0D023A0008E4F0D9EE7401F00A22C2D522CA
:10024700ED33EC3392D5FA602AB4FF33EDC2E77B86
:10025700FF60067A02796CE4227A02797520D50468
:100267007A027970224E614E002B494E46002D4985
:100277004E4600E47A08F0A3DAFC7B00740722C03C
:1002870083C082ECC0E0EDC0E0EEC0E0EFC0E0EA82
:1002970075F010A4CAABF075F04DA42BFBE435F054
:1002A700FCEA2410FAEB34C5FBEC34D9FCEDC2E7C9
:1002B700FF75F056A4F42411C5F0F434C58FF0A4EB
:1002C7002AE5F03BE43CF020E714120514D0E0FFE8
:1002D700D0E0FED0E0FDD0E0FC1204478014F40427
:1002E700120514D0E0FFD0E0FED0E0FDD0E0FC1214
:1002F7000003D082D083E0FAEDD2E7CD33EC33248C
:1003070082FBE4C3CF33CFCE33CECD33CD33DBF354
:100317007B0775F00A846004F0A31B0AE5F0F0A3DD
:100327008FF0740AA4FFACF08EF0740AA42CFEAC14
:10033700F050010C8DF0740AA42CFDE435F0F0A305
:05034700DBDE7407225B
:10034C000201F5E86480F8E933E83360110460F0E9
:10035C00ED33EC337009E8FCE9FDEAFEEBFF220417
:10036C0060DED3EB9FEA9EE99DE8C2E78CF0C2F712
:10037C0095F0400CE8CCF8E9CDF9EACEFAEBCFFBDE
:10038C001201C085D0F05804700320D5B3E8047076
:10039C00075002B2D50201FF92D5EC0460F7E4CC11
:1003AC00C0E0C398F8603B94186008400DD0E0FBA7
:1003BC000201D7E4FBFAC9FC8028E830E406E4C962
:1003CC00FBE4CAFCE830E305E4C9CACBFCE85407FB
:1003DC006010F8C3E913F9EA13FAEB13FBEC13FC06
:1003EC00D8F130F52FC3E49CFCEF9BFFEE9AFEEDA9
:1003FC0099FDD0E0FBEF4E4D4C701222DB03020155
:10040C00FCEC2CFCEF33FFEE33FEED33FDED30E76F
:10041C00EB0201D7EF2BFFEE3AFEED39FDD0E0FBFE
:10042C0050130BBB00030201FFED13FDEE13FEEFA7
:08043C0013FFEC13FC0201D7D1
:100444000201FFEC5D046005E8590470030201F544
:100454001201C0580460F6EC4860F2EC7004FDFE32
:10046400FF22C860DB2481C85009C398600250068B
:100474000201FC9850CAF582E9294B4A7005AB8207
:100484000201EB75F0007C1A7880C3EF9BEE9AEDC5
:1004940099400DC3EF9BFFEE9AFEED99FDE842F003
:1004A400DC23ACF0D0E0FFD0E0FED0E0FDAB822056
:1004B400E7101BEB60BAEC2CFCEF33FFEE33FEEDE0
:1004C40033FD0201D7E803F830E705C0F075F0000A
:1004D400EF2FFFEE33FEED33FD40B830E7C280AAC4
:1004E4003F8000004120000042C80000447A000020
:1004F400461C400047C35000497424004B189680A2
:100504004CBEBC205A0E1BCA6753C21C749DC5AE98
:10051400FB60065407601C2323120542EB54386029
:100524000912052E12053D120003ECF8EDF9EEFA5E
:10053400EFCB22EB12053D80F1543803241C9004C8
:10054400E4FE93FC0EEE93FD0EEE930ECE93FF228B
:1020FD00020EECE493A3F8E493A34003F68001F2FF
:10210D0008DFF48029E493A3F85407240CC8C333E3
:10211D00C4540F4420C8834004F456800146F6DFB2
:10212D00E4800B0102040810204080902718E47E03
:10213D00019360BCA3FF543F30E509541FFEE493A7
:10214D00A360010ECF54C025E060A840B8E493A36E
:10215D00FAE493A3F8E493A3C8C582C8CAC583CA99
:10216D00F0A3C8C582C8CAC583CADFE9DEE780BE51
:0127320000A6
:10055400BB010689828A83E0225002E722BBFE02A5
:09056400E32289828A83E49322D8
:10056D00BB010CE58229F582E5833AF583E0225043
:10057D0006E92582F8E622BBFE06E92582F8E2228D
:0D058D00E58229F582E5833AF583E49322A7
:10059A00BB010689828A83F0225002F722BBFE0140
:0205AA00F3223A
:1005AC00F8BB010DE58229F582E5833AF583E8F085
:1005BC00225006E92582C8F622BBFE05E92582C831
:0205CC00F22219
:1005CE00C5F0F8A3E028F0C5F0F8E58215827002B8
:0605DE001583E038F02255
:1005E400BB010A89828A83F0E5F0A3F0225006F762
:0F05F40009A7F01922BBFE06F3E5F009F319225F
:10060300E88FF0A4CC8BF0A42CFCE98EF0A42CFC96
:100613008AF0EDA42CFCEA8EF0A4CDA8F08BF0A414
:100623002DCC3825F0FDE98FF0A42CCD35F0FCEB73
:100633008EF0A4FEA9F0EB8FF0A4CFC5F02ECD3938
:0F064300FEE43CFCEAA42DCE35F0FDE43CFC22A5
:1006520075F008758200EF2FFFEE33FECD33CDCC5F
:1006620033CCC58233C5829BED9AEC99E5829840E2
:100672000CF582EE9BFEED9AFDEC99FC0FD5F0D6BF
:10068200E4CEFBE4CDFAE4CCF9A88222B800C1B9E9
:100692000059BA002DEC8BF084CFCECDFCE5F0CB27
:1006A200F97818EF2FFFEE33FEED33FDEC33FCEB60
:1006B20033FB10D703994004EB99FB0FD8E5E4F91B
:1006C200FA227818EF2FFFEE33FEED33FDEC33FC08
:1006D200C933C910D7059BE99A4007EC9BFCE99AFC
:1006E200F90FD8E0E4C9FAE4CCFB2275F010EF2F41
:1006F200FFEE33FEED33FDCC33CCC833C810D70741
:100702009BEC9AE899400AED9BFDEC9AFCE899F87B
:0E0712000FD5F0DAE4CDFBE4CCFAE4C8F9220E
:0E072000C3E49FFFE49EFEE49DFDE49CFC22EA
:10072E00E8600FECC313FCED13FDEE13FEEF13FFA9
:03073E00D8F122CD
:0C074100ECF0A3EDF0A3EEF0A3EFF0222B
:10074D00A8828583F0D083D08212076412076412C9
:10075D000764120764E473E493A3C583C5F0C583EE
:10076D00C8C582C8F0A3C583C5F0C583C8C582C8F6
:01077D002259
:10077E00F8E0FBA3A3E0F925F0F0E5821582700204
:07078E001583E0FA38F022A8
:09079500EBF0A3EAF0A3E9F02265
:10079E00D083D082F8E4937012740193700DA3A3EA
:1007AE0093F8740193F5828883E4737402936860FE
:0607BE00EFA3A3A380DFFE
:1007C400D083D082F8E4937012740193700DA3A3C4
:1007D40093F8740193F5828883E473740293B5F0FB
:0D07E400067403936860E9A3A3A3A380D863
:10265A00EFB40A07740D122665740A309811A89906
:10266A00B8130CC2983098FDA899C298B811F630E0
:07267A0099FDC299F59922B8
:00000001FF
