:030A6B0025630000
:03002300020A17B7
:100A1700C0E0C083C082C09130980AD20A900048D3
:100A2700E599F0C298309905200902C299D091D072
:060A370082D083D0E03202
:10076300A2AF9210C2AF75C7AA75C755E4F591A29F
:100773001092AFF5B1F5B2F5B3F5B4F5ACF5AD7FC5
:1007830006120658A2AF9210C2AF75C7AA75C75515
:10079300E4F591A21092AF53B1BF53B2BF900024BE
:1007A30004F0A31204780001C2007F007E367D6E40
:1007B3007C01120547D2ACD2AFD299D209300A21BB
:1007C300900000E004F0A292B39292900048E0FF00
:1007D300900000E02402F582E43400F583EFF0C2D8
:1007E3000A900000E0C3941E40D3E4A3F0900001FC
:1007F300E0FFD3941E50207BFF7A0A796B74022F9B
:10080300F582E43400F583E0900023F01200919028
:0E0813000001E004F080D6E4900000F0809F29
:040A5E008F828E8372
:030A6200E493FF1B
:010A6500226E
:0B000300EF448075C7AA75C755F59F34
:01000E0022CF
:09000F00300E05438702000022B7
:09001800300F05438701000022AE
:10065800A2AF9210C2AF75C7AA75C755439F01A232
:100668001092AFE4F591EF24F9600C1460092402AC
:10067800700875A638800375A630E4F5A775AF0431
:10068800A2AF9210C2AF75C7AA75C75543A401A2FD
:100698001092AF85AE0805A6A2AF9210C2AF75C77B
:1006A800AA75C75543A401A21092AF85AE09EF24DD
:1006B800F8600302073DE50825E0FFE50954012F2E
:1006C800FF54C0F50BEF543FF50A74F22FFF75AFD6
:1006D8000C75A601E4F5A7A2AF9210C2AFA2AF9223
:1006E80010C2AF75C7AA75C75543AA40A21092AFEA
:1006F80075C7AA75C75543A401A21092AFE5AE64A9
:100708004B600BE5AE64526005E5AEB45322E50AD2
:10071800C3940F5017E50B6440600BE50B648060D1
:1007280005E50BB4C00A74F22FFF800474FC2FFF98
:10073800EFC313F50875C7AA75C75585088475C72B
:10074800AA75C755850985A2AF9210C2AF75C7AA09
:0A07580075C755539FFEA21092AF23
:010762002274
:10091D00EF24FD6011146012240270357F0212095C
:10092D00947F020208BB7F0380117F021209947F1E
:10093D00021208BB7F041209947F041208BBA2AFF8
:10094D009210C2AF75C7AA75C7555397DFA2109203
:02095D00AF22C7
:10099400EF24FC601E24027028A2AF9210C2AF752F
:1009A400C7AA75C755439720A21092AFE59620E5D4
:1009B4001080F975C7AA75C7554397C0E59630E30B
:0209C400FB2214
:1009C600E4F591EF24FC60182402701DA2AF92108A
:1009D600C2AF75C7AA75C7555397DFA21092AF224B
:0A09E60075C7AA75C75553973F2245
:1008BB00E4F591A2AF9210C2AFEF24FD6018146063
:1008CB003924027048A2AF9210C2AF75C7AA75C780
:1008DB00555396FB800FA2AF9210C2AF75C7AA7586
:1008EB00C755439604A21092AFA2AF9210C2AF7538
:1008FB00C7AA75C7555396FD800FA2AF9210C2AF12
:10090B0075C7AA75C755439608A21092AFA210924D
:02091B00AF2209
:040A6600C109C10AF7
:1005470090002012046C900024E014605B14607922
:100557002402600302065775985043892043878019
:10056700438E10A2AF9210C2AF75C7AA75C755E4E4
:10057700F591A21092AF53C4DF7B10FAF9F89000FF
:1005870020E0FCA3E0FDA3E0FEA3E0FF1203C79079
:100597000025E0F8A3E0F9A3E0FAA3E0FB1203C704
:1005A700EFF404F58DD28E2275985043878053C49B
:1005B700F8A2AF9210C2AF75C7AA75C755E4F591F7
:1005C700A21092AF43C420800775F85075C480E429
:1005D7007B10FAF9F8900020E0FCA3E0FDA3E0FE11
:1005E700A3E0FF1203C7900025E0F8A3E0F9A3E01A
:1005F700FAA3E0FB1203C7C3E49FFFE49EFE740166
:100607009DFDE49CFC78081204598FC6E47B10FA20
:10061700F9F8900020E0FCA3E0FDA3E0FEA3E0FFD3
:100627001203C7900025E0F8A3E0F9A3E0FAA3E0DE
:10063700FB1203C7C3E49FFFE48FC5A2AF9210C2AA
:10064700AF75C7AA75C755F591A21092AF43C408F5
:010657002280
:100A3D00C091E4F591EF14600C047012C2998D9978
:100A4D0020990B80FBC2F9AF058F9A20F9FDD0914B
:010A5D002276
:10095F00A2AF9210C2AF75C7AA75C755E4F591A2A1
:10096F001092AF53B1BF53B2BF900024F0A3120443
:10097F00780001C2007F007E367D6E7C0112054734
:05098F00D299D20922FB
:03000000020821D2
:10082100787FE4F6D8FD9000007FFF7E08E4F0A316
:0A083100DFFCDEFA75812202087672
:10083B00020763E493A3F8E493A34003F68001F269
:10084B0008DFF48029E493A3F85407240CC8C333BE
:10085B00C4540F4420C8834004F456800146F6DF8D
:10086B00E4800B0102040810204080900A66E47EAD
:10087B00019360BCA3FF543F30E509541FFEE49382
:10088B00A360010ECF54C025E060A840B8E493A349
:10089B00FAE493A3F8E493A3C8C582C8CAC583CA74
:1008AB00F0A3C8C582C8CAC583CADFE9DEE780BE2C
:010A6A00008B
:10038B0075F008758200EF2FFFEE33FECD33CDCC29
:10039B0033CCC58233C5829BED9AEC99E5829840AC
:1003AB000CF582EE9BFEED9AFDEC99FC0FD5F0D689
:1003BB00E4CEFBE4CDFAE4CCF9A88222B800C1B9B3
:1003CB000059BA002DEC8BF084CFCECDFCE5F0CBF1
:1003DB00F97818EF2FFFEE33FEED33FDEC33FCEB2A
:1003EB0033FB10D703994004EB99FB0FD8E5E4F9E5
:1003FB00FA227818EF2FFFEE33FEED33FDEC33FCD2
:10040B00C933C910D7059BE99A4007EC9BFCE99AC5
:10041B00F90FD8E0E4C9FAE4CCFB2275F010EF2F0A
:10042B00FFEE33FEED33FDCC33CCC833C810D7070A
:10043B009BEC9AE899400AED9BFDEC9AFCE899F845
:0E044B000FD5F0DAE4CDFBE4CCFAE4C8F922D8
:10045900E8600FECC313FCED13FDEE13FEEF13FF81
:03046900D8F122A5
:0C046C00ECF0A3EDF0A3EEF0A3EFF02203
:10047800A8828583F0D083D08212048F12048F1251
:10048800048F12048FE473E493A3C583C5F0C58376
:10049800C8C582C8F0A3C583C5F0C583C8C582C8CE
:0104A8002231
:10002600E5082423F582E43400F583E005082290F0
:100036000020300703900023E475F0011205010249
:1000460004A92000E97F2ED2008018EF540F2490D7
:10005600D43440D4FF30040BEF24BFB41A0050034D
:100066002461FFE50960021509050CE50C7002051F
:100076000B30070E900020E475F001120501EF0227
:1000860004EF0209F07403D2078003E4C207F508FF
:10009600900020120518E4F509F50BF50CE509604A
:1000A600077F2012006980F5750AFFC201C200C2EF
:1000B60002C203C205C206C208120035FF700D3027
:1000C60007057F0012007AAF0CAE0B22B4255FC283
:1000D600D5C204120035FF24D0B40A00501A75F0B8
:1000E6000A780930D50508B6FF0106C6A426F6200B
:1000F600D5047002D20380D924CFB41A00EF50047D
:10010600C2E5D20402027BD20180C6D20080C0D2F0
:100116000280BCD2D580BAD20580B47F2012006995
:100126002002077401B5090040F1120026FF1200F3
:10013600690200A3D208D2068095120026FB12009F
:1001460026FA120026F94A4B7006794C7A037BFF91
:1001560020022EE509602A7E008E82758300120435
:10016600C260060EEE650A70F0C2D5EBC0E0EAC0CA
:10017600E0E9C0E0EE1202C2D0E0F9D0E0FAD0E049
:10018600FB1204A9FF60AAEBC0E0EAC0E0E9C0E008
:10019600120069D0E02401F9D0E03400FAD0E0FB87
:1001A600E50A0460DCD50AD980877BFF7A0279BE2E
:1001B600D202809C791080027908C206C2088008A3
:1001C600D2D5790A8004790AC2D5E50A047002F507
:1001D6000AE4FAFDFEFF120026FC7B08200113123A
:1001E6000026FD7B1030000A120026FE120026FFB4
:1001F6007B20EC3382D592D55013C3E43000069FA2
:10020600FFE49EFEE42001039DFDE49CFCE4CBF8A4
:10021600C201EC700CCFCECDCCE824F8F870F38098
:1002260017C3EF33FFEE33FEED33FDEC33FCEB3358
:10023600FB994002FB0FD8E9EB300105F8D0E0C48A
:1002460048B201C0E00AEC4D4E4F78207B0070C2E8
:10025600EAB50A0040BCC0E01202C4D0F0D0E020EB
:100266000104C4C0E0C4B201C0F0120052D0F0D5FF
:10027600F0EB0200A312052101405301BA58011107
:100286004C010D4201BE4F01C64401C64901264339
:0802960001CC5501B04601B096
:10029E004501B047036C5001152D01192E013C2B61
:1002AE00011D23013A2003552A00D54800000134D0
:1002BE003F3F3F00790AA2D5200314300509B9103B
:1002CE00020404B9080104A2D5200602500104203C
:1002DE0002689202B509005034C0E07F2030031945
:1002EE007F30A20272067205500F12031BC202C2A9
:1002FE0006C205C2087F30800F300503E9C0E01248
:10030E000069300503D0E0F9D0E0B509CC3005170F
:10031E007F30B9100C1200697F583004077F788047
:10032E0003B908031200693002057F2D0200697FB0
:10033E00202008F87F2B2006F322920280CF286E11
:10034E00756C6C2900D2011200263001F8C20178BA
:10035E000930D50108F60200D52D50434958120038
:10036E00262403B405004001E49003679312005A5B
:0D037E00743A12005AD2037509040201BA44
:1004A900BB010689828A83E0225002E722BBFE0251
:0904B900E32289828A83E4932284
:1004C200BB010CE58229F582E5833AF583E02250EF
:1004D20006E92582F8E622BBFE06E92582F8E22239
:0D04E200E58229F582E5833AF583E4932253
:1004EF00BB010689828A83F0225002F722BBFE01EC
:0204FF00F322E6
:10050100F8E0FBA3A3E0F925F0F0E5821582700283
:070511001583E0FA38F02227
:09051800EBF0A3EAF0A3E9F022E4
:10052100D083D082F8E4937012740193700DA3A369
:1005310093F8740193F5828883E47374029368607D
:06054100EFA3A3A380DF7D
:1009F000EFB40A07740D1209FB740A309811A89914
:100A0000B8130CC2983098FDA899C298B811F63066
:070A100099FDC299F599223E
:00000001FF
