:100733004400000000000044000400000000C180E9
:03000B000203CC21
:1003CC00C0E0C0F0C083C082C0D075D000C000C0F7
:1003DC0001C002C003C004C005C006C007C09175AF
:1003EC008C00758A10C28D900004E0FCA3E0FDA384
:1003FC00E0FEA3E02401FFE43EFEE43DFDE43CFC12
:10040C0090000412056120B0092087062086033075
:10041C008521900000E0FCA3E0FDA3E0FEA3E02416
:10042C0001FFE43EFEE43DFDE43CFC9000001205BF
:10043C0061800A90000012056D00000000E47F93BB
:10044C007E09FDFC900000E0F8A3E0F9A3E0FAA31C
:10045C00E0FBD3120550400F1206A1C2801206A376
:10046C001206A1C2808002C280208504C290800244
:10047C00D290208604C2918002D291208704C2922D
:10048C008002D29220B004C2938002D293D091D039
:10049C0007D006D005D004D003D002D001D000D0B4
:0A04AC00D0D082D083D0F0D0E0322F
:10000E001206F753890F538EF7E4F58C758A10D2CA
:10001E00A9D2AFD28CFF7E011202D8E4FF120744A0
:10002E00C280C281C282C283C284D293D292D29142
:10003E00D29020850920860620870330B004C200A6
:10004E008002D20020976520851520861220870F0A
:10005E0020B00CD28190000412056D000000001239
:10006E0006A1C2801206A3D2807FF48034E47FC939
:10007E007E04FDFC900004E0F8A3E0F9A3E0FAA3EF
:10008E00E0FBC3120550502230970930960630958A
:10009E000320940B7F2C7E011206A7D28080CE7F88
:1000AE002C7E011206A7C28080C3C28120955620E5
:1000BE00851520861220870F20B00CD28390000465
:1000CE0012056D000000001206A1C2801206A312D6
:1000DE0006A1C280E47FC97E04FDFC900004E0F816
:1000EE00A3E0F9A3E0FAA3E0FBC3120550501430CD
:1000FE009709309606309503209404D28080D5C29D
:10010E008080D1C2832096582085152086122087A4
:10011E000F20B00CD28290000412056D000000007A
:10012E001206A1C2801206A31206A1C280E47FC9E4
:10013E007E04FDFC900004E0F8A3E0F9A3E0FAA32E
:10014E00E0FBC312055050143097093096063095D7
:10015E0003209404D28080D5C28080D1C282C28016
:10016E0030940302004020851520861220870F2030
:10017E00B00CD28490000412056D0000000012062F
:10018E00A1C2801206A31206A1C280E47FC97E041A
:10019E00FDFC900004E0F8A3E0F9A3E0FAA3E0FB75
:1001AE00C31205505014309709309606309503202F
:0F01BE009404D28080D5C28080D1C284020040D8
:0606A100D2807FF47E010F
:1006A700E4FDFCE4FBFAC3EB9FEE6480F8EA6480A8
:1006B7009850070BBB00010A80EC0DBD00010CBC74
:0506C70005E1BD10DE9D
:0106CC00220B
:1006F700A2AF9200C2AF75C7AA75C755E4F591A21C
:100707000092AFF5B175B2FFF5B375B4FFF5AC75EF
:03071700ADFF2211
:1001CD00A2AF9200C2AF75C7AA75C755439F01A2D2
:1001DD000092AFE4F591EF24F9600C14600924024C
:1001ED00700875A638800375A630E4F5A775AF04C1
:1001FD00A2AF9200C2AF75C7AA75C75543A401A29D
:10020D000092AF85AE0805A6A2AF9200C2AF75C72A
:10021D00AA75C75543A401A20092AF85AE09EF247C
:10022D00F860030202B2E50825E0FFE50954012F4D
:10023D00FF54C0F50BEF543FF50A74F22FFF75AF65
:10024D000C75A601E4F5A7A2AF9200C2AFA2AF92C2
:10025D0000C2AF75C7AA75C75543AA40A20092AF99
:10026D0075C7AA75C75543A401A20092AFE5AE6448
:10027D004B600BE5AE64526005E5AEB45322E50A62
:10028D00C3940F5017E50B6440600BE50B64806061
:10029D0005E50BB4C00A74F22FFF800474FC2FFF28
:1002AD00EFC313F50875C7AA75C75585088475C7BB
:1002BD00AA75C755850985A2AF9200C2AF75C7AAA9
:0A02CD0075C755539FFEA20092AFC3
:0102D7002204
:10062D00EF24FD6011146012240270357F02120652
:10063D006F7F020205CB7F0380117F0212066F7F51
:10064D00021205CB7F0412066F7F041205CBA2AFF9
:10065D009200C2AF75C7AA75C7555397DFA2009216
:02066D00AF22BA
:10066F00EF24FC601E24027028A2AF9200C2AF7567
:10067F00C7AA75C755439720A20092AFE59620E50C
:10068F001080F975C7AA75C7554397C0E59630E333
:02069F00FB223C
:1006CD00E4F591EF24FC60182402701DA2AF920096
:1006DD00C2AF75C7AA75C7555397DFA20092AF2257
:0A06ED0075C7AA75C75553973F2241
:1005CB00E4F591A2AF9200C2AFEF24FD6018146066
:1005DB003924027048A2AF9200C2AF75C7AA75C783
:1005EB00555396FB800FA2AF9200C2AF75C7AA7589
:1005FB00C755439604A20092AFA2AF9200C2AF754B
:10060B00C7AA75C7555396FD800FA2AF9200C2AF14
:10061B0075C7AA75C755439608A20092AFA2009260
:02062B00AF22FC
:1002D800E4F591A2AF9200C2AFEF8EF012059E0333
:1002E8000B000103170004032B0008033F00100351
:1002F80053002003670040037B0080038F01000048
:100308000003A175C7AA75C75553AAF80203A175BA
:10031800C7AA75C75553AAF875C7AA75C75543AA7A
:1003280001807675C7AA75C75553AAF875C7AA7507
:10033800C75543AA02806275C7AA75C75553AAF85C
:1003480075C7AA75C75543AA03804E75C7AA75C74E
:100358005553AAF875C7AA75C75543AA04803A75B4
:10036800C7AA75C75553AAF875C7AA75C75543AA2A
:1003780005802675C7AA75C75553AAF875C7AA7503
:10038800C75543AA06801275C7AA75C75553AAF858
:1003980075C7AA75C75543AA07A20092AFA2AF9224
:1003A80000C2AF75C7AA75C75543AA10A20092AF7D
:1003B800A2AF9200C2AF75C7AA75C75543AA80A25B
:0403C8000092AF22CE
:0F074400EF146007047007539BEF22439B1022B2
:10071A00A2AF9200C2AF75C7AA75C75543AA40A235
:09072A000092AFE5AA20E6FB22D3
:030000000204B641
:1004B600787FE4F6D8FD9000007FFF7E08E4F0A385
:0A04C600DFFCDEFA75819002050BE1
:1004D00002000EE493A3F8E493A34003F68001F234
:1004E00008DFF48029E493A3F85407240CC8C3332D
:1004F000C4540F4420C8834004F456800146F6DFFC
:10050000E4800B0102040810204080900733E47E51
:10051000019360BCA3FF543F30E509541FFEE493F0
:10052000A360010ECF54C025E060A840B8E493A3B7
:10053000FAE493A3F8E493A3C8C582C8CAC583CAE2
:10054000F0A3C8C582C8CAC583CADFE9DEE780BE9A
:0107430000B5
:10055000EB9FF5F0EA9E42F0E99D42F0E89C45F001
:010560002278
:0C056100ECF0A3EDF0A3EEF0A3EFF0220D
:10056D00A8828583F0D083D082120584120584126F
:10057D000584120584E473E493A3C583C5F0C58394
:10058D00C8C582C8F0A3C583C5F0C583C8C582C8D8
:01059D00223B
:10059E00D083D082F8E4937012740193700DA3A3EC
:1005AE0093F8740193F5828883E473740293B5F023
:0D05BE00067403936860E9A3A3A3A380D88B
:00000001FF
