:10072C004400000000000044000400000000C180F0
:03000B000202C12D
:1002C100C0E0C0F0C083C082C0D075D000C000C003
:1002D10001C002C003C004C005C006C007C09175BB
:1002E1008C00758A10C28D900004E0FCA3E0FDA390
:1002F100E0FEA3E02401FFE43EFEE43DFDE43CFC1E
:1003010090000412055A20B0092087062086033088
:100311008521900000E0FCA3E0FDA3E0FEA3E02422
:1003210001FFE43EFEE43DFDE43CFC9000001205CB
:100331005A800A90000012056600000000E47F93D5
:100341007E09FDFC900000E0F8A3E0F9A3E0FAA328
:10035100E0FBD3120549401FD2807FF47E011206D3
:10036100A0C2807FF47E011206A0D2807FF47E01BC
:100371001206A0C2808002C280208504C290800241
:10038100D290208604C2918002D291208704C29229
:100391008002D29220B004C2938002D293D091D035
:1003A10007D006D005D004D003D002D001D000D0B0
:0A03B100D0D082D083D0F0D0E0322B
:10000E001206F053890F538EF7E4F58C758A10D2D1
:10001E00A9D2AFD28CFF7E011203BBE4FF12073DC3
:10002E00C280C281C282C283C284D293D292D29142
:10003E00D29020850920860620870330B004C200A6
:10004E008002D20020975620851520861220870F19
:10005E0020B00CD281900004120566000000001240
:10006E00069AC28012069C12069AC280E47FC97E4E
:10007E0004FDFC900004E0F8A3E0F9A3E0FAA3E08D
:10008E00FBC312054950143097093096063095037C
:10009E00209404D28080D5C28080D1C28120954E1A
:1000AE0020851520861220870F20B00CD283900059
:1000BE00041205660000000012069AC280E47FC991
:1000CE007E04FDFC900004E0F8A3E0F9A3E0FAA39F
:1000DE00E0FBC3120549501430970930960630954F
:1000EE0003209404D28080D5C28080D1C283209612
:1000FE005820851520861220870F20B00CD28290B2
:10010E0000041205660000000012069AC280120654
:10011E009C12069AC280E47FC97E04FDFC90000406
:10012E00E0F8A3E0F9A3E0FAA3E0FBC312054950FF
:10013E0014309709309606309503209404D28080AF
:10014E00D5C28080D1C282C280309403020040208A
:10015E00851520861220870F20B00CD284900004C3
:10016E001205660000000012069AC28012069C124A
:10017E00069AC280E47FC97E04FDFC900004E0F87C
:10018E00A3E0F9A3E0FAA3E0FBC312054950143033
:10019E009709309606309503209404D28080D5C2FC
:0801AE008080D1C284020040F0
:06069A00D2807F647E00A7
:1006A000E4FDFCE4FBFAC3EB9FEE6480F8EA6480AF
:1006B0009850070BBB00010A80EC0DBD00010CBC7B
:0506C00005E1BD10DEA4
:0106C5002212
:1006F000A2AF9200C2AF75C7AA75C755E4F591A223
:100700000092AFF5B175B2FFF5B375B4FFF5AC75F6
:03071000ADFF2218
:1001B600A2AF9200C2AF75C7AA75C755439F01A2E9
:1001C6000092AFE4F591EF24F9600C146009240263
:1001D600700875A638800375A630E4F5A775AF04D8
:1001E600A2AF9200C2AF75C7AA75C75543A401A2B4
:1001F6000092AF85AE0805A6A2AF9200C2AF75C742
:10020600AA75C75543A401A20092AF85AE09EF2493
:10021600F8600302029BE50825E0FFE50954012F7B
:10022600FF54C0F50BEF543FF50A74F22FFF75AF7C
:100236000C75A601E4F5A7A2AF9200C2AFA2AF92D9
:1002460000C2AF75C7AA75C75543AA40A20092AFB0
:1002560075C7AA75C75543A401A20092AFE5AE645F
:100266004B600BE5AE64526005E5AEB45322E50A79
:10027600C3940F5017E50B6440600BE50B64806078
:1002860005E50BB4C00A74F22FFF800474FC2FFF3F
:10029600EFC313F50875C7AA75C75585088475C7D2
:1002A600AA75C755850985A2AF9200C2AF75C7AAC0
:0A02B60075C755539FFEA20092AFDA
:0102C000221B
:10062600EF24FD6011146012240270357F02120659
:10063600687F020205C47F0380117F021206687F6D
:10064600021205C47F041206687F041205C4A2AF15
:100656009200C2AF75C7AA75C7555397DFA200921D
:02066600AF22C1
:10066800EF24FC601E24027028A2AF9200C2AF756E
:10067800C7AA75C755439720A20092AFE59620E513
:100688001080F975C7AA75C7554397C0E59630E33A
:02069800FB2243
:1006C600E4F591EF24FC60182402701DA2AF92009D
:1006D600C2AF75C7AA75C7555397DFA20092AF225E
:0A06E60075C7AA75C75553973F2248
:1005C400E4F591A2AF9200C2AFEF24FD601814606D
:1005D4003924027048A2AF9200C2AF75C7AA75C78A
:1005E400555396FB800FA2AF9200C2AF75C7AA7590
:1005F400C755439604A20092AFA2AF9200C2AF7552
:10060400C7AA75C7555396FD800FA2AF9200C2AF1B
:1006140075C7AA75C755439608A20092AFA2009267
:02062400AF2203
:1003BB00E4F591A2AF9200C2AFEF8EF01205970356
:1003CB00EE000103FA0004040E00080422001004DE
:1003DB00360020044A0040045E00800472010000D5
:1003EB0000048475C7AA75C75553AAF8020484750F
:1003FB00C7AA75C75553AAF875C7AA75C75543AA97
:10040B0001807675C7AA75C75553AAF875C7AA7523
:10041B00C75543AA02806275C7AA75C75553AAF878
:10042B0075C7AA75C75543AA03804E75C7AA75C76A
:10043B005553AAF875C7AA75C75543AA04803A75D0
:10044B00C7AA75C75553AAF875C7AA75C75543AA46
:10045B0005802675C7AA75C75553AAF875C7AA751F
:10046B00C75543AA06801275C7AA75C75553AAF874
:10047B0075C7AA75C75543AA07A20092AFA2AF9240
:10048B0000C2AF75C7AA75C75543AA10A20092AF99
:10049B00A2AF9200C2AF75C7AA75C75543AA80A277
:0404AB000092AF22EA
:0F073D00EF146007047007539BEF22439B1022B9
:10071300A2AF9200C2AF75C7AA75C75543AA40A23C
:090723000092AFE5AA20E6FB22DA
:030000000204AF48
:1004AF00787FE4F6D8FD9000007FFF7E08E4F0A38C
:0A04BF00DFFCDEFA758190020504EF
:1004C90002000EE493A3F8E493A34003F68001F23B
:1004D90008DFF48029E493A3F85407240CC8C33334
:1004E900C4540F4420C8834004F456800146F6DF03
:1004F900E4800B010204081020408090072CE47E60
:10050900019360BCA3FF543F30E509541FFEE493F7
:10051900A360010ECF54C025E060A840B8E493A3BE
:10052900FAE493A3F8E493A3C8C582C8CAC583CAE9
:10053900F0A3C8C582C8CAC583CADFE9DEE780BEA1
:01073C0000BC
:10054900EB9FF5F0EA9E42F0E99D42F0E89C45F008
:01055900227F
:0C055A00ECF0A3EDF0A3EEF0A3EFF02214
:10056600A8828583F0D083D08212057D12057D1284
:10057600057D12057DE473E493A3C583C5F0C583A9
:10058600C8C582C8F0A3C583C5F0C583C8C582C8DF
:010596002242
:10059700D083D082F8E4937012740193700DA3A3F3
:1005A70093F8740193F5828883E473740293B5F02A
:0D05B700067403936860E9A3A3A3A380D892
:00000001FF
