:1007D4004400000000000044000400000000C18048
:03000B0002046B81
:10046B00C0E0C0F0C083C082C0D075D000C000C057
:10047B0001C002C003C004C005C006C007C091750F
:10048B008C00758A10C28D900004E0FCA3E0FDA3E4
:10049B00E0FEA3E02401FFE43EFEE43DFDE43CFC72
:1004AB0090000412060220B0092087062086033034
:1004BB008521900000E0FCA3E0FDA3E0FEA3E02477
:1004CB0001FFE43EFEE43DFDE43CFC90000012061F
:1004DB0002800A90000012060E00000000E47F93D9
:1004EB007E09FDFC900000E0F8A3E0F9A3E0FAA37D
:1004FB00E0FBD31205F1402B2090092091062092AE
:10050B000330931FD2807FF47E01120748C2807F95
:10051B00F47E01120748D2807FF47E01120748C295
:10052B0080800C90000012060E00000000C280D0EC
:10053B0091D007D006D005D004D003D002D001D083
:0C054B0000D0D0D082D083D0F0D0E032BD
:10000E0012079853890F538EF7E4F58C758A10D228
:10001E00A9D2AFFF7E01120377E4FF1207E5C2807B
:10002E00C281C282C283C284D293D292D291D29022
:10003E0020850920860620870330B004C200800286
:10004E00D20020977C20852120861E20871B20B081
:10005E001830840930830630820320810CD28190BF
:10006E00000412060E00000000120742C2801207A2
:10007E0044120742C280D2A9D28CE47FC97E04FD0D
:10008E00FC900004E0F8A3E0F9A3E0FAA3E0FBC3C0
:10009E001205F1502820850920860620870330B0EE
:1000AE0008C281C2A9C28C801430970930960630DE
:1000BE009503209404D28080C1C28080BDC281C2CB
:1000CE008020957420852120861E20871B20B01845
:1000DE0030840930830630820320810CD283900055
:1000EE000412060E00000000120742C280D2A9D2EE
:1000FE008CE47FC97E04FDFC900004E0F8A3E0F9D7
:10010E00A3E0FAA3E0FBC31205F1502820850920D5
:10011E00860620870330B008C283C2A9C28C801421
:10012E00309709309606309503209404D28080C112
:10013E00C28080BDC283C28020967C20852120860D
:10014E001E20871B20B018308409308306308203AE
:10015E0020810CD28290000412060E0000000012C4
:10016E000742C280120744120742C280D2A9D28C23
:10017E00E47FC97E04FDFC900004E0F8A3E0F9A33F
:10018E00E0FAA3E0FBC31205F15028208509208672
:10019E000620870330B008C282C2A9C28C801430F8
:1001AE009709309606309503209404D28080C1C200
:1001BE008080BDC282C28020947C20852120861E34
:1001CE0020871B20B018308409308306308203202C
:1001DE00810CD28490000412060E0000000012075B
:1001EE0042C280120744120742C280D2A9D28CE4C6
:1001FE007FC97E04FDFC900004E0F8A3E0F9A3E0C3
:10020E00FAA3E0FBC31205F15028208509208606CB
:10021E0020870330B008C284C2A9C28C80143097E4
:10022E0009309606309503209404D28080C1C28096
:10023E0080BDC284C280208504C2908002D29020EC
:10024E008604C2918002D291208704C2928002D28B
:0E025E009220B005C29302003ED29302003EF1
:06074200D2807F647E00FE
:10074800E4FDFCE4FBFAC3EB9FEE6480F8EA648006
:100758009850070BBB00010A80EC0DBD00010CBCD2
:0507680005E1BD10DEFB
:01076D002269
:10079800A2AF9200C2AF75C7AA75C755E4F591A27A
:1007A8000092AFF5B175B2FFF5B375B4FFF5AC754E
:0307B800ADFF2270
:10026C00A2AF9200C2AF75C7AA75C755439F01A232
:10027C000092AFE4F591EF24F9600C1460092402AC
:10028C00700875A638800375A630E4F5A775AF0421
:10029C00A2AF9200C2AF75C7AA75C75543A401A2FD
:1002AC000092AF85AE0805A6A2AF9200C2AF75C78B
:1002BC00AA75C75543A401A20092AF85AE09EF24DD
:1002CC00F86003020351E50825E0FFE50954012F0E
:1002DC00FF54C0F50BEF543FF50A74F22FFF75AFC6
:1002EC000C75A601E4F5A7A2AF9200C2AFA2AF9223
:1002FC0000C2AF75C7AA75C75543AA40A20092AFFA
:10030C0075C7AA75C75543A401A20092AFE5AE64A8
:10031C004B600BE5AE64526005E5AEB45322E50AC2
:10032C00C3940F5017E50B6440600BE50B648060C1
:10033C0005E50BB4C00A74F22FFF800474FC2FFF88
:10034C00EFC313F50875C7AA75C75585088475C71B
:10035C00AA75C755850985A2AF9200C2AF75C7AA09
:0A036C0075C755539FFEA20092AF23
:010376002264
:1006CE00EF24FD6011146012240270357F021207B0
:1006DE00107F0202066C7F0380117F021207107FCB
:1006EE000212066C7F041207107F0412066CA2AF72
:1006FE009200C2AF75C7AA75C7555397DFA2009275
:02070E00AF2218
:10071000EF24FC601E24027028A2AF9200C2AF75C5
:10072000C7AA75C755439720A20092AFE59620E56A
:100730001080F975C7AA75C7554397C0E59630E391
:02074000FB229A
:10076E00E4F591EF24FC60182402701DA2AF9200F4
:10077E00C2AF75C7AA75C7555397DFA20092AF22B5
:0A078E0075C7AA75C75553973F229F
:10066C00E4F591A2AF9200C2AFEF24FD60181460C4
:10067C003924027048A2AF9200C2AF75C7AA75C7E1
:10068C00555396FB800FA2AF9200C2AF75C7AA75E7
:10069C00C755439604A20092AFA2AF9200C2AF75A9
:1006AC00C7AA75C7555396FD800FA2AF9200C2AF73
:1006BC0075C7AA75C755439608A20092AFA20092BF
:0206CC00AF225B
:10037700E4F591A2AF9200C2AFEF8EF012063F03F1
:10038700AA000103B6000403CA000803DE00100335
:10039700F2002004060040041A0080042E01000029
:1003A70000044075C7AA75C75553AAF802044075DB
:1003B700C7AA75C75553AAF875C7AA75C75543AADB
:1003C70001807675C7AA75C75553AAF875C7AA7568
:1003D700C75543AA02806275C7AA75C75553AAF8BD
:1003E70075C7AA75C75543AA03804E75C7AA75C7AF
:1003F7005553AAF875C7AA75C75543AA04803A7515
:10040700C7AA75C75553AAF875C7AA75C75543AA8A
:1004170005802675C7AA75C75553AAF875C7AA7563
:10042700C75543AA06801275C7AA75C75553AAF8B8
:1004370075C7AA75C75543AA07A20092AFA2AF9284
:1004470000C2AF75C7AA75C75543AA10A20092AFDD
:10045700A2AF9200C2AF75C7AA75C75543AA80A2BB
:040467000092AF222E
:0F07E500EF146007047007539BEF22439B102211
:1007BB00A2AF9200C2AF75C7AA75C75543AA40A294
:0907CB000092AFE5AA20E6FB2232
:030000000205579F
:10055700787FE4F6D8FD9000007FFF7E08E4F0A3E3
:0A056700DFFCDEFA7581900205AC9E
:1005710002000EE493A3F8E493A34003F68001F292
:1005810008DFF48029E493A3F85407240CC8C3338B
:10059100C4540F4420C8834004F456800146F6DF5A
:1005A100E4800B01020408102040809007D4E47E0F
:1005B100019360BCA3FF543F30E509541FFEE4934F
:1005C100A360010ECF54C025E060A840B8E493A316
:1005D100FAE493A3F8E493A3C8C582C8CAC583CA41
:1005E100F0A3C8C582C8CAC583CADFE9DEE780BEF9
:0107E4000014
:1005F100EB9FF5F0EA9E42F0E99D42F0E89C45F060
:0106010022D6
:0C060200ECF0A3EDF0A3EEF0A3EFF0226B
:10060E00A8828583F0D083D0821206251206251289
:10061E000625120625E473E493A3C583C5F0C583AE
:10062E00C8C582C8F0A3C583C5F0C583C8C582C836
:01063E002299
:10063F00D083D082F8E4937012740193700DA3A34A
:10064F0093F8740193F5828883E473740293B5F081
:0D065F00067403936860E9A3A3A3A380D8E9
:00000001FF
